{
  "_format": "hh-sol-artifact-1",
  "contractName": "PassingSecretInfo",
  "sourceName": "contracts/PassingSecretInfo.sol",
  "abi": [
    {
      "inputs": [
        {
          "internalType": "uint256",
          "name": "amount",
          "type": "uint256"
        },
        {
          "internalType": "string",
          "name": "title",
          "type": "string"
        },
        {
          "internalType": "string",
          "name": "description",
          "type": "string"
        },
        {
          "internalType": "string",
          "name": "company_name",
          "type": "string"
        },
        {
          "internalType": "string",
          "name": "info",
          "type": "string"
        }
      ],
      "name": "addSecretInfo",
      "outputs": [],
      "stateMutability": "nonpayable",
      "type": "function"
    },
    {
      "inputs": [],
      "name": "getPaidSecretInfosAccessed",
      "outputs": [
        {
          "components": [
            {
              "components": [
                {
                  "internalType": "uint256",
                  "name": "secret_info_id",
                  "type": "uint256"
                },
                {
                  "internalType": "address",
                  "name": "owner_address",
                  "type": "address"
                },
                {
                  "internalType": "uint256",
                  "name": "amount",
                  "type": "uint256"
                },
                {
                  "internalType": "string",
                  "name": "title",
                  "type": "string"
                },
                {
                  "internalType": "string",
                  "name": "description",
                  "type": "string"
                },
                {
                  "internalType": "string",
                  "name": "company_name",
                  "type": "string"
                }
              ],
              "internalType": "struct PassingSecretInfo.SecretInfo",
              "name": "secret_info",
              "type": "tuple"
            },
            {
              "internalType": "string",
              "name": "info",
              "type": "string"
            },
            {
              "internalType": "address[]",
              "name": "accessed_adresses",
              "type": "address[]"
            }
          ],
          "internalType": "struct PassingSecretInfo.SecretInfoAccessed[]",
          "name": "",
          "type": "tuple[]"
        }
      ],
      "stateMutability": "view",
      "type": "function"
    },
    {
      "inputs": [
        {
          "internalType": "uint256",
          "name": "id",
          "type": "uint256"
        }
      ],
      "name": "getSecretInfoAccessed",
      "outputs": [
        {
          "components": [
            {
              "components": [
                {
                  "internalType": "uint256",
                  "name": "secret_info_id",
                  "type": "uint256"
                },
                {
                  "internalType": "address",
                  "name": "owner_address",
                  "type": "address"
                },
                {
                  "internalType": "uint256",
                  "name": "amount",
                  "type": "uint256"
                },
                {
                  "internalType": "string",
                  "name": "title",
                  "type": "string"
                },
                {
                  "internalType": "string",
                  "name": "description",
                  "type": "string"
                },
                {
                  "internalType": "string",
                  "name": "company_name",
                  "type": "string"
                }
              ],
              "internalType": "struct PassingSecretInfo.SecretInfo",
              "name": "secret_info",
              "type": "tuple"
            },
            {
              "internalType": "string",
              "name": "info",
              "type": "string"
            },
            {
              "internalType": "address[]",
              "name": "accessed_adresses",
              "type": "address[]"
            }
          ],
          "internalType": "struct PassingSecretInfo.SecretInfoAccessed",
          "name": "",
          "type": "tuple"
        }
      ],
      "stateMutability": "view",
      "type": "function"
    },
    {
      "inputs": [
        {
          "internalType": "uint256",
          "name": "id",
          "type": "uint256"
        }
      ],
      "name": "getSecretInfoById",
      "outputs": [
        {
          "components": [
            {
              "internalType": "uint256",
              "name": "secret_info_id",
              "type": "uint256"
            },
            {
              "internalType": "address",
              "name": "owner_address",
              "type": "address"
            },
            {
              "internalType": "uint256",
              "name": "amount",
              "type": "uint256"
            },
            {
              "internalType": "string",
              "name": "title",
              "type": "string"
            },
            {
              "internalType": "string",
              "name": "description",
              "type": "string"
            },
            {
              "internalType": "string",
              "name": "company_name",
              "type": "string"
            }
          ],
          "internalType": "struct PassingSecretInfo.SecretInfo",
          "name": "",
          "type": "tuple"
        }
      ],
      "stateMutability": "view",
      "type": "function"
    },
    {
      "inputs": [],
      "name": "getSecretInfos",
      "outputs": [
        {
          "components": [
            {
              "internalType": "uint256",
              "name": "secret_info_id",
              "type": "uint256"
            },
            {
              "internalType": "address",
              "name": "owner_address",
              "type": "address"
            },
            {
              "internalType": "uint256",
              "name": "amount",
              "type": "uint256"
            },
            {
              "internalType": "string",
              "name": "title",
              "type": "string"
            },
            {
              "internalType": "string",
              "name": "description",
              "type": "string"
            },
            {
              "internalType": "string",
              "name": "company_name",
              "type": "string"
            }
          ],
          "internalType": "struct PassingSecretInfo.SecretInfo[]",
          "name": "",
          "type": "tuple[]"
        }
      ],
      "stateMutability": "view",
      "type": "function"
    },
    {
      "inputs": [
        {
          "internalType": "string",
          "name": "company_name",
          "type": "string"
        }
      ],
      "name": "getSecretInfosByCompanyName",
      "outputs": [
        {
          "components": [
            {
              "internalType": "uint256",
              "name": "secret_info_id",
              "type": "uint256"
            },
            {
              "internalType": "address",
              "name": "owner_address",
              "type": "address"
            },
            {
              "internalType": "uint256",
              "name": "amount",
              "type": "uint256"
            },
            {
              "internalType": "string",
              "name": "title",
              "type": "string"
            },
            {
              "internalType": "string",
              "name": "description",
              "type": "string"
            },
            {
              "internalType": "string",
              "name": "company_name",
              "type": "string"
            }
          ],
          "internalType": "struct PassingSecretInfo.SecretInfo[]",
          "name": "",
          "type": "tuple[]"
        }
      ],
      "stateMutability": "view",
      "type": "function"
    },
    {
      "inputs": [
        {
          "internalType": "uint256",
          "name": "id",
          "type": "uint256"
        }
      ],
      "name": "payForSecretInfoAccess",
      "outputs": [],
      "stateMutability": "payable",
      "type": "function"
    },
    {
      "inputs": [
        {
          "internalType": "uint256",
          "name": "",
          "type": "uint256"
        }
      ],
      "name": "secret_infos",
      "outputs": [
        {
          "internalType": "uint256",
          "name": "secret_info_id",
          "type": "uint256"
        },
        {
          "internalType": "address",
          "name": "owner_address",
          "type": "address"
        },
        {
          "internalType": "uint256",
          "name": "amount",
          "type": "uint256"
        },
        {
          "internalType": "string",
          "name": "title",
          "type": "string"
        },
        {
          "internalType": "string",
          "name": "description",
          "type": "string"
        },
        {
          "internalType": "string",
          "name": "company_name",
          "type": "string"
        }
      ],
      "stateMutability": "view",
      "type": "function"
    }
  ],
  "bytecode": "0x60806040526000805534801561001457600080fd5b506135b4806100246000396000f3fe60806040526004361061007b5760003560e01c8063bd95ae481161004e578063bd95ae4814610150578063c526a3981461018d578063cdd62f95146101cf578063fb7b8ddd146101eb5761007b565b80631bc4936514610080578063237fa7eb146100ab57806363246768146100d65780636a0cb98114610113575b600080fd5b34801561008c57600080fd5b50610095610214565b6040516100a291906128c3565b60405180910390f35b3480156100b757600080fd5b506100c0610b5a565b6040516100cd91906129a7565b60405180910390f35b3480156100e257600080fd5b506100fd60048036038101906100f89190612a09565b610dd9565b60405161010a9190612acd565b60405180910390f35b34801561011f57600080fd5b5061013a60048036038101906101359190612a09565b611035565b6040516101479190612b4d565b60405180910390f35b34801561015c57600080fd5b5061017760048036038101906101729190612ca4565b6118e4565b60405161018491906129a7565b60405180910390f35b34801561019957600080fd5b506101b460048036038101906101af9190612a09565b611c22565b6040516101c696959493929190612d55565b60405180910390f35b6101e960048036038101906101e49190612a09565b611e26565b005b3480156101f757600080fd5b50610212600480360381019061020d9190612dcb565b61211e565b005b6060600060018054905067ffffffffffffffff81111561023757610236612b79565b5b60405190808252806020026020018201604052801561027057816020015b61025d612459565b8152602001906001900390816102555790505b5090506000805b600280549050811015610b4e573373ffffffffffffffffffffffffffffffffffffffff16600282815481106102af576102ae612eb6565b5b906000526020600020906008020160000160010160009054906101000a900473ffffffffffffffffffffffffffffffffffffffff1673ffffffffffffffffffffffffffffffffffffffff16036106b1576002818154811061031357610312612eb6565b5b9060005260206000209060080201604051806060016040529081600082016040518060c0016040529081600082015481526020016001820160009054906101000a900473ffffffffffffffffffffffffffffffffffffffff1673ffffffffffffffffffffffffffffffffffffffff1673ffffffffffffffffffffffffffffffffffffffff168152602001600282015481526020016003820180546103b690612f14565b80601f01602080910402602001604051908101604052809291908181526020018280546103e290612f14565b801561042f5780601f106104045761010080835404028352916020019161042f565b820191906000526020600020905b81548152906001019060200180831161041257829003601f168201915b5050505050815260200160048201805461044890612f14565b80601f016020809104026020016040519081016040528092919081815260200182805461047490612f14565b80156104c15780601f10610496576101008083540402835291602001916104c1565b820191906000526020600020905b8154815290600101906020018083116104a457829003601f168201915b505050505081526020016005820180546104da90612f14565b80601f016020809104026020016040519081016040528092919081815260200182805461050690612f14565b80156105535780601f1061052857610100808354040283529160200191610553565b820191906000526020600020905b81548152906001019060200180831161053657829003601f168201915b505050505081525050815260200160068201805461057090612f14565b80601f016020809104026020016040519081016040528092919081815260200182805461059c90612f14565b80156105e95780601f106105be576101008083540402835291602001916105e9565b820191906000526020600020905b8154815290600101906020018083116105cc57829003601f168201915b505050505081526020016007820180548060200260200160405190810160405280929190818152602001828054801561067757602002820191906000526020600020905b8160009054906101000a900473ffffffffffffffffffffffffffffffffffffffff1673ffffffffffffffffffffffffffffffffffffffff168152602001906001019080831161062d575b50505050508152505083838151811061069357610692612eb6565b5b602002602001018190525081806106a990612f74565b925050610b3b565b60005b600282815481106106c8576106c7612eb6565b5b906000526020600020906008020160070180549050811015610b39573373ffffffffffffffffffffffffffffffffffffffff166002838154811061070f5761070e612eb6565b5b9060005260206000209060080201600701828154811061073257610731612eb6565b5b9060005260206000200160009054906101000a900473ffffffffffffffffffffffffffffffffffffffff1673ffffffffffffffffffffffffffffffffffffffff1603610b26576002828154811061078c5761078b612eb6565b5b9060005260206000209060080201604051806060016040529081600082016040518060c0016040529081600082015481526020016001820160009054906101000a900473ffffffffffffffffffffffffffffffffffffffff1673ffffffffffffffffffffffffffffffffffffffff1673ffffffffffffffffffffffffffffffffffffffff1681526020016002820154815260200160038201805461082f90612f14565b80601f016020809104026020016040519081016040528092919081815260200182805461085b90612f14565b80156108a85780601f1061087d576101008083540402835291602001916108a8565b820191906000526020600020905b81548152906001019060200180831161088b57829003601f168201915b505050505081526020016004820180546108c190612f14565b80601f01602080910402602001604051908101604052809291908181526020018280546108ed90612f14565b801561093a5780601f1061090f5761010080835404028352916020019161093a565b820191906000526020600020905b81548152906001019060200180831161091d57829003601f168201915b5050505050815260200160058201805461095390612f14565b80601f016020809104026020016040519081016040528092919081815260200182805461097f90612f14565b80156109cc5780601f106109a1576101008083540402835291602001916109cc565b820191906000526020600020905b8154815290600101906020018083116109af57829003601f168201915b50505050508152505081526020016006820180546109e990612f14565b80601f0160208091040260200160405190810160405280929190818152602001828054610a1590612f14565b8015610a625780601f10610a3757610100808354040283529160200191610a62565b820191906000526020600020905b815481529060010190602001808311610a4557829003601f168201915b5050505050815260200160078201805480602002602001604051908101604052809291908181526020018280548015610af057602002820191906000526020600020905b8160009054906101000a900473ffffffffffffffffffffffffffffffffffffffff1673ffffffffffffffffffffffffffffffffffffffff1681526020019060010190808311610aa6575b505050505081525050848481518110610b0c57610b0b612eb6565b5b60200260200101819052508280610b2290612f74565b9350505b8080610b3190612f74565b9150506106b4565b505b8080610b4690612f74565b915050610277565b50808252819250505090565b60606001805480602002602001604051908101604052809291908181526020016000905b82821015610dd057838290600052602060002090600602016040518060c0016040529081600082015481526020016001820160009054906101000a900473ffffffffffffffffffffffffffffffffffffffff1673ffffffffffffffffffffffffffffffffffffffff1673ffffffffffffffffffffffffffffffffffffffff16815260200160028201548152602001600382018054610c1b90612f14565b80601f0160208091040260200160405190810160405280929190818152602001828054610c4790612f14565b8015610c945780601f10610c6957610100808354040283529160200191610c94565b820191906000526020600020905b815481529060010190602001808311610c7757829003601f168201915b50505050508152602001600482018054610cad90612f14565b80601f0160208091040260200160405190810160405280929190818152602001828054610cd990612f14565b8015610d265780601f10610cfb57610100808354040283529160200191610d26565b820191906000526020600020905b815481529060010190602001808311610d0957829003601f168201915b50505050508152602001600582018054610d3f90612f14565b80601f0160208091040260200160405190810160405280929190818152602001828054610d6b90612f14565b8015610db85780601f10610d8d57610100808354040283529160200191610db8565b820191906000526020600020905b815481529060010190602001808311610d9b57829003601f168201915b50505050508152505081526020019060010190610b7e565b50505050905090565b610de1612480565b60018281548110610df557610df4612eb6565b5b90600052602060002090600602016040518060c0016040529081600082015481526020016001820160009054906101000a900473ffffffffffffffffffffffffffffffffffffffff1673ffffffffffffffffffffffffffffffffffffffff1673ffffffffffffffffffffffffffffffffffffffff16815260200160028201548152602001600382018054610e8890612f14565b80601f0160208091040260200160405190810160405280929190818152602001828054610eb490612f14565b8015610f015780601f10610ed657610100808354040283529160200191610f01565b820191906000526020600020905b815481529060010190602001808311610ee457829003601f168201915b50505050508152602001600482018054610f1a90612f14565b80601f0160208091040260200160405190810160405280929190818152602001828054610f4690612f14565b8015610f935780601f10610f6857610100808354040283529160200191610f93565b820191906000526020600020905b815481529060010190602001808311610f7657829003601f168201915b50505050508152602001600582018054610fac90612f14565b80601f0160208091040260200160405190810160405280929190818152602001828054610fd890612f14565b80156110255780601f10610ffa57610100808354040283529160200191611025565b820191906000526020600020905b81548152906001019060200180831161100857829003601f168201915b5050505050815250509050919050565b61103d612459565b3373ffffffffffffffffffffffffffffffffffffffff166002838154811061106857611067612eb6565b5b906000526020600020906008020160000160010160009054906101000a900473ffffffffffffffffffffffffffffffffffffffff1673ffffffffffffffffffffffffffffffffffffffff160361144057600282815481106110cc576110cb612eb6565b5b9060005260206000209060080201604051806060016040529081600082016040518060c0016040529081600082015481526020016001820160009054906101000a900473ffffffffffffffffffffffffffffffffffffffff1673ffffffffffffffffffffffffffffffffffffffff1673ffffffffffffffffffffffffffffffffffffffff1681526020016002820154815260200160038201805461116f90612f14565b80601f016020809104026020016040519081016040528092919081815260200182805461119b90612f14565b80156111e85780601f106111bd576101008083540402835291602001916111e8565b820191906000526020600020905b8154815290600101906020018083116111cb57829003601f168201915b5050505050815260200160048201805461120190612f14565b80601f016020809104026020016040519081016040528092919081815260200182805461122d90612f14565b801561127a5780601f1061124f5761010080835404028352916020019161127a565b820191906000526020600020905b81548152906001019060200180831161125d57829003601f168201915b5050505050815260200160058201805461129390612f14565b80601f01602080910402602001604051908101604052809291908181526020018280546112bf90612f14565b801561130c5780601f106112e15761010080835404028352916020019161130c565b820191906000526020600020905b8154815290600101906020018083116112ef57829003601f168201915b505050505081525050815260200160068201805461132990612f14565b80601f016020809104026020016040519081016040528092919081815260200182805461135590612f14565b80156113a25780601f10611377576101008083540402835291602001916113a2565b820191906000526020600020905b81548152906001019060200180831161138557829003601f168201915b505050505081526020016007820180548060200260200160405190810160405280929190818152602001828054801561143057602002820191906000526020600020905b8160009054906101000a900473ffffffffffffffffffffffffffffffffffffffff1673ffffffffffffffffffffffffffffffffffffffff16815260200190600101908083116113e6575b50505050508152505090506118df565b60005b6002838154811061145757611456612eb6565b5b9060005260206000209060080201600701805490508110156118a3573373ffffffffffffffffffffffffffffffffffffffff166002848154811061149e5761149d612eb6565b5b906000526020600020906008020160070182815481106114c1576114c0612eb6565b5b9060005260206000200160009054906101000a900473ffffffffffffffffffffffffffffffffffffffff1673ffffffffffffffffffffffffffffffffffffffff1603611890576002838154811061151b5761151a612eb6565b5b9060005260206000209060080201604051806060016040529081600082016040518060c0016040529081600082015481526020016001820160009054906101000a900473ffffffffffffffffffffffffffffffffffffffff1673ffffffffffffffffffffffffffffffffffffffff1673ffffffffffffffffffffffffffffffffffffffff168152602001600282015481526020016003820180546115be90612f14565b80601f01602080910402602001604051908101604052809291908181526020018280546115ea90612f14565b80156116375780601f1061160c57610100808354040283529160200191611637565b820191906000526020600020905b81548152906001019060200180831161161a57829003601f168201915b5050505050815260200160048201805461165090612f14565b80601f016020809104026020016040519081016040528092919081815260200182805461167c90612f14565b80156116c95780601f1061169e576101008083540402835291602001916116c9565b820191906000526020600020905b8154815290600101906020018083116116ac57829003601f168201915b505050505081526020016005820180546116e290612f14565b80601f016020809104026020016040519081016040528092919081815260200182805461170e90612f14565b801561175b5780601f106117305761010080835404028352916020019161175b565b820191906000526020600020905b81548152906001019060200180831161173e57829003601f168201915b505050505081525050815260200160068201805461177890612f14565b80601f01602080910402602001604051908101604052809291908181526020018280546117a490612f14565b80156117f15780601f106117c6576101008083540402835291602001916117f1565b820191906000526020600020905b8154815290600101906020018083116117d457829003601f168201915b505050505081526020016007820180548060200260200160405190810160405280929190818152602001828054801561187f57602002820191906000526020600020905b8160009054906101000a900473ffffffffffffffffffffffffffffffffffffffff1673ffffffffffffffffffffffffffffffffffffffff1681526020019060010190808311611835575b5050505050815250509150506118df565b808061189b90612f74565b915050611443565b506040517f08c379a00000000000000000000000000000000000000000000000000000000081526004016118d690613054565b60405180910390fd5b919050565b6060600060018054905067ffffffffffffffff81111561190757611906612b79565b5b60405190808252806020026020018201604052801561194057816020015b61192d612480565b8152602001906001900390816119255790505b5090506000805b600180549050811015611c14576119826001828154811061196b5761196a612eb6565b5b906000526020600020906006020160050186612400565b15611c01576001818154811061199b5761199a612eb6565b5b90600052602060002090600602016040518060c0016040529081600082015481526020016001820160009054906101000a900473ffffffffffffffffffffffffffffffffffffffff1673ffffffffffffffffffffffffffffffffffffffff1673ffffffffffffffffffffffffffffffffffffffff16815260200160028201548152602001600382018054611a2e90612f14565b80601f0160208091040260200160405190810160405280929190818152602001828054611a5a90612f14565b8015611aa75780601f10611a7c57610100808354040283529160200191611aa7565b820191906000526020600020905b815481529060010190602001808311611a8a57829003601f168201915b50505050508152602001600482018054611ac090612f14565b80601f0160208091040260200160405190810160405280929190818152602001828054611aec90612f14565b8015611b395780601f10611b0e57610100808354040283529160200191611b39565b820191906000526020600020905b815481529060010190602001808311611b1c57829003601f168201915b50505050508152602001600582018054611b5290612f14565b80601f0160208091040260200160405190810160405280929190818152602001828054611b7e90612f14565b8015611bcb5780601f10611ba057610100808354040283529160200191611bcb565b820191906000526020600020905b815481529060010190602001808311611bae57829003601f168201915b505050505081525050838381518110611be757611be6612eb6565b5b60200260200101819052508180611bfd90612f74565b9250505b8080611c0c90612f74565b915050611947565b508082528192505050919050565b60018181548110611c3257600080fd5b90600052602060002090600602016000915090508060000154908060010160009054906101000a900473ffffffffffffffffffffffffffffffffffffffff1690806002015490806003018054611c8790612f14565b80601f0160208091040260200160405190810160405280929190818152602001828054611cb390612f14565b8015611d005780601f10611cd557610100808354040283529160200191611d00565b820191906000526020600020905b815481529060010190602001808311611ce357829003601f168201915b505050505090806004018054611d1590612f14565b80601f0160208091040260200160405190810160405280929190818152602001828054611d4190612f14565b8015611d8e5780601f10611d6357610100808354040283529160200191611d8e565b820191906000526020600020905b815481529060010190602001808311611d7157829003601f168201915b505050505090806005018054611da390612f14565b80601f0160208091040260200160405190810160405280929190818152602001828054611dcf90612f14565b8015611e1c5780601f10611df157610100808354040283529160200191611e1c565b820191906000526020600020905b815481529060010190602001808311611dff57829003601f168201915b5050505050905086565b3460018281548110611e3b57611e3a612eb6565b5b90600052602060002090600602016002015414611e8d576040517f08c379a0000000000000000000000000000000000000000000000000000000008152600401611e84906130c0565b60405180910390fd5b60005b60028281548110611ea457611ea3612eb6565b5b906000526020600020906008020160070180549050811015611fa2573373ffffffffffffffffffffffffffffffffffffffff1660028381548110611eeb57611eea612eb6565b5b90600052602060002090600802016007018281548110611f0e57611f0d612eb6565b5b9060005260206000200160009054906101000a900473ffffffffffffffffffffffffffffffffffffffff1673ffffffffffffffffffffffffffffffffffffffff1603611f8f576040517f08c379a0000000000000000000000000000000000000000000000000000000008152600401611f869061312c565b60405180910390fd5b8080611f9a90612f74565b915050611e90565b50600060018281548110611fb957611fb8612eb6565b5b906000526020600020906006020160010160009054906101000a900473ffffffffffffffffffffffffffffffffffffffff1673ffffffffffffffffffffffffffffffffffffffff163460405161200e9061317d565b60006040518083038185875af1925050503d806000811461204b576040519150601f19603f3d011682016040523d82523d6000602084013e612050565b606091505b5050905080612094576040517f08c379a000000000000000000000000000000000000000000000000000000000815260040161208b906131de565b60405180910390fd5b600282815481106120a8576120a7612eb6565b5b9060005260206000209060080201600701339080600181540180825580915050600190039060005260206000200160009091909190916101000a81548173ffffffffffffffffffffffffffffffffffffffff021916908373ffffffffffffffffffffffffffffffffffffffff1602179055505050565b60008067ffffffffffffffff81111561213a57612139612b79565b5b6040519080825280602002602001820160405280156121685781602001602082028036833780820191505090505b50905060016040518060c0016040528060005481526020013373ffffffffffffffffffffffffffffffffffffffff1681526020018881526020018781526020018681526020018581525090806001815401808255809150506001900390600052602060002090600602016000909190919091506000820151816000015560208201518160010160006101000a81548173ffffffffffffffffffffffffffffffffffffffff021916908373ffffffffffffffffffffffffffffffffffffffff16021790555060408201518160020155606082015181600301908161224b91906133aa565b50608082015181600401908161226191906133aa565b5060a082015181600501908161227791906133aa565b505050600260405180606001604052806040518060c0016040528060005481526020013373ffffffffffffffffffffffffffffffffffffffff1681526020018a81526020018981526020018881526020018781525081526020018481526020018381525090806001815401808255809150506001900390600052602060002090600802016000909190919091506000820151816000016000820151816000015560208201518160010160006101000a81548173ffffffffffffffffffffffffffffffffffffffff021916908373ffffffffffffffffffffffffffffffffffffffff16021790555060408201518160020155606082015181600301908161237d91906133aa565b50608082015181600401908161239391906133aa565b5060a08201518160050190816123a991906133aa565b50505060208201518160060190816123c191906133aa565b5060408201518160070190805190602001906123de9291906124cc565b5050506000808154809291906123f390612f74565b9190505550505050505050565b60008160405160200161241391906134b8565b604051602081830303815290604052805190602001208360405160200161243a9190613567565b6040516020818303038152906040528051906020012014905092915050565b604051806060016040528061246c612480565b815260200160608152602001606081525090565b6040518060c0016040528060008152602001600073ffffffffffffffffffffffffffffffffffffffff168152602001600081526020016060815260200160608152602001606081525090565b828054828255906000526020600020908101928215612545579160200282015b828111156125445782518260006101000a81548173ffffffffffffffffffffffffffffffffffffffff021916908373ffffffffffffffffffffffffffffffffffffffff160217905550916020019190600101906124ec565b5b5090506125529190612556565b5090565b5b8082111561256f576000816000905550600101612557565b5090565b600081519050919050565b600082825260208201905092915050565b6000819050602082019050919050565b6000819050919050565b6125b28161259f565b82525050565b600073ffffffffffffffffffffffffffffffffffffffff82169050919050565b60006125e3826125b8565b9050919050565b6125f3816125d8565b82525050565b600081519050919050565b600082825260208201905092915050565b60005b83811015612633578082015181840152602081019050612618565b60008484015250505050565b6000601f19601f8301169050919050565b600061265b826125f9565b6126658185612604565b9350612675818560208601612615565b61267e8161263f565b840191505092915050565b600060c0830160008301516126a160008601826125a9565b5060208301516126b460208601826125ea565b5060408301516126c760408601826125a9565b50606083015184820360608601526126df8282612650565b915050608083015184820360808601526126f98282612650565b91505060a083015184820360a08601526127138282612650565b9150508091505092915050565b600081519050919050565b600082825260208201905092915050565b6000819050602082019050919050565b600061275883836125ea565b60208301905092915050565b6000602082019050919050565b600061277c82612720565b612786818561272b565b93506127918361273c565b8060005b838110156127c25781516127a9888261274c565b97506127b483612764565b925050600181019050612795565b5085935050505092915050565b600060608301600083015184820360008601526127ec8282612689565b915050602083015184820360208601526128068282612650565b915050604083015184820360408601526128208282612771565b9150508091505092915050565b600061283983836127cf565b905092915050565b6000602082019050919050565b600061285982612573565b612863818561257e565b9350836020820285016128758561258f565b8060005b858110156128b15784840389528151612892858261282d565b945061289d83612841565b925060208a01995050600181019050612879565b50829750879550505050505092915050565b600060208201905081810360008301526128dd818461284e565b905092915050565b600081519050919050565b600082825260208201905092915050565b6000819050602082019050919050565b600061291d8383612689565b905092915050565b6000602082019050919050565b600061293d826128e5565b61294781856128f0565b93508360208202850161295985612901565b8060005b8581101561299557848403895281516129768582612911565b945061298183612925565b925060208a0199505060018101905061295d565b50829750879550505050505092915050565b600060208201905081810360008301526129c18184612932565b905092915050565b6000604051905090565b600080fd5b600080fd5b6129e68161259f565b81146129f157600080fd5b50565b600081359050612a03816129dd565b92915050565b600060208284031215612a1f57612a1e6129d3565b5b6000612a2d848285016129f4565b91505092915050565b600060c083016000830151612a4e60008601826125a9565b506020830151612a6160208601826125ea565b506040830151612a7460408601826125a9565b5060608301518482036060860152612a8c8282612650565b91505060808301518482036080860152612aa68282612650565b91505060a083015184820360a0860152612ac08282612650565b9150508091505092915050565b60006020820190508181036000830152612ae78184612a36565b905092915050565b60006060830160008301518482036000860152612b0c8282612689565b91505060208301518482036020860152612b268282612650565b91505060408301518482036040860152612b408282612771565b9150508091505092915050565b60006020820190508181036000830152612b678184612aef565b905092915050565b600080fd5b600080fd5b7f4e487b7100000000000000000000000000000000000000000000000000000000600052604160045260246000fd5b612bb18261263f565b810181811067ffffffffffffffff82111715612bd057612bcf612b79565b5b80604052505050565b6000612be36129c9565b9050612bef8282612ba8565b919050565b600067ffffffffffffffff821115612c0f57612c0e612b79565b5b612c188261263f565b9050602081019050919050565b82818337600083830152505050565b6000612c47612c4284612bf4565b612bd9565b905082815260208101848484011115612c6357612c62612b74565b5b612c6e848285612c25565b509392505050565b600082601f830112612c8b57612c8a612b6f565b5b8135612c9b848260208601612c34565b91505092915050565b600060208284031215612cba57612cb96129d3565b5b600082013567ffffffffffffffff811115612cd857612cd76129d8565b5b612ce484828501612c76565b91505092915050565b612cf68161259f565b82525050565b612d05816125d8565b82525050565b600082825260208201905092915050565b6000612d27826125f9565b612d318185612d0b565b9350612d41818560208601612615565b612d4a8161263f565b840191505092915050565b600060c082019050612d6a6000830189612ced565b612d776020830188612cfc565b612d846040830187612ced565b8181036060830152612d968186612d1c565b90508181036080830152612daa8185612d1c565b905081810360a0830152612dbe8184612d1c565b9050979650505050505050565b600080600080600060a08688031215612de757612de66129d3565b5b6000612df5888289016129f4565b955050602086013567ffffffffffffffff811115612e1657612e156129d8565b5b612e2288828901612c76565b945050604086013567ffffffffffffffff811115612e4357612e426129d8565b5b612e4f88828901612c76565b935050606086013567ffffffffffffffff811115612e7057612e6f6129d8565b5b612e7c88828901612c76565b925050608086013567ffffffffffffffff811115612e9d57612e9c6129d8565b5b612ea988828901612c76565b9150509295509295909350565b7f4e487b7100000000000000000000000000000000000000000000000000000000600052603260045260246000fd5b7f4e487b7100000000000000000000000000000000000000000000000000000000600052602260045260246000fd5b60006002820490506001821680612f2c57607f821691505b602082108103612f3f57612f3e612ee5565b5b50919050565b7f4e487b7100000000000000000000000000000000000000000000000000000000600052601160045260246000fd5b6000612f7f8261259f565b91507fffffffffffffffffffffffffffffffffffffffffffffffffffffffffffffffff8203612fb157612fb0612f45565b5b600182019050919050565b7f596f7520646f6e277420686176652061636365737320746f207468697320696e60008201527f666f2e20596f75206861766520746f20706179206f776e6572206f6620696e6660208201527f6f2e000000000000000000000000000000000000000000000000000000000000604082015250565b600061303e604283612d0b565b915061304982612fbc565b606082019050919050565b6000602082019050818103600083015261306d81613031565b9050919050565b7f57726f6e67204554482028574549292076616c75650000000000000000000000600082015250565b60006130aa601583612d0b565b91506130b582613074565b602082019050919050565b600060208201905081810360008301526130d98161309d565b9050919050565b7f596f7520616c7265616479207061696420666f72207468697320696e666f0000600082015250565b6000613116601e83612d0b565b9150613121826130e0565b602082019050919050565b6000602082019050818103600083015261314581613109565b9050919050565b600081905092915050565b50565b600061316760008361314c565b915061317282613157565b600082019050919050565b60006131888261315a565b9150819050919050565b7f4661696c656420746f2073656e64204574686572000000000000000000000000600082015250565b60006131c8601483612d0b565b91506131d382613192565b602082019050919050565b600060208201905081810360008301526131f7816131bb565b9050919050565b60008190508160005260206000209050919050565b60006020601f8301049050919050565b600082821b905092915050565b6000600883026132607fffffffffffffffffffffffffffffffffffffffffffffffffffffffffffffffff82613223565b61326a8683613223565b95508019841693508086168417925050509392505050565b6000819050919050565b60006132a76132a261329d8461259f565b613282565b61259f565b9050919050565b6000819050919050565b6132c18361328c565b6132d56132cd826132ae565b848454613230565b825550505050565b600090565b6132ea6132dd565b6132f58184846132b8565b505050565b5b818110156133195761330e6000826132e2565b6001810190506132fb565b5050565b601f82111561335e5761332f816131fe565b61333884613213565b81016020851015613347578190505b61335b61335385613213565b8301826132fa565b50505b505050565b600082821c905092915050565b600061338160001984600802613363565b1980831691505092915050565b600061339a8383613370565b9150826002028217905092915050565b6133b3826125f9565b67ffffffffffffffff8111156133cc576133cb612b79565b5b6133d68254612f14565b6133e182828561331d565b600060209050601f8311600181146134145760008415613402578287015190505b61340c858261338e565b865550613474565b601f198416613422866131fe565b60005b8281101561344a57848901518255600182019150602085019450602081019050613425565b868310156134675784890151613463601f891682613370565b8355505b6001600288020188555050505b505050505050565b600081905092915050565b6000613492826125f9565b61349c818561347c565b93506134ac818560208601612615565b80840191505092915050565b60006134c48284613487565b915081905092915050565b60008190508160005260206000209050919050565b600081546134f181612f14565b6134fb818661347c565b94506001821660008114613516576001811461352b5761355e565b60ff198316865281151582028601935061355e565b613534856134cf565b60005b8381101561355657815481890152600182019150602081019050613537565b838801955050505b50505092915050565b600061357382846134e4565b91508190509291505056fea26469706673582212204e1c94c8f9aee5c1c8af62fe51124a2907757469fcc546bae92b537147f0eab964736f6c63430008120033",
  "linkReferences": {},
  "deployedLinkReferences": {}
}