{
  "_format": "hh-sol-artifact-1",
  "contractName": "PassingSecretInfo",
  "sourceName": "contracts/PassingSecretInfo.sol",
  "abi": [
    {
      "inputs": [
        {
          "internalType": "uint256",
          "name": "_secret_infos_id",
          "type": "uint256"
        },
        {
          "internalType": "bool",
          "name": "_rate",
          "type": "bool"
        }
      ],
      "name": "addRateSecretInfo",
      "outputs": [],
      "stateMutability": "nonpayable",
      "type": "function"
    },
    {
      "inputs": [
        {
          "internalType": "uint256",
          "name": "_secret_infos_id",
          "type": "uint256"
        },
        {
          "internalType": "string",
          "name": "_content",
          "type": "string"
        }
      ],
      "name": "addReplySecretInfo",
      "outputs": [],
      "stateMutability": "nonpayable",
      "type": "function"
    },
    {
      "inputs": [
        {
          "internalType": "uint256",
          "name": "_amount",
          "type": "uint256"
        },
        {
          "internalType": "string",
          "name": "_title",
          "type": "string"
        },
        {
          "internalType": "string",
          "name": "_description",
          "type": "string"
        },
        {
          "internalType": "string",
          "name": "_company_name",
          "type": "string"
        },
        {
          "internalType": "uint256",
          "name": "_company_id",
          "type": "uint256"
        },
        {
          "internalType": "uint256",
          "name": "_max_uses",
          "type": "uint256"
        },
        {
          "internalType": "string",
          "name": "_info",
          "type": "string"
        }
      ],
      "name": "addSecretInfo",
      "outputs": [],
      "stateMutability": "nonpayable",
      "type": "function"
    },
    {
      "inputs": [
        {
          "internalType": "uint256",
          "name": "_secret_infos_id",
          "type": "uint256"
        }
      ],
      "name": "changeRateSecretInfo",
      "outputs": [],
      "stateMutability": "nonpayable",
      "type": "function"
    },
    {
      "inputs": [],
      "name": "getPaidSecretInfosAccessed",
      "outputs": [
        {
          "components": [
            {
              "components": [
                {
                  "internalType": "uint256",
                  "name": "id",
                  "type": "uint256"
                },
                {
                  "internalType": "address",
                  "name": "owner_address",
                  "type": "address"
                },
                {
                  "internalType": "uint256",
                  "name": "amount",
                  "type": "uint256"
                },
                {
                  "internalType": "string",
                  "name": "title",
                  "type": "string"
                },
                {
                  "internalType": "string",
                  "name": "description",
                  "type": "string"
                },
                {
                  "internalType": "string",
                  "name": "company_name",
                  "type": "string"
                },
                {
                  "internalType": "uint256",
                  "name": "company_id",
                  "type": "uint256"
                },
                {
                  "internalType": "uint256",
                  "name": "created_at",
                  "type": "uint256"
                },
                {
                  "internalType": "uint256",
                  "name": "max_uses",
                  "type": "uint256"
                },
                {
                  "components": [
                    {
                      "internalType": "uint256",
                      "name": "id",
                      "type": "uint256"
                    },
                    {
                      "internalType": "address",
                      "name": "owner_address",
                      "type": "address"
                    },
                    {
                      "internalType": "uint256",
                      "name": "created_at",
                      "type": "uint256"
                    },
                    {
                      "internalType": "string",
                      "name": "content",
                      "type": "string"
                    }
                  ],
                  "internalType": "struct PassingSecretInfoStructs.SecretInfoReply[]",
                  "name": "replies",
                  "type": "tuple[]"
                },
                {
                  "components": [
                    {
                      "internalType": "uint256",
                      "name": "id",
                      "type": "uint256"
                    },
                    {
                      "internalType": "address",
                      "name": "owner_address",
                      "type": "address"
                    },
                    {
                      "internalType": "bool",
                      "name": "rate",
                      "type": "bool"
                    }
                  ],
                  "internalType": "struct PassingSecretInfoStructs.SecretInfoRate[]",
                  "name": "rates",
                  "type": "tuple[]"
                }
              ],
              "internalType": "struct PassingSecretInfoStructs.SecretInfo",
              "name": "secret_info",
              "type": "tuple"
            },
            {
              "components": [
                {
                  "internalType": "string",
                  "name": "info",
                  "type": "string"
                },
                {
                  "internalType": "address[]",
                  "name": "accessed_adresses",
                  "type": "address[]"
                }
              ],
              "internalType": "struct PassingSecretInfoStructs.SecretInfoAccessed",
              "name": "secret_info_accessed",
              "type": "tuple"
            }
          ],
          "internalType": "struct PassingSecretInfoStructs.SecretInfoAccessedResponse[]",
          "name": "",
          "type": "tuple[]"
        }
      ],
      "stateMutability": "view",
      "type": "function"
    },
    {
      "inputs": [
        {
          "internalType": "uint256",
          "name": "_secret_info_id",
          "type": "uint256"
        }
      ],
      "name": "getSecretInfoAccessedById",
      "outputs": [
        {
          "components": [
            {
              "components": [
                {
                  "internalType": "uint256",
                  "name": "id",
                  "type": "uint256"
                },
                {
                  "internalType": "address",
                  "name": "owner_address",
                  "type": "address"
                },
                {
                  "internalType": "uint256",
                  "name": "amount",
                  "type": "uint256"
                },
                {
                  "internalType": "string",
                  "name": "title",
                  "type": "string"
                },
                {
                  "internalType": "string",
                  "name": "description",
                  "type": "string"
                },
                {
                  "internalType": "string",
                  "name": "company_name",
                  "type": "string"
                },
                {
                  "internalType": "uint256",
                  "name": "company_id",
                  "type": "uint256"
                },
                {
                  "internalType": "uint256",
                  "name": "created_at",
                  "type": "uint256"
                },
                {
                  "internalType": "uint256",
                  "name": "max_uses",
                  "type": "uint256"
                },
                {
                  "components": [
                    {
                      "internalType": "uint256",
                      "name": "id",
                      "type": "uint256"
                    },
                    {
                      "internalType": "address",
                      "name": "owner_address",
                      "type": "address"
                    },
                    {
                      "internalType": "uint256",
                      "name": "created_at",
                      "type": "uint256"
                    },
                    {
                      "internalType": "string",
                      "name": "content",
                      "type": "string"
                    }
                  ],
                  "internalType": "struct PassingSecretInfoStructs.SecretInfoReply[]",
                  "name": "replies",
                  "type": "tuple[]"
                },
                {
                  "components": [
                    {
                      "internalType": "uint256",
                      "name": "id",
                      "type": "uint256"
                    },
                    {
                      "internalType": "address",
                      "name": "owner_address",
                      "type": "address"
                    },
                    {
                      "internalType": "bool",
                      "name": "rate",
                      "type": "bool"
                    }
                  ],
                  "internalType": "struct PassingSecretInfoStructs.SecretInfoRate[]",
                  "name": "rates",
                  "type": "tuple[]"
                }
              ],
              "internalType": "struct PassingSecretInfoStructs.SecretInfo",
              "name": "secret_info",
              "type": "tuple"
            },
            {
              "components": [
                {
                  "internalType": "string",
                  "name": "info",
                  "type": "string"
                },
                {
                  "internalType": "address[]",
                  "name": "accessed_adresses",
                  "type": "address[]"
                }
              ],
              "internalType": "struct PassingSecretInfoStructs.SecretInfoAccessed",
              "name": "secret_info_accessed",
              "type": "tuple"
            }
          ],
          "internalType": "struct PassingSecretInfoStructs.SecretInfoAccessedResponse",
          "name": "",
          "type": "tuple"
        }
      ],
      "stateMutability": "view",
      "type": "function"
    },
    {
      "inputs": [
        {
          "internalType": "uint256",
          "name": "id",
          "type": "uint256"
        }
      ],
      "name": "getSecretInfoById",
      "outputs": [
        {
          "components": [
            {
              "internalType": "uint256",
              "name": "id",
              "type": "uint256"
            },
            {
              "internalType": "address",
              "name": "owner_address",
              "type": "address"
            },
            {
              "internalType": "uint256",
              "name": "amount",
              "type": "uint256"
            },
            {
              "internalType": "string",
              "name": "title",
              "type": "string"
            },
            {
              "internalType": "string",
              "name": "description",
              "type": "string"
            },
            {
              "internalType": "string",
              "name": "company_name",
              "type": "string"
            },
            {
              "internalType": "uint256",
              "name": "company_id",
              "type": "uint256"
            },
            {
              "internalType": "uint256",
              "name": "created_at",
              "type": "uint256"
            },
            {
              "internalType": "uint256",
              "name": "max_uses",
              "type": "uint256"
            },
            {
              "components": [
                {
                  "internalType": "uint256",
                  "name": "id",
                  "type": "uint256"
                },
                {
                  "internalType": "address",
                  "name": "owner_address",
                  "type": "address"
                },
                {
                  "internalType": "uint256",
                  "name": "created_at",
                  "type": "uint256"
                },
                {
                  "internalType": "string",
                  "name": "content",
                  "type": "string"
                }
              ],
              "internalType": "struct PassingSecretInfoStructs.SecretInfoReply[]",
              "name": "replies",
              "type": "tuple[]"
            },
            {
              "components": [
                {
                  "internalType": "uint256",
                  "name": "id",
                  "type": "uint256"
                },
                {
                  "internalType": "address",
                  "name": "owner_address",
                  "type": "address"
                },
                {
                  "internalType": "bool",
                  "name": "rate",
                  "type": "bool"
                }
              ],
              "internalType": "struct PassingSecretInfoStructs.SecretInfoRate[]",
              "name": "rates",
              "type": "tuple[]"
            }
          ],
          "internalType": "struct PassingSecretInfoStructs.SecretInfo",
          "name": "",
          "type": "tuple"
        }
      ],
      "stateMutability": "view",
      "type": "function"
    },
    {
      "inputs": [],
      "name": "getSecretInfos",
      "outputs": [
        {
          "components": [
            {
              "internalType": "uint256",
              "name": "id",
              "type": "uint256"
            },
            {
              "internalType": "address",
              "name": "owner_address",
              "type": "address"
            },
            {
              "internalType": "uint256",
              "name": "amount",
              "type": "uint256"
            },
            {
              "internalType": "string",
              "name": "title",
              "type": "string"
            },
            {
              "internalType": "string",
              "name": "description",
              "type": "string"
            },
            {
              "internalType": "string",
              "name": "company_name",
              "type": "string"
            },
            {
              "internalType": "uint256",
              "name": "company_id",
              "type": "uint256"
            },
            {
              "internalType": "uint256",
              "name": "created_at",
              "type": "uint256"
            },
            {
              "internalType": "uint256",
              "name": "max_uses",
              "type": "uint256"
            },
            {
              "components": [
                {
                  "internalType": "uint256",
                  "name": "id",
                  "type": "uint256"
                },
                {
                  "internalType": "address",
                  "name": "owner_address",
                  "type": "address"
                },
                {
                  "internalType": "uint256",
                  "name": "created_at",
                  "type": "uint256"
                },
                {
                  "internalType": "string",
                  "name": "content",
                  "type": "string"
                }
              ],
              "internalType": "struct PassingSecretInfoStructs.SecretInfoReply[]",
              "name": "replies",
              "type": "tuple[]"
            },
            {
              "components": [
                {
                  "internalType": "uint256",
                  "name": "id",
                  "type": "uint256"
                },
                {
                  "internalType": "address",
                  "name": "owner_address",
                  "type": "address"
                },
                {
                  "internalType": "bool",
                  "name": "rate",
                  "type": "bool"
                }
              ],
              "internalType": "struct PassingSecretInfoStructs.SecretInfoRate[]",
              "name": "rates",
              "type": "tuple[]"
            }
          ],
          "internalType": "struct PassingSecretInfoStructs.SecretInfo[]",
          "name": "",
          "type": "tuple[]"
        }
      ],
      "stateMutability": "view",
      "type": "function"
    },
    {
      "inputs": [
        {
          "internalType": "uint256",
          "name": "_company_id",
          "type": "uint256"
        }
      ],
      "name": "getSecretInfosByCompanyId",
      "outputs": [
        {
          "components": [
            {
              "internalType": "uint256",
              "name": "id",
              "type": "uint256"
            },
            {
              "internalType": "address",
              "name": "owner_address",
              "type": "address"
            },
            {
              "internalType": "uint256",
              "name": "amount",
              "type": "uint256"
            },
            {
              "internalType": "string",
              "name": "title",
              "type": "string"
            },
            {
              "internalType": "string",
              "name": "description",
              "type": "string"
            },
            {
              "internalType": "string",
              "name": "company_name",
              "type": "string"
            },
            {
              "internalType": "uint256",
              "name": "company_id",
              "type": "uint256"
            },
            {
              "internalType": "uint256",
              "name": "created_at",
              "type": "uint256"
            },
            {
              "internalType": "uint256",
              "name": "max_uses",
              "type": "uint256"
            },
            {
              "components": [
                {
                  "internalType": "uint256",
                  "name": "id",
                  "type": "uint256"
                },
                {
                  "internalType": "address",
                  "name": "owner_address",
                  "type": "address"
                },
                {
                  "internalType": "uint256",
                  "name": "created_at",
                  "type": "uint256"
                },
                {
                  "internalType": "string",
                  "name": "content",
                  "type": "string"
                }
              ],
              "internalType": "struct PassingSecretInfoStructs.SecretInfoReply[]",
              "name": "replies",
              "type": "tuple[]"
            },
            {
              "components": [
                {
                  "internalType": "uint256",
                  "name": "id",
                  "type": "uint256"
                },
                {
                  "internalType": "address",
                  "name": "owner_address",
                  "type": "address"
                },
                {
                  "internalType": "bool",
                  "name": "rate",
                  "type": "bool"
                }
              ],
              "internalType": "struct PassingSecretInfoStructs.SecretInfoRate[]",
              "name": "rates",
              "type": "tuple[]"
            }
          ],
          "internalType": "struct PassingSecretInfoStructs.SecretInfo[]",
          "name": "",
          "type": "tuple[]"
        }
      ],
      "stateMutability": "view",
      "type": "function"
    },
    {
      "inputs": [
        {
          "internalType": "string",
          "name": "_company_name",
          "type": "string"
        }
      ],
      "name": "getSecretInfosByCompanyName",
      "outputs": [
        {
          "components": [
            {
              "internalType": "uint256",
              "name": "id",
              "type": "uint256"
            },
            {
              "internalType": "address",
              "name": "owner_address",
              "type": "address"
            },
            {
              "internalType": "uint256",
              "name": "amount",
              "type": "uint256"
            },
            {
              "internalType": "string",
              "name": "title",
              "type": "string"
            },
            {
              "internalType": "string",
              "name": "description",
              "type": "string"
            },
            {
              "internalType": "string",
              "name": "company_name",
              "type": "string"
            },
            {
              "internalType": "uint256",
              "name": "company_id",
              "type": "uint256"
            },
            {
              "internalType": "uint256",
              "name": "created_at",
              "type": "uint256"
            },
            {
              "internalType": "uint256",
              "name": "max_uses",
              "type": "uint256"
            },
            {
              "components": [
                {
                  "internalType": "uint256",
                  "name": "id",
                  "type": "uint256"
                },
                {
                  "internalType": "address",
                  "name": "owner_address",
                  "type": "address"
                },
                {
                  "internalType": "uint256",
                  "name": "created_at",
                  "type": "uint256"
                },
                {
                  "internalType": "string",
                  "name": "content",
                  "type": "string"
                }
              ],
              "internalType": "struct PassingSecretInfoStructs.SecretInfoReply[]",
              "name": "replies",
              "type": "tuple[]"
            },
            {
              "components": [
                {
                  "internalType": "uint256",
                  "name": "id",
                  "type": "uint256"
                },
                {
                  "internalType": "address",
                  "name": "owner_address",
                  "type": "address"
                },
                {
                  "internalType": "bool",
                  "name": "rate",
                  "type": "bool"
                }
              ],
              "internalType": "struct PassingSecretInfoStructs.SecretInfoRate[]",
              "name": "rates",
              "type": "tuple[]"
            }
          ],
          "internalType": "struct PassingSecretInfoStructs.SecretInfo[]",
          "name": "",
          "type": "tuple[]"
        }
      ],
      "stateMutability": "view",
      "type": "function"
    },
    {
      "inputs": [
        {
          "internalType": "uint256",
          "name": "_secret_info_id",
          "type": "uint256"
        }
      ],
      "name": "payForSecretInfoAccess",
      "outputs": [],
      "stateMutability": "payable",
      "type": "function"
    },
    {
      "inputs": [
        {
          "internalType": "uint256",
          "name": "_secret_infos_id",
          "type": "uint256"
        }
      ],
      "name": "removeRateSecretInfo",
      "outputs": [],
      "stateMutability": "nonpayable",
      "type": "function"
    },
    {
      "inputs": [
        {
          "internalType": "uint256",
          "name": "",
          "type": "uint256"
        }
      ],
      "name": "secret_infos",
      "outputs": [
        {
          "internalType": "uint256",
          "name": "id",
          "type": "uint256"
        },
        {
          "internalType": "address",
          "name": "owner_address",
          "type": "address"
        },
        {
          "internalType": "uint256",
          "name": "amount",
          "type": "uint256"
        },
        {
          "internalType": "string",
          "name": "title",
          "type": "string"
        },
        {
          "internalType": "string",
          "name": "description",
          "type": "string"
        },
        {
          "internalType": "string",
          "name": "company_name",
          "type": "string"
        },
        {
          "internalType": "uint256",
          "name": "company_id",
          "type": "uint256"
        },
        {
          "internalType": "uint256",
          "name": "created_at",
          "type": "uint256"
        },
        {
          "internalType": "uint256",
          "name": "max_uses",
          "type": "uint256"
        }
      ],
      "stateMutability": "view",
      "type": "function"
    }
  ],
  "bytecode": "0x6080604052600080556000600155600060025534801561001e57600080fd5b50615b86806200002f6000396000f3fe6080604052600436106100c25760003560e01c80639b03bbfe1161007f578063c526a39811610059578063c526a39814610278578063cdd62f95146102bd578063d2535e7f146102d9578063f03bd59414610302576100c2565b80639b03bbfe146101d5578063bd95ae48146101fe578063bff814801461023b576100c2565b80631bc49365146100c7578063237fa7eb146100f257806330e2c8bb1461011d5780634dff300a14610146578063632467681461016f578063839e820d146101ac575b600080fd5b3480156100d357600080fd5b506100dc61033f565b6040516100e99190614b45565b60405180910390f35b3480156100fe57600080fd5b50610107611149565b6040516101149190614c29565b60405180910390f35b34801561012957600080fd5b50610144600480360381019061013f9190614cb7565b61161c565b005b34801561015257600080fd5b5061016d60048036038101906101689190614e2c565b61184b565b005b34801561017b57600080fd5b5061019660048036038101906101919190614f3e565b6119f0565b6040516101a39190615076565b60405180910390f35b3480156101b857600080fd5b506101d360048036038101906101ce9190615098565b611ea0565b005b3480156101e157600080fd5b506101fc60048036038101906101f79190614f3e565b611fb6565b005b34801561020a57600080fd5b50610225600480360381019061022091906150f4565b6122fa565b6040516102329190614c29565b60405180910390f35b34801561024757600080fd5b50610262600480360381019061025d9190614f3e565b61288c565b60405161026f9190615181565b60405180910390f35b34801561028457600080fd5b5061029f600480360381019061029a9190614f3e565b6135ff565b6040516102b49998979695949392919061520b565b60405180910390f35b6102d760048036038101906102d29190614f3e565b613815565b005b3480156102e557600080fd5b5061030060048036038101906102fb9190614f3e565b613b9c565b005b34801561030e57600080fd5b5061032960048036038101906103249190614f3e565b613deb565b6040516103369190614c29565b60405180910390f35b6060600060038054905067ffffffffffffffff81111561036257610361614d01565b5b60405190808252806020026020018201604052801561039b57816020015b6103886143cf565b8152602001906001900390816103805790505b5090506000805b60048054905081101561113d573373ffffffffffffffffffffffffffffffffffffffff166103cf826119f0565b6020015173ffffffffffffffffffffffffffffffffffffffff1603610a205760405180604001604052806003838154811061040d5761040c6152ad565b5b90600052602060002090600b020160405180610160016040529081600082015481526020016001820160009054906101000a900473ffffffffffffffffffffffffffffffffffffffff1673ffffffffffffffffffffffffffffffffffffffff1673ffffffffffffffffffffffffffffffffffffffff168152602001600282015481526020016003820180546104a19061530b565b80601f01602080910402602001604051908101604052809291908181526020018280546104cd9061530b565b801561051a5780601f106104ef5761010080835404028352916020019161051a565b820191906000526020600020905b8154815290600101906020018083116104fd57829003601f168201915b505050505081526020016004820180546105339061530b565b80601f016020809104026020016040519081016040528092919081815260200182805461055f9061530b565b80156105ac5780601f10610581576101008083540402835291602001916105ac565b820191906000526020600020905b81548152906001019060200180831161058f57829003601f168201915b505050505081526020016005820180546105c59061530b565b80601f01602080910402602001604051908101604052809291908181526020018280546105f19061530b565b801561063e5780601f106106135761010080835404028352916020019161063e565b820191906000526020600020905b81548152906001019060200180831161062157829003601f168201915b5050505050815260200160068201548152602001600782015481526020016008820154815260200160098201805480602002602001604051908101604052809291908181526020016000905b828210156107b85783829060005260206000209060040201604051806080016040529081600082015481526020016001820160009054906101000a900473ffffffffffffffffffffffffffffffffffffffff1673ffffffffffffffffffffffffffffffffffffffff1673ffffffffffffffffffffffffffffffffffffffff168152602001600282015481526020016003820180546107279061530b565b80601f01602080910402602001604051908101604052809291908181526020018280546107539061530b565b80156107a05780601f10610775576101008083540402835291602001916107a0565b820191906000526020600020905b81548152906001019060200180831161078357829003601f168201915b5050505050815250508152602001906001019061068a565b505050508152602001600a8201805480602002602001604051908101604052809291908181526020016000905b828210156108925783829060005260206000209060020201604051806060016040529081600082015481526020016001820160009054906101000a900473ffffffffffffffffffffffffffffffffffffffff1673ffffffffffffffffffffffffffffffffffffffff1673ffffffffffffffffffffffffffffffffffffffff1681526020016001820160149054906101000a900460ff161515151581525050815260200190600101906107e5565b50505050815250508152602001600483815481106108b3576108b26152ad565b5b90600052602060002090600202016040518060400160405290816000820180546108dc9061530b565b80601f01602080910402602001604051908101604052809291908181526020018280546109089061530b565b80156109555780601f1061092a57610100808354040283529160200191610955565b820191906000526020600020905b81548152906001019060200180831161093857829003601f168201915b50505050508152602001600182018054806020026020016040519081016040528092919081815260200182805480156109e357602002820191906000526020600020905b8160009054906101000a900473ffffffffffffffffffffffffffffffffffffffff1673ffffffffffffffffffffffffffffffffffffffff1681526020019060010190808311610999575b505050505081525050815250838381518110610a0257610a016152ad565b5b60200260200101819052508180610a189061536b565b92505061112a565b60005b60048281548110610a3757610a366152ad565b5b906000526020600020906002020160010180549050811015611128573373ffffffffffffffffffffffffffffffffffffffff1660048381548110610a7e57610a7d6152ad565b5b90600052602060002090600202016001018281548110610aa157610aa06152ad565b5b9060005260206000200160009054906101000a900473ffffffffffffffffffffffffffffffffffffffff1673ffffffffffffffffffffffffffffffffffffffff160361111557604051806040016040528060038481548110610b0657610b056152ad565b5b90600052602060002090600b020160405180610160016040529081600082015481526020016001820160009054906101000a900473ffffffffffffffffffffffffffffffffffffffff1673ffffffffffffffffffffffffffffffffffffffff1673ffffffffffffffffffffffffffffffffffffffff16815260200160028201548152602001600382018054610b9a9061530b565b80601f0160208091040260200160405190810160405280929190818152602001828054610bc69061530b565b8015610c135780601f10610be857610100808354040283529160200191610c13565b820191906000526020600020905b815481529060010190602001808311610bf657829003601f168201915b50505050508152602001600482018054610c2c9061530b565b80601f0160208091040260200160405190810160405280929190818152602001828054610c589061530b565b8015610ca55780601f10610c7a57610100808354040283529160200191610ca5565b820191906000526020600020905b815481529060010190602001808311610c8857829003601f168201915b50505050508152602001600582018054610cbe9061530b565b80601f0160208091040260200160405190810160405280929190818152602001828054610cea9061530b565b8015610d375780601f10610d0c57610100808354040283529160200191610d37565b820191906000526020600020905b815481529060010190602001808311610d1a57829003601f168201915b5050505050815260200160068201548152602001600782015481526020016008820154815260200160098201805480602002602001604051908101604052809291908181526020016000905b82821015610eb15783829060005260206000209060040201604051806080016040529081600082015481526020016001820160009054906101000a900473ffffffffffffffffffffffffffffffffffffffff1673ffffffffffffffffffffffffffffffffffffffff1673ffffffffffffffffffffffffffffffffffffffff16815260200160028201548152602001600382018054610e209061530b565b80601f0160208091040260200160405190810160405280929190818152602001828054610e4c9061530b565b8015610e995780601f10610e6e57610100808354040283529160200191610e99565b820191906000526020600020905b815481529060010190602001808311610e7c57829003601f168201915b50505050508152505081526020019060010190610d83565b505050508152602001600a8201805480602002602001604051908101604052809291908181526020016000905b82821015610f8b5783829060005260206000209060020201604051806060016040529081600082015481526020016001820160009054906101000a900473ffffffffffffffffffffffffffffffffffffffff1673ffffffffffffffffffffffffffffffffffffffff1673ffffffffffffffffffffffffffffffffffffffff1681526020016001820160149054906101000a900460ff16151515158152505081526020019060010190610ede565b5050505081525050815260200160048481548110610fac57610fab6152ad565b5b9060005260206000209060020201604051806040016040529081600082018054610fd59061530b565b80601f01602080910402602001604051908101604052809291908181526020018280546110019061530b565b801561104e5780601f106110235761010080835404028352916020019161104e565b820191906000526020600020905b81548152906001019060200180831161103157829003601f168201915b50505050508152602001600182018054806020026020016040519081016040528092919081815260200182805480156110dc57602002820191906000526020600020905b8160009054906101000a900473ffffffffffffffffffffffffffffffffffffffff1673ffffffffffffffffffffffffffffffffffffffff1681526020019060010190808311611092575b5050505050815250508152508484815181106110fb576110fa6152ad565b5b602002602001018190525082806111119061536b565b9350505b80806111209061536b565b915050610a23565b505b80806111359061536b565b9150506103a2565b50808252819250505090565b60606003805480602002602001604051908101604052809291908181526020016000905b8282101561161357838290600052602060002090600b020160405180610160016040529081600082015481526020016001820160009054906101000a900473ffffffffffffffffffffffffffffffffffffffff1673ffffffffffffffffffffffffffffffffffffffff1673ffffffffffffffffffffffffffffffffffffffff1681526020016002820154815260200160038201805461120b9061530b565b80601f01602080910402602001604051908101604052809291908181526020018280546112379061530b565b80156112845780601f1061125957610100808354040283529160200191611284565b820191906000526020600020905b81548152906001019060200180831161126757829003601f168201915b5050505050815260200160048201805461129d9061530b565b80601f01602080910402602001604051908101604052809291908181526020018280546112c99061530b565b80156113165780601f106112eb57610100808354040283529160200191611316565b820191906000526020600020905b8154815290600101906020018083116112f957829003601f168201915b5050505050815260200160058201805461132f9061530b565b80601f016020809104026020016040519081016040528092919081815260200182805461135b9061530b565b80156113a85780601f1061137d576101008083540402835291602001916113a8565b820191906000526020600020905b81548152906001019060200180831161138b57829003601f168201915b5050505050815260200160068201548152602001600782015481526020016008820154815260200160098201805480602002602001604051908101604052809291908181526020016000905b828210156115225783829060005260206000209060040201604051806080016040529081600082015481526020016001820160009054906101000a900473ffffffffffffffffffffffffffffffffffffffff1673ffffffffffffffffffffffffffffffffffffffff1673ffffffffffffffffffffffffffffffffffffffff168152602001600282015481526020016003820180546114919061530b565b80601f01602080910402602001604051908101604052809291908181526020018280546114bd9061530b565b801561150a5780601f106114df5761010080835404028352916020019161150a565b820191906000526020600020905b8154815290600101906020018083116114ed57829003601f168201915b505050505081525050815260200190600101906113f4565b505050508152602001600a8201805480602002602001604051908101604052809291908181526020016000905b828210156115fc5783829060005260206000209060020201604051806060016040529081600082015481526020016001820160009054906101000a900473ffffffffffffffffffffffffffffffffffffffff1673ffffffffffffffffffffffffffffffffffffffff1673ffffffffffffffffffffffffffffffffffffffff1681526020016001820160149054906101000a900460ff1615151515815250508152602001906001019061154f565b50505050815250508152602001906001019061116d565b50505050905090565b60005b60038381548110611633576116326152ad565b5b90600052602060002090600b0201600a0180549050811015611738573373ffffffffffffffffffffffffffffffffffffffff166003848154811061167a576116796152ad565b5b90600052602060002090600b0201600a01828154811061169d5761169c6152ad565b5b906000526020600020906002020160010160009054906101000a900473ffffffffffffffffffffffffffffffffffffffff1673ffffffffffffffffffffffffffffffffffffffff1603611725576040517f08c379a000000000000000000000000000000000000000000000000000000000815260040161171c906153ff565b60405180910390fd5b80806117309061536b565b91505061161f565b506003828154811061174d5761174c6152ad565b5b90600052602060002090600b0201600a01604051806060016040528060015481526020013373ffffffffffffffffffffffffffffffffffffffff16815260200183151581525090806001815401808255809150506001900390600052602060002090600202016000909190919091506000820151816000015560208201518160010160006101000a81548173ffffffffffffffffffffffffffffffffffffffff021916908373ffffffffffffffffffffffffffffffffffffffff16021790555060408201518160010160146101000a81548160ff0219169083151502179055505050600260008154809291906118429061536b565b91905055505050565b60008067ffffffffffffffff81111561186757611866614d01565b5b6040519080825280602002602001820160405280156118955781602001602082028036833780820191505090505b509050600060036001816001815401808255809150500390600052602060002090600b02019050338160010160006101000a81548173ffffffffffffffffffffffffffffffffffffffff021916908373ffffffffffffffffffffffffffffffffffffffff1602179055508881600201819055508781600301908161191991906155cb565b508681600401908161192b91906155cb565b508581600501908161193d91906155cb565b508481600601819055508381600801819055504281600701819055506004604051806040016040528085815260200184815250908060018154018082558091505060019003906000526020600020906002020160009091909190915060008201518160000190816119ae91906155cb565b5060208201518160010190805190602001906119cb9291906143f5565b5050506000808154809291906119e09061536b565b9190505550505050505050505050565b6119f861447f565b60038281548110611a0c57611a0b6152ad565b5b90600052602060002090600b020160405180610160016040529081600082015481526020016001820160009054906101000a900473ffffffffffffffffffffffffffffffffffffffff1673ffffffffffffffffffffffffffffffffffffffff1673ffffffffffffffffffffffffffffffffffffffff16815260200160028201548152602001600382018054611aa09061530b565b80601f0160208091040260200160405190810160405280929190818152602001828054611acc9061530b565b8015611b195780601f10611aee57610100808354040283529160200191611b19565b820191906000526020600020905b815481529060010190602001808311611afc57829003601f168201915b50505050508152602001600482018054611b329061530b565b80601f0160208091040260200160405190810160405280929190818152602001828054611b5e9061530b565b8015611bab5780601f10611b8057610100808354040283529160200191611bab565b820191906000526020600020905b815481529060010190602001808311611b8e57829003601f168201915b50505050508152602001600582018054611bc49061530b565b80601f0160208091040260200160405190810160405280929190818152602001828054611bf09061530b565b8015611c3d5780601f10611c1257610100808354040283529160200191611c3d565b820191906000526020600020905b815481529060010190602001808311611c2057829003601f168201915b5050505050815260200160068201548152602001600782015481526020016008820154815260200160098201805480602002602001604051908101604052809291908181526020016000905b82821015611db75783829060005260206000209060040201604051806080016040529081600082015481526020016001820160009054906101000a900473ffffffffffffffffffffffffffffffffffffffff1673ffffffffffffffffffffffffffffffffffffffff1673ffffffffffffffffffffffffffffffffffffffff16815260200160028201548152602001600382018054611d269061530b565b80601f0160208091040260200160405190810160405280929190818152602001828054611d529061530b565b8015611d9f5780601f10611d7457610100808354040283529160200191611d9f565b820191906000526020600020905b815481529060010190602001808311611d8257829003601f168201915b50505050508152505081526020019060010190611c89565b505050508152602001600a8201805480602002602001604051908101604052809291908181526020016000905b82821015611e915783829060005260206000209060020201604051806060016040529081600082015481526020016001820160009054906101000a900473ffffffffffffffffffffffffffffffffffffffff1673ffffffffffffffffffffffffffffffffffffffff1673ffffffffffffffffffffffffffffffffffffffff1681526020016001820160149054906101000a900460ff16151515158152505081526020019060010190611de4565b50505050815250509050919050565b60038281548110611eb457611eb36152ad565b5b90600052602060002090600b0201600901604051806080016040528060015481526020013373ffffffffffffffffffffffffffffffffffffffff1681526020014281526020018381525090806001815401808255809150506001900390600052602060002090600402016000909190919091506000820151816000015560208201518160010160006101000a81548173ffffffffffffffffffffffffffffffffffffffff021916908373ffffffffffffffffffffffffffffffffffffffff160217905550604082015181600201556060820151816003019081611f9791906155cb565b50505060016000815480929190611fad9061536b565b91905055505050565b60005b60038281548110611fcd57611fcc6152ad565b5b90600052602060002090600b0201600a01805490508110156122bb573373ffffffffffffffffffffffffffffffffffffffff1660038381548110612014576120136152ad565b5b90600052602060002090600b0201600a018281548110612037576120366152ad565b5b906000526020600020906002020160010160009054906101000a900473ffffffffffffffffffffffffffffffffffffffff1673ffffffffffffffffffffffffffffffffffffffff16036122a85760008190505b6001600384815481106120a05761209f6152ad565b5b90600052602060002090600b0201600a01805490506120bf919061569d565b81101561221057600383815481106120da576120d96152ad565b5b90600052602060002090600b0201600a016001826120f891906156d1565b81548110612109576121086152ad565b5b90600052602060002090600202016003848154811061212b5761212a6152ad565b5b90600052602060002090600b0201600a01828154811061214e5761214d6152ad565b5b9060005260206000209060020201600082015481600001556001820160009054906101000a900473ffffffffffffffffffffffffffffffffffffffff168160010160006101000a81548173ffffffffffffffffffffffffffffffffffffffff021916908373ffffffffffffffffffffffffffffffffffffffff1602179055506001820160149054906101000a900460ff168160010160146101000a81548160ff02191690831515021790555090505080806122089061536b565b91505061208a565b5060038281548110612225576122246152ad565b5b90600052602060002090600b0201600a0180548061224657612245615705565b5b60019003818190600052602060002090600202016000808201600090556001820160006101000a81549073ffffffffffffffffffffffffffffffffffffffff02191690556001820160146101000a81549060ff021916905550509055506122f7565b80806122b39061536b565b915050611fb9565b506040517f08c379a00000000000000000000000000000000000000000000000000000000081526004016122ee90615780565b60405180910390fd5b50565b6060600060038054905067ffffffffffffffff81111561231d5761231c614d01565b5b60405190808252806020026020018201604052801561235657816020015b61234361447f565b81526020019060019003908161233b5790505b5090506000805b60038054905081101561287e5761239860038281548110612381576123806152ad565b5b90600052602060002090600b020160050186614376565b1561286b57600381815481106123b1576123b06152ad565b5b90600052602060002090600b020160405180610160016040529081600082015481526020016001820160009054906101000a900473ffffffffffffffffffffffffffffffffffffffff1673ffffffffffffffffffffffffffffffffffffffff1673ffffffffffffffffffffffffffffffffffffffff168152602001600282015481526020016003820180546124459061530b565b80601f01602080910402602001604051908101604052809291908181526020018280546124719061530b565b80156124be5780601f10612493576101008083540402835291602001916124be565b820191906000526020600020905b8154815290600101906020018083116124a157829003601f168201915b505050505081526020016004820180546124d79061530b565b80601f01602080910402602001604051908101604052809291908181526020018280546125039061530b565b80156125505780601f1061252557610100808354040283529160200191612550565b820191906000526020600020905b81548152906001019060200180831161253357829003601f168201915b505050505081526020016005820180546125699061530b565b80601f01602080910402602001604051908101604052809291908181526020018280546125959061530b565b80156125e25780601f106125b7576101008083540402835291602001916125e2565b820191906000526020600020905b8154815290600101906020018083116125c557829003601f168201915b5050505050815260200160068201548152602001600782015481526020016008820154815260200160098201805480602002602001604051908101604052809291908181526020016000905b8282101561275c5783829060005260206000209060040201604051806080016040529081600082015481526020016001820160009054906101000a900473ffffffffffffffffffffffffffffffffffffffff1673ffffffffffffffffffffffffffffffffffffffff1673ffffffffffffffffffffffffffffffffffffffff168152602001600282015481526020016003820180546126cb9061530b565b80601f01602080910402602001604051908101604052809291908181526020018280546126f79061530b565b80156127445780601f1061271957610100808354040283529160200191612744565b820191906000526020600020905b81548152906001019060200180831161272757829003601f168201915b5050505050815250508152602001906001019061262e565b505050508152602001600a8201805480602002602001604051908101604052809291908181526020016000905b828210156128365783829060005260206000209060020201604051806060016040529081600082015481526020016001820160009054906101000a900473ffffffffffffffffffffffffffffffffffffffff1673ffffffffffffffffffffffffffffffffffffffff1673ffffffffffffffffffffffffffffffffffffffff1681526020016001820160149054906101000a900460ff16151515158152505081526020019060010190612789565b5050505081525050838381518110612851576128506152ad565b5b602002602001018190525081806128679061536b565b9250505b80806128769061536b565b91505061235d565b508082528192505050919050565b6128946143cf565b3373ffffffffffffffffffffffffffffffffffffffff166128b4836119f0565b6020015173ffffffffffffffffffffffffffffffffffffffff1603612edb576040518060400160405280600384815481106128f2576128f16152ad565b5b90600052602060002090600b020160405180610160016040529081600082015481526020016001820160009054906101000a900473ffffffffffffffffffffffffffffffffffffffff1673ffffffffffffffffffffffffffffffffffffffff1673ffffffffffffffffffffffffffffffffffffffff168152602001600282015481526020016003820180546129869061530b565b80601f01602080910402602001604051908101604052809291908181526020018280546129b29061530b565b80156129ff5780601f106129d4576101008083540402835291602001916129ff565b820191906000526020600020905b8154815290600101906020018083116129e257829003601f168201915b50505050508152602001600482018054612a189061530b565b80601f0160208091040260200160405190810160405280929190818152602001828054612a449061530b565b8015612a915780601f10612a6657610100808354040283529160200191612a91565b820191906000526020600020905b815481529060010190602001808311612a7457829003601f168201915b50505050508152602001600582018054612aaa9061530b565b80601f0160208091040260200160405190810160405280929190818152602001828054612ad69061530b565b8015612b235780601f10612af857610100808354040283529160200191612b23565b820191906000526020600020905b815481529060010190602001808311612b0657829003601f168201915b5050505050815260200160068201548152602001600782015481526020016008820154815260200160098201805480602002602001604051908101604052809291908181526020016000905b82821015612c9d5783829060005260206000209060040201604051806080016040529081600082015481526020016001820160009054906101000a900473ffffffffffffffffffffffffffffffffffffffff1673ffffffffffffffffffffffffffffffffffffffff1673ffffffffffffffffffffffffffffffffffffffff16815260200160028201548152602001600382018054612c0c9061530b565b80601f0160208091040260200160405190810160405280929190818152602001828054612c389061530b565b8015612c855780601f10612c5a57610100808354040283529160200191612c85565b820191906000526020600020905b815481529060010190602001808311612c6857829003601f168201915b50505050508152505081526020019060010190612b6f565b505050508152602001600a8201805480602002602001604051908101604052809291908181526020016000905b82821015612d775783829060005260206000209060020201604051806060016040529081600082015481526020016001820160009054906101000a900473ffffffffffffffffffffffffffffffffffffffff1673ffffffffffffffffffffffffffffffffffffffff1673ffffffffffffffffffffffffffffffffffffffff1681526020016001820160149054906101000a900460ff16151515158152505081526020019060010190612cca565b5050505081525050815260200160048481548110612d9857612d976152ad565b5b9060005260206000209060020201604051806040016040529081600082018054612dc19061530b565b80601f0160208091040260200160405190810160405280929190818152602001828054612ded9061530b565b8015612e3a5780601f10612e0f57610100808354040283529160200191612e3a565b820191906000526020600020905b815481529060010190602001808311612e1d57829003601f168201915b5050505050815260200160018201805480602002602001604051908101604052809291908181526020018280548015612ec857602002820191906000526020600020905b8160009054906101000a900473ffffffffffffffffffffffffffffffffffffffff1673ffffffffffffffffffffffffffffffffffffffff1681526020019060010190808311612e7e575b50505050508152505081525090506135fa565b60005b60048381548110612ef257612ef16152ad565b5b9060005260206000209060020201600101805490508110156135be573373ffffffffffffffffffffffffffffffffffffffff1660048481548110612f3957612f386152ad565b5b90600052602060002090600202016001018281548110612f5c57612f5b6152ad565b5b9060005260206000200160009054906101000a900473ffffffffffffffffffffffffffffffffffffffff1673ffffffffffffffffffffffffffffffffffffffff16036135ab57604051806040016040528060038581548110612fc157612fc06152ad565b5b90600052602060002090600b020160405180610160016040529081600082015481526020016001820160009054906101000a900473ffffffffffffffffffffffffffffffffffffffff1673ffffffffffffffffffffffffffffffffffffffff1673ffffffffffffffffffffffffffffffffffffffff168152602001600282015481526020016003820180546130559061530b565b80601f01602080910402602001604051908101604052809291908181526020018280546130819061530b565b80156130ce5780601f106130a3576101008083540402835291602001916130ce565b820191906000526020600020905b8154815290600101906020018083116130b157829003601f168201915b505050505081526020016004820180546130e79061530b565b80601f01602080910402602001604051908101604052809291908181526020018280546131139061530b565b80156131605780601f1061313557610100808354040283529160200191613160565b820191906000526020600020905b81548152906001019060200180831161314357829003601f168201915b505050505081526020016005820180546131799061530b565b80601f01602080910402602001604051908101604052809291908181526020018280546131a59061530b565b80156131f25780601f106131c7576101008083540402835291602001916131f2565b820191906000526020600020905b8154815290600101906020018083116131d557829003601f168201915b5050505050815260200160068201548152602001600782015481526020016008820154815260200160098201805480602002602001604051908101604052809291908181526020016000905b8282101561336c5783829060005260206000209060040201604051806080016040529081600082015481526020016001820160009054906101000a900473ffffffffffffffffffffffffffffffffffffffff1673ffffffffffffffffffffffffffffffffffffffff1673ffffffffffffffffffffffffffffffffffffffff168152602001600282015481526020016003820180546132db9061530b565b80601f01602080910402602001604051908101604052809291908181526020018280546133079061530b565b80156133545780601f1061332957610100808354040283529160200191613354565b820191906000526020600020905b81548152906001019060200180831161333757829003601f168201915b5050505050815250508152602001906001019061323e565b505050508152602001600a8201805480602002602001604051908101604052809291908181526020016000905b828210156134465783829060005260206000209060020201604051806060016040529081600082015481526020016001820160009054906101000a900473ffffffffffffffffffffffffffffffffffffffff1673ffffffffffffffffffffffffffffffffffffffff1673ffffffffffffffffffffffffffffffffffffffff1681526020016001820160149054906101000a900460ff16151515158152505081526020019060010190613399565b5050505081525050815260200160048581548110613467576134666152ad565b5b90600052602060002090600202016040518060400160405290816000820180546134909061530b565b80601f01602080910402602001604051908101604052809291908181526020018280546134bc9061530b565b80156135095780601f106134de57610100808354040283529160200191613509565b820191906000526020600020905b8154815290600101906020018083116134ec57829003601f168201915b505050505081526020016001820180548060200260200160405190810160405280929190818152602001828054801561359757602002820191906000526020600020905b8160009054906101000a900473ffffffffffffffffffffffffffffffffffffffff1673ffffffffffffffffffffffffffffffffffffffff168152602001906001019080831161354d575b5050505050815250508152509150506135fa565b80806135b69061536b565b915050612ede565b506040517f08c379a00000000000000000000000000000000000000000000000000000000081526004016135f190615838565b60405180910390fd5b919050565b6003818154811061360f57600080fd5b90600052602060002090600b02016000915090508060000154908060010160009054906101000a900473ffffffffffffffffffffffffffffffffffffffff16908060020154908060030180546136649061530b565b80601f01602080910402602001604051908101604052809291908181526020018280546136909061530b565b80156136dd5780601f106136b2576101008083540402835291602001916136dd565b820191906000526020600020905b8154815290600101906020018083116136c057829003601f168201915b5050505050908060040180546136f29061530b565b80601f016020809104026020016040519081016040528092919081815260200182805461371e9061530b565b801561376b5780601f106137405761010080835404028352916020019161376b565b820191906000526020600020905b81548152906001019060200180831161374e57829003601f168201915b5050505050908060050180546137809061530b565b80601f01602080910402602001604051908101604052809291908181526020018280546137ac9061530b565b80156137f95780601f106137ce576101008083540402835291602001916137f9565b820191906000526020600020905b8154815290600101906020018083116137dc57829003601f168201915b5050505050908060060154908060070154908060080154905089565b346003828154811061382a576138296152ad565b5b90600052602060002090600b0201600201541461387c576040517f08c379a0000000000000000000000000000000000000000000000000000000008152600401613873906158a4565b60405180910390fd5b600481815481106138905761388f6152ad565b5b906000526020600020906002020160010180549050600382815481106138b9576138b86152ad565b5b90600052602060002090600b0201600801541161390b576040517f08c379a000000000000000000000000000000000000000000000000000000000815260040161390290615910565b60405180910390fd5b60005b60048281548110613922576139216152ad565b5b906000526020600020906002020160010180549050811015613a20573373ffffffffffffffffffffffffffffffffffffffff1660048381548110613969576139686152ad565b5b9060005260206000209060020201600101828154811061398c5761398b6152ad565b5b9060005260206000200160009054906101000a900473ffffffffffffffffffffffffffffffffffffffff1673ffffffffffffffffffffffffffffffffffffffff1603613a0d576040517f08c379a0000000000000000000000000000000000000000000000000000000008152600401613a049061597c565b60405180910390fd5b8080613a189061536b565b91505061390e565b50600060038281548110613a3757613a366152ad565b5b90600052602060002090600b020160010160009054906101000a900473ffffffffffffffffffffffffffffffffffffffff1673ffffffffffffffffffffffffffffffffffffffff1634604051613a8c906159cd565b60006040518083038185875af1925050503d8060008114613ac9576040519150601f19603f3d011682016040523d82523d6000602084013e613ace565b606091505b5050905080613b12576040517f08c379a0000000000000000000000000000000000000000000000000000000008152600401613b0990615a2e565b60405180910390fd5b60048281548110613b2657613b256152ad565b5b9060005260206000209060020201600101339080600181540180825580915050600190039060005260206000200160009091909190916101000a81548173ffffffffffffffffffffffffffffffffffffffff021916908373ffffffffffffffffffffffffffffffffffffffff1602179055505050565b60005b60038281548110613bb357613bb26152ad565b5b90600052602060002090600b0201600a0180549050811015613dac573373ffffffffffffffffffffffffffffffffffffffff1660038381548110613bfa57613bf96152ad565b5b90600052602060002090600b0201600a018281548110613c1d57613c1c6152ad565b5b906000526020600020906002020160010160009054906101000a900473ffffffffffffffffffffffffffffffffffffffff1673ffffffffffffffffffffffffffffffffffffffff1603613d99576001151560038381548110613c8257613c816152ad565b5b90600052602060002090600b0201600a018281548110613ca557613ca46152ad565b5b906000526020600020906002020160010160149054906101000a900460ff16151503613d3257600060038381548110613ce157613ce06152ad565b5b90600052602060002090600b0201600a018281548110613d0457613d036152ad565b5b906000526020600020906002020160010160146101000a81548160ff02191690831515021790555050613de8565b600160038381548110613d4857613d476152ad565b5b90600052602060002090600b0201600a018281548110613d6b57613d6a6152ad565b5b906000526020600020906002020160010160146101000a81548160ff02191690831515021790555050613de8565b8080613da49061536b565b915050613b9f565b506040517f08c379a0000000000000000000000000000000000000000000000000000000008152600401613ddf90615780565b60405180910390fd5b50565b6060600060038054905067ffffffffffffffff811115613e0e57613e0d614d01565b5b604051908082528060200260200182016040528015613e4757816020015b613e3461447f565b815260200190600190039081613e2c5790505b5090506000805b600380549050811015614368578460038281548110613e7057613e6f6152ad565b5b90600052602060002090600b020160060154036143555760038181548110613e9b57613e9a6152ad565b5b90600052602060002090600b020160405180610160016040529081600082015481526020016001820160009054906101000a900473ffffffffffffffffffffffffffffffffffffffff1673ffffffffffffffffffffffffffffffffffffffff1673ffffffffffffffffffffffffffffffffffffffff16815260200160028201548152602001600382018054613f2f9061530b565b80601f0160208091040260200160405190810160405280929190818152602001828054613f5b9061530b565b8015613fa85780601f10613f7d57610100808354040283529160200191613fa8565b820191906000526020600020905b815481529060010190602001808311613f8b57829003601f168201915b50505050508152602001600482018054613fc19061530b565b80601f0160208091040260200160405190810160405280929190818152602001828054613fed9061530b565b801561403a5780601f1061400f5761010080835404028352916020019161403a565b820191906000526020600020905b81548152906001019060200180831161401d57829003601f168201915b505050505081526020016005820180546140539061530b565b80601f016020809104026020016040519081016040528092919081815260200182805461407f9061530b565b80156140cc5780601f106140a1576101008083540402835291602001916140cc565b820191906000526020600020905b8154815290600101906020018083116140af57829003601f168201915b5050505050815260200160068201548152602001600782015481526020016008820154815260200160098201805480602002602001604051908101604052809291908181526020016000905b828210156142465783829060005260206000209060040201604051806080016040529081600082015481526020016001820160009054906101000a900473ffffffffffffffffffffffffffffffffffffffff1673ffffffffffffffffffffffffffffffffffffffff1673ffffffffffffffffffffffffffffffffffffffff168152602001600282015481526020016003820180546141b59061530b565b80601f01602080910402602001604051908101604052809291908181526020018280546141e19061530b565b801561422e5780601f106142035761010080835404028352916020019161422e565b820191906000526020600020905b81548152906001019060200180831161421157829003601f168201915b50505050508152505081526020019060010190614118565b505050508152602001600a8201805480602002602001604051908101604052809291908181526020016000905b828210156143205783829060005260206000209060020201604051806060016040529081600082015481526020016001820160009054906101000a900473ffffffffffffffffffffffffffffffffffffffff1673ffffffffffffffffffffffffffffffffffffffff1673ffffffffffffffffffffffffffffffffffffffff1681526020016001820160149054906101000a900460ff16151515158152505081526020019060010190614273565b505050508152505083838151811061433b5761433a6152ad565b5b602002602001018190525081806143519061536b565b9250505b80806143609061536b565b915050613e4e565b508082528192505050919050565b6000816040516020016143899190615a8a565b60405160208183030381529060405280519060200120836040516020016143b09190615b39565b6040516020818303038152906040528051906020012014905092915050565b60405180604001604052806143e261447f565b81526020016143ef6144ef565b81525090565b82805482825590600052602060002090810192821561446e579160200282015b8281111561446d5782518260006101000a81548173ffffffffffffffffffffffffffffffffffffffff021916908373ffffffffffffffffffffffffffffffffffffffff16021790555091602001919060010190614415565b5b50905061447b9190614509565b5090565b60405180610160016040528060008152602001600073ffffffffffffffffffffffffffffffffffffffff1681526020016000815260200160608152602001606081526020016060815260200160008152602001600081526020016000815260200160608152602001606081525090565b604051806040016040528060608152602001606081525090565b5b8082111561452257600081600090555060010161450a565b5090565b600081519050919050565b600082825260208201905092915050565b6000819050602082019050919050565b6000819050919050565b61456581614552565b82525050565b600073ffffffffffffffffffffffffffffffffffffffff82169050919050565b60006145968261456b565b9050919050565b6145a68161458b565b82525050565b600081519050919050565b600082825260208201905092915050565b60005b838110156145e65780820151818401526020810190506145cb565b60008484015250505050565b6000601f19601f8301169050919050565b600061460e826145ac565b61461881856145b7565b93506146288185602086016145c8565b614631816145f2565b840191505092915050565b600081519050919050565b600082825260208201905092915050565b6000819050602082019050919050565b6000608083016000830151614680600086018261455c565b506020830151614693602086018261459d565b5060408301516146a6604086018261455c565b50606083015184820360608601526146be8282614603565b9150508091505092915050565b60006146d78383614668565b905092915050565b6000602082019050919050565b60006146f78261463c565b6147018185614647565b93508360208202850161471385614658565b8060005b8581101561474f578484038952815161473085826146cb565b945061473b836146df565b925060208a01995050600181019050614717565b50829750879550505050505092915050565b600081519050919050565b600082825260208201905092915050565b6000819050602082019050919050565b60008115159050919050565b6147a28161478d565b82525050565b6060820160008201516147be600085018261455c565b5060208201516147d1602085018261459d565b5060408201516147e46040850182614799565b50505050565b60006147f683836147a8565b60608301905092915050565b6000602082019050919050565b600061481a82614761565b614824818561476c565b935061482f8361477d565b8060005b8381101561486057815161484788826147ea565b975061485283614802565b925050600181019050614833565b5085935050505092915050565b600061016083016000830151614886600086018261455c565b506020830151614899602086018261459d565b5060408301516148ac604086018261455c565b50606083015184820360608601526148c48282614603565b915050608083015184820360808601526148de8282614603565b91505060a083015184820360a08601526148f88282614603565b91505060c083015161490d60c086018261455c565b5060e083015161492060e086018261455c565b5061010083015161493561010086018261455c565b5061012083015184820361012086015261494f82826146ec565b91505061014083015184820361014086015261496b828261480f565b9150508091505092915050565b600081519050919050565b600082825260208201905092915050565b6000819050602082019050919050565b60006149b0838361459d565b60208301905092915050565b6000602082019050919050565b60006149d482614978565b6149de8185614983565b93506149e983614994565b8060005b83811015614a1a578151614a0188826149a4565b9750614a0c836149bc565b9250506001810190506149ed565b5085935050505092915050565b60006040830160008301518482036000860152614a448282614603565b91505060208301518482036020860152614a5e82826149c9565b9150508091505092915050565b60006040830160008301518482036000860152614a88828261486d565b91505060208301518482036020860152614aa28282614a27565b9150508091505092915050565b6000614abb8383614a6b565b905092915050565b6000602082019050919050565b6000614adb82614526565b614ae58185614531565b935083602082028501614af785614542565b8060005b85811015614b335784840389528151614b148582614aaf565b9450614b1f83614ac3565b925060208a01995050600181019050614afb565b50829750879550505050505092915050565b60006020820190508181036000830152614b5f8184614ad0565b905092915050565b600081519050919050565b600082825260208201905092915050565b6000819050602082019050919050565b6000614b9f838361486d565b905092915050565b6000602082019050919050565b6000614bbf82614b67565b614bc98185614b72565b935083602082028501614bdb85614b83565b8060005b85811015614c175784840389528151614bf88582614b93565b9450614c0383614ba7565b925060208a01995050600181019050614bdf565b50829750879550505050505092915050565b60006020820190508181036000830152614c438184614bb4565b905092915050565b6000604051905090565b600080fd5b600080fd5b614c6881614552565b8114614c7357600080fd5b50565b600081359050614c8581614c5f565b92915050565b614c948161478d565b8114614c9f57600080fd5b50565b600081359050614cb181614c8b565b92915050565b60008060408385031215614cce57614ccd614c55565b5b6000614cdc85828601614c76565b9250506020614ced85828601614ca2565b9150509250929050565b600080fd5b600080fd5b7f4e487b7100000000000000000000000000000000000000000000000000000000600052604160045260246000fd5b614d39826145f2565b810181811067ffffffffffffffff82111715614d5857614d57614d01565b5b80604052505050565b6000614d6b614c4b565b9050614d778282614d30565b919050565b600067ffffffffffffffff821115614d9757614d96614d01565b5b614da0826145f2565b9050602081019050919050565b82818337600083830152505050565b6000614dcf614dca84614d7c565b614d61565b905082815260208101848484011115614deb57614dea614cfc565b5b614df6848285614dad565b509392505050565b600082601f830112614e1357614e12614cf7565b5b8135614e23848260208601614dbc565b91505092915050565b600080600080600080600060e0888a031215614e4b57614e4a614c55565b5b6000614e598a828b01614c76565b975050602088013567ffffffffffffffff811115614e7a57614e79614c5a565b5b614e868a828b01614dfe565b965050604088013567ffffffffffffffff811115614ea757614ea6614c5a565b5b614eb38a828b01614dfe565b955050606088013567ffffffffffffffff811115614ed457614ed3614c5a565b5b614ee08a828b01614dfe565b9450506080614ef18a828b01614c76565b93505060a0614f028a828b01614c76565b92505060c088013567ffffffffffffffff811115614f2357614f22614c5a565b5b614f2f8a828b01614dfe565b91505092959891949750929550565b600060208284031215614f5457614f53614c55565b5b6000614f6284828501614c76565b91505092915050565b600061016083016000830151614f84600086018261455c565b506020830151614f97602086018261459d565b506040830151614faa604086018261455c565b5060608301518482036060860152614fc28282614603565b91505060808301518482036080860152614fdc8282614603565b91505060a083015184820360a0860152614ff68282614603565b91505060c083015161500b60c086018261455c565b5060e083015161501e60e086018261455c565b5061010083015161503361010086018261455c565b5061012083015184820361012086015261504d82826146ec565b915050610140830151848203610140860152615069828261480f565b9150508091505092915050565b600060208201905081810360008301526150908184614f6b565b905092915050565b600080604083850312156150af576150ae614c55565b5b60006150bd85828601614c76565b925050602083013567ffffffffffffffff8111156150de576150dd614c5a565b5b6150ea85828601614dfe565b9150509250929050565b60006020828403121561510a57615109614c55565b5b600082013567ffffffffffffffff81111561512857615127614c5a565b5b61513484828501614dfe565b91505092915050565b6000604083016000830151848203600086015261515a828261486d565b915050602083015184820360208601526151748282614a27565b9150508091505092915050565b6000602082019050818103600083015261519b818461513d565b905092915050565b6151ac81614552565b82525050565b6151bb8161458b565b82525050565b600082825260208201905092915050565b60006151dd826145ac565b6151e781856151c1565b93506151f78185602086016145c8565b615200816145f2565b840191505092915050565b600061012082019050615221600083018c6151a3565b61522e602083018b6151b2565b61523b604083018a6151a3565b818103606083015261524d81896151d2565b9050818103608083015261526181886151d2565b905081810360a083015261527581876151d2565b905061528460c08301866151a3565b61529160e08301856151a3565b61529f6101008301846151a3565b9a9950505050505050505050565b7f4e487b7100000000000000000000000000000000000000000000000000000000600052603260045260246000fd5b7f4e487b7100000000000000000000000000000000000000000000000000000000600052602260045260246000fd5b6000600282049050600182168061532357607f821691505b602082108103615336576153356152dc565b5b50919050565b7f4e487b7100000000000000000000000000000000000000000000000000000000600052601160045260246000fd5b600061537682614552565b91507fffffffffffffffffffffffffffffffffffffffffffffffffffffffffffffffff82036153a8576153a761533c565b5b600182019050919050565b7f596f7520616c72656164792072617465207468697320696e666f000000000000600082015250565b60006153e9601a836151c1565b91506153f4826153b3565b602082019050919050565b60006020820190508181036000830152615418816153dc565b9050919050565b60008190508160005260206000209050919050565b60006020601f8301049050919050565b600082821b905092915050565b6000600883026154817fffffffffffffffffffffffffffffffffffffffffffffffffffffffffffffffff82615444565b61548b8683615444565b95508019841693508086168417925050509392505050565b6000819050919050565b60006154c86154c36154be84614552565b6154a3565b614552565b9050919050565b6000819050919050565b6154e2836154ad565b6154f66154ee826154cf565b848454615451565b825550505050565b600090565b61550b6154fe565b6155168184846154d9565b505050565b5b8181101561553a5761552f600082615503565b60018101905061551c565b5050565b601f82111561557f576155508161541f565b61555984615434565b81016020851015615568578190505b61557c61557485615434565b83018261551b565b50505b505050565b600082821c905092915050565b60006155a260001984600802615584565b1980831691505092915050565b60006155bb8383615591565b9150826002028217905092915050565b6155d4826145ac565b67ffffffffffffffff8111156155ed576155ec614d01565b5b6155f7825461530b565b61560282828561553e565b600060209050601f8311600181146156355760008415615623578287015190505b61562d85826155af565b865550615695565b601f1984166156438661541f565b60005b8281101561566b57848901518255600182019150602085019450602081019050615646565b868310156156885784890151615684601f891682615591565b8355505b6001600288020188555050505b505050505050565b60006156a882614552565b91506156b383614552565b92508282039050818111156156cb576156ca61533c565b5b92915050565b60006156dc82614552565b91506156e783614552565b92508282019050808211156156ff576156fe61533c565b5b92915050565b7f4e487b7100000000000000000000000000000000000000000000000000000000600052603160045260246000fd5b7f596f7520646f6e2774206861766520616e792072617465000000000000000000600082015250565b600061576a6017836151c1565b915061577582615734565b602082019050919050565b600060208201905081810360008301526157998161575d565b9050919050565b7f596f7520646f6e277420686176652061636365737320746f207468697320696e60008201527f666f2e20596f75206861766520746f20706179206f776e6572206f6620696e6660208201527f6f2e000000000000000000000000000000000000000000000000000000000000604082015250565b60006158226042836151c1565b915061582d826157a0565b606082019050919050565b6000602082019050818103600083015261585181615815565b9050919050565b7f57726f6e67204554482028574549292076616c75650000000000000000000000600082015250565b600061588e6015836151c1565b915061589982615858565b602082019050919050565b600060208201905081810360008301526158bd81615881565b9050919050565b7f537570706c7920686173206265656e2075736564000000000000000000000000600082015250565b60006158fa6014836151c1565b9150615905826158c4565b602082019050919050565b60006020820190508181036000830152615929816158ed565b9050919050565b7f596f7520616c7265616479207061696420666f72207468697320696e666f0000600082015250565b6000615966601e836151c1565b915061597182615930565b602082019050919050565b6000602082019050818103600083015261599581615959565b9050919050565b600081905092915050565b50565b60006159b760008361599c565b91506159c2826159a7565b600082019050919050565b60006159d8826159aa565b9150819050919050565b7f4661696c656420746f2073656e64204574686572000000000000000000000000600082015250565b6000615a186014836151c1565b9150615a23826159e2565b602082019050919050565b60006020820190508181036000830152615a4781615a0b565b9050919050565b600081905092915050565b6000615a64826145ac565b615a6e8185615a4e565b9350615a7e8185602086016145c8565b80840191505092915050565b6000615a968284615a59565b915081905092915050565b60008190508160005260206000209050919050565b60008154615ac38161530b565b615acd8186615a4e565b94506001821660008114615ae85760018114615afd57615b30565b60ff1983168652811515820286019350615b30565b615b0685615aa1565b60005b83811015615b2857815481890152600182019150602081019050615b09565b838801955050505b50505092915050565b6000615b458284615ab6565b91508190509291505056fea2646970667358221220d502aa16304d2f7268412e24c2dfc406e221577ab50dc35f99ef34098d679e1a64736f6c63430008120033",
  "linkReferences": {},
  "deployedLinkReferences": {}
}