{
  "_format": "hh-sol-artifact-1",
  "contractName": "PassingSecretInfo",
  "sourceName": "contracts/PassingSecretInfo.sol",
  "abi": [
    {
      "inputs": [],
      "stateMutability": "nonpayable",
      "type": "constructor"
    },
    {
      "inputs": [
        {
          "internalType": "address",
          "name": "account_address",
          "type": "address"
        },
        {
          "internalType": "string",
          "name": "_content",
          "type": "string"
        },
        {
          "internalType": "bool",
          "name": "_rate",
          "type": "bool"
        }
      ],
      "name": "addAccountOpinion",
      "outputs": [],
      "stateMutability": "nonpayable",
      "type": "function"
    },
    {
      "inputs": [
        {
          "internalType": "uint256",
          "name": "_amount",
          "type": "uint256"
        },
        {
          "internalType": "string",
          "name": "_title",
          "type": "string"
        },
        {
          "internalType": "string",
          "name": "_description",
          "type": "string"
        },
        {
          "internalType": "string",
          "name": "_zero_knowledge_proof",
          "type": "string"
        },
        {
          "internalType": "uint256",
          "name": "_max_uses",
          "type": "uint256"
        },
        {
          "internalType": "string",
          "name": "_info",
          "type": "string"
        }
      ],
      "name": "addSecretInfo",
      "outputs": [],
      "stateMutability": "nonpayable",
      "type": "function"
    },
    {
      "inputs": [
        {
          "internalType": "uint256",
          "name": "_secret_info_id",
          "type": "uint256"
        },
        {
          "internalType": "bool",
          "name": "_rate",
          "type": "bool"
        }
      ],
      "name": "addSecretInfoRate",
      "outputs": [],
      "stateMutability": "nonpayable",
      "type": "function"
    },
    {
      "inputs": [
        {
          "internalType": "uint256",
          "name": "_secret_info_id",
          "type": "uint256"
        },
        {
          "internalType": "string",
          "name": "_content",
          "type": "string"
        }
      ],
      "name": "addSecretInfoReply",
      "outputs": [],
      "stateMutability": "nonpayable",
      "type": "function"
    },
    {
      "inputs": [
        {
          "internalType": "uint256",
          "name": "_secret_info_id",
          "type": "uint256"
        }
      ],
      "name": "changeSecretInfoRate",
      "outputs": [],
      "stateMutability": "nonpayable",
      "type": "function"
    },
    {
      "inputs": [
        {
          "internalType": "address",
          "name": "_account_address",
          "type": "address"
        }
      ],
      "name": "getAccountOpinionsByAddress",
      "outputs": [
        {
          "components": [
            {
              "internalType": "address",
              "name": "owner_address",
              "type": "address"
            },
            {
              "internalType": "address",
              "name": "account_address",
              "type": "address"
            },
            {
              "internalType": "string",
              "name": "content",
              "type": "string"
            },
            {
              "internalType": "uint256",
              "name": "created_at",
              "type": "uint256"
            },
            {
              "internalType": "bool",
              "name": "rate",
              "type": "bool"
            }
          ],
          "internalType": "struct PassingSecretInfoStructs.AccountOpinion[]",
          "name": "",
          "type": "tuple[]"
        }
      ],
      "stateMutability": "view",
      "type": "function"
    },
    {
      "inputs": [
        {
          "internalType": "uint256",
          "name": "_secret_info_id",
          "type": "uint256"
        }
      ],
      "name": "getSecretInfoAccessedById",
      "outputs": [
        {
          "components": [
            {
              "components": [
                {
                  "internalType": "uint256",
                  "name": "id",
                  "type": "uint256"
                },
                {
                  "internalType": "address",
                  "name": "owner_address",
                  "type": "address"
                },
                {
                  "internalType": "uint256",
                  "name": "amount",
                  "type": "uint256"
                },
                {
                  "internalType": "string",
                  "name": "title",
                  "type": "string"
                },
                {
                  "internalType": "string",
                  "name": "description",
                  "type": "string"
                },
                {
                  "internalType": "string",
                  "name": "zero_knowledge_proof",
                  "type": "string"
                },
                {
                  "internalType": "uint256",
                  "name": "max_uses",
                  "type": "uint256"
                },
                {
                  "internalType": "uint256",
                  "name": "current_uses",
                  "type": "uint256"
                },
                {
                  "internalType": "uint256",
                  "name": "created_at",
                  "type": "uint256"
                },
                {
                  "components": [
                    {
                      "internalType": "uint256",
                      "name": "id",
                      "type": "uint256"
                    },
                    {
                      "internalType": "address",
                      "name": "owner_address",
                      "type": "address"
                    },
                    {
                      "internalType": "string",
                      "name": "content",
                      "type": "string"
                    },
                    {
                      "internalType": "uint256",
                      "name": "created_at",
                      "type": "uint256"
                    }
                  ],
                  "internalType": "struct Structs.Reply[]",
                  "name": "replies",
                  "type": "tuple[]"
                },
                {
                  "components": [
                    {
                      "internalType": "uint256",
                      "name": "id",
                      "type": "uint256"
                    },
                    {
                      "internalType": "address",
                      "name": "owner_address",
                      "type": "address"
                    },
                    {
                      "internalType": "bool",
                      "name": "rate",
                      "type": "bool"
                    }
                  ],
                  "internalType": "struct Structs.Rate[]",
                  "name": "rates",
                  "type": "tuple[]"
                }
              ],
              "internalType": "struct PassingSecretInfoStructs.SecretInfo",
              "name": "secret_info",
              "type": "tuple"
            },
            {
              "internalType": "string",
              "name": "info",
              "type": "string"
            }
          ],
          "internalType": "struct PassingSecretInfoStructs.SecretInfoAccessedResponse",
          "name": "",
          "type": "tuple"
        }
      ],
      "stateMutability": "view",
      "type": "function"
    },
    {
      "inputs": [],
      "name": "getSecretInfoId",
      "outputs": [
        {
          "internalType": "uint256",
          "name": "",
          "type": "uint256"
        }
      ],
      "stateMutability": "view",
      "type": "function"
    },
    {
      "inputs": [],
      "name": "getSecretInfos",
      "outputs": [
        {
          "components": [
            {
              "internalType": "uint256",
              "name": "id",
              "type": "uint256"
            },
            {
              "internalType": "address",
              "name": "owner_address",
              "type": "address"
            },
            {
              "internalType": "uint256",
              "name": "amount",
              "type": "uint256"
            },
            {
              "internalType": "string",
              "name": "title",
              "type": "string"
            },
            {
              "internalType": "string",
              "name": "description",
              "type": "string"
            },
            {
              "internalType": "string",
              "name": "zero_knowledge_proof",
              "type": "string"
            },
            {
              "internalType": "uint256",
              "name": "max_uses",
              "type": "uint256"
            },
            {
              "internalType": "uint256",
              "name": "current_uses",
              "type": "uint256"
            },
            {
              "internalType": "uint256",
              "name": "created_at",
              "type": "uint256"
            },
            {
              "components": [
                {
                  "internalType": "uint256",
                  "name": "id",
                  "type": "uint256"
                },
                {
                  "internalType": "address",
                  "name": "owner_address",
                  "type": "address"
                },
                {
                  "internalType": "string",
                  "name": "content",
                  "type": "string"
                },
                {
                  "internalType": "uint256",
                  "name": "created_at",
                  "type": "uint256"
                }
              ],
              "internalType": "struct Structs.Reply[]",
              "name": "replies",
              "type": "tuple[]"
            },
            {
              "components": [
                {
                  "internalType": "uint256",
                  "name": "id",
                  "type": "uint256"
                },
                {
                  "internalType": "address",
                  "name": "owner_address",
                  "type": "address"
                },
                {
                  "internalType": "bool",
                  "name": "rate",
                  "type": "bool"
                }
              ],
              "internalType": "struct Structs.Rate[]",
              "name": "rates",
              "type": "tuple[]"
            }
          ],
          "internalType": "struct PassingSecretInfoStructs.SecretInfo[]",
          "name": "",
          "type": "tuple[]"
        }
      ],
      "stateMutability": "view",
      "type": "function"
    },
    {
      "inputs": [],
      "name": "owner",
      "outputs": [
        {
          "internalType": "address",
          "name": "",
          "type": "address"
        }
      ],
      "stateMutability": "view",
      "type": "function"
    },
    {
      "inputs": [
        {
          "internalType": "uint256",
          "name": "_secret_info_id",
          "type": "uint256"
        }
      ],
      "name": "payForSecretInfoAccess",
      "outputs": [],
      "stateMutability": "payable",
      "type": "function"
    },
    {
      "inputs": [
        {
          "internalType": "uint256",
          "name": "_secret_info_id",
          "type": "uint256"
        }
      ],
      "name": "removeSecretInfoRate",
      "outputs": [],
      "stateMutability": "nonpayable",
      "type": "function"
    }
  ],
  "bytecode": "0x60a06040526000805560006001556000600255600060035534801561002357600080fd5b503373ffffffffffffffffffffffffffffffffffffffff1660808173ffffffffffffffffffffffffffffffffffffffff1681525050608051613bcd61007a60003960008181610bf4015261172c0152613bcd6000f3fe6080604052600436106100a75760003560e01c8063cce9986f11610064578063cce9986f146101ba578063cdd62f95146101e5578063d6e842e314610201578063d7b5565f1461023e578063e0898a1414610267578063eb71acd014610290576100a7565b8063048474af146100ac578063172ffbc5146100d5578063237fa7eb146100fe5780638da5cb5b1461012957806390a96b0914610154578063bff814801461017d575b600080fd5b3480156100b857600080fd5b506100d360048036038101906100ce91906124d4565b6102b9565b005b3480156100e157600080fd5b506100fc60048036038101906100f79190612647565b6105fd565b005b34801561010a57600080fd5b5061011361071f565b6040516101209190612b70565b60405180910390f35b34801561013557600080fd5b5061013e610bf2565b60405161014b9190612ba1565b60405180910390f35b34801561016057600080fd5b5061017b60048036038101906101769190612c14565b610c16565b005b34801561018957600080fd5b506101a4600480360381019061019f91906124d4565b610de8565b6040516101b19190612cc7565b60405180910390f35b3480156101c657600080fd5b506101cf61144b565b6040516101dc9190612cf8565b60405180910390f35b6101ff60048036038101906101fa91906124d4565b611454565b005b34801561020d57600080fd5b5061022860048036038101906102239190612d13565b61198f565b6040516102359190612e78565b60405180910390f35b34801561024a57600080fd5b5061026560048036038101906102609190612e9a565b611c31565b005b34801561027357600080fd5b5061028e600480360381019061028991906124d4565b611ddd565b005b34801561029c57600080fd5b506102b760048036038101906102b29190612f97565b61202c565b005b60005b600482815481106102d0576102cf612fd7565b5b90600052602060002090600b0201600a01805490508110156105be573373ffffffffffffffffffffffffffffffffffffffff166004838154811061031757610316612fd7565b5b90600052602060002090600b0201600a01828154811061033a57610339612fd7565b5b906000526020600020906002020160010160009054906101000a900473ffffffffffffffffffffffffffffffffffffffff1673ffffffffffffffffffffffffffffffffffffffff16036105ab5760008190505b6001600484815481106103a3576103a2612fd7565b5b90600052602060002090600b0201600a01805490506103c29190613035565b81101561051357600483815481106103dd576103dc612fd7565b5b90600052602060002090600b0201600a016001826103fb9190613069565b8154811061040c5761040b612fd7565b5b90600052602060002090600202016004848154811061042e5761042d612fd7565b5b90600052602060002090600b0201600a01828154811061045157610450612fd7565b5b9060005260206000209060020201600082015481600001556001820160009054906101000a900473ffffffffffffffffffffffffffffffffffffffff168160010160006101000a81548173ffffffffffffffffffffffffffffffffffffffff021916908373ffffffffffffffffffffffffffffffffffffffff1602179055506001820160149054906101000a900460ff168160010160146101000a81548160ff021916908315150217905550905050808061050b9061309d565b91505061038d565b506004828154811061052857610527612fd7565b5b90600052602060002090600b0201600a01805480610549576105486130e5565b5b60019003818190600052602060002090600202016000808201600090556001820160006101000a81549073ffffffffffffffffffffffffffffffffffffffff02191690556001820160146101000a81549060ff021916905550509055506105fa565b80806105b69061309d565b9150506102bc565b506040517f08c379a00000000000000000000000000000000000000000000000000000000081526004016105f190613171565b60405180910390fd5b50565b610609816103e861230e565b6004828154811061061d5761061c612fd7565b5b90600052602060002090600b0201600901604051806080016040528060015481526020013373ffffffffffffffffffffffffffffffffffffffff1681526020018381526020014281525090806001815401808255809150506001900390600052602060002090600402016000909190919091506000820151816000015560208201518160010160006101000a81548173ffffffffffffffffffffffffffffffffffffffff021916908373ffffffffffffffffffffffffffffffffffffffff16021790555060408201518160020190816106f6919061339d565b50606082015181600301555050600160008154809291906107169061309d565b91905055505050565b60606004805480602002602001604051908101604052809291908181526020016000905b82821015610be957838290600052602060002090600b020160405180610160016040529081600082015481526020016001820160009054906101000a900473ffffffffffffffffffffffffffffffffffffffff1673ffffffffffffffffffffffffffffffffffffffff1673ffffffffffffffffffffffffffffffffffffffff168152602001600282015481526020016003820180546107e1906131c0565b80601f016020809104026020016040519081016040528092919081815260200182805461080d906131c0565b801561085a5780601f1061082f5761010080835404028352916020019161085a565b820191906000526020600020905b81548152906001019060200180831161083d57829003601f168201915b50505050508152602001600482018054610873906131c0565b80601f016020809104026020016040519081016040528092919081815260200182805461089f906131c0565b80156108ec5780601f106108c1576101008083540402835291602001916108ec565b820191906000526020600020905b8154815290600101906020018083116108cf57829003601f168201915b50505050508152602001600582018054610905906131c0565b80601f0160208091040260200160405190810160405280929190818152602001828054610931906131c0565b801561097e5780601f106109535761010080835404028352916020019161097e565b820191906000526020600020905b81548152906001019060200180831161096157829003601f168201915b5050505050815260200160068201548152602001600782015481526020016008820154815260200160098201805480602002602001604051908101604052809291908181526020016000905b82821015610af85783829060005260206000209060040201604051806080016040529081600082015481526020016001820160009054906101000a900473ffffffffffffffffffffffffffffffffffffffff1673ffffffffffffffffffffffffffffffffffffffff1673ffffffffffffffffffffffffffffffffffffffff168152602001600282018054610a5d906131c0565b80601f0160208091040260200160405190810160405280929190818152602001828054610a89906131c0565b8015610ad65780601f10610aab57610100808354040283529160200191610ad6565b820191906000526020600020905b815481529060010190602001808311610ab957829003601f168201915b50505050508152602001600382015481525050815260200190600101906109ca565b505050508152602001600a8201805480602002602001604051908101604052809291908181526020016000905b82821015610bd25783829060005260206000209060020201604051806060016040529081600082015481526020016001820160009054906101000a900473ffffffffffffffffffffffffffffffffffffffff1673ffffffffffffffffffffffffffffffffffffffff1673ffffffffffffffffffffffffffffffffffffffff1681526020016001820160149054906101000a900460ff16151515158152505081526020019060010190610b25565b505050508152505081526020019060010190610743565b50505050905090565b7f000000000000000000000000000000000000000000000000000000000000000081565b3373ffffffffffffffffffffffffffffffffffffffff168373ffffffffffffffffffffffffffffffffffffffff1603610c84576040517f08c379a0000000000000000000000000000000000000000000000000000000008152600401610c7b906134e1565b60405180910390fd5b610c90826103e861230e565b6040518060a001604052803373ffffffffffffffffffffffffffffffffffffffff1681526020018473ffffffffffffffffffffffffffffffffffffffff16815260200183815260200142815260200182151581525060066000600354815260200190815260200160002060008201518160000160006101000a81548173ffffffffffffffffffffffffffffffffffffffff021916908373ffffffffffffffffffffffffffffffffffffffff16021790555060208201518160010160006101000a81548173ffffffffffffffffffffffffffffffffffffffff021916908373ffffffffffffffffffffffffffffffffffffffff1602179055506040820151816002019081610d9d919061339d565b506060820151816003015560808201518160040160006101000a81548160ff02191690831515021790555090505060036000815480929190610dde9061309d565b9190505550505050565b610df061239d565b60005b600760003373ffffffffffffffffffffffffffffffffffffffff1673ffffffffffffffffffffffffffffffffffffffff1681526020019081526020016000208054905081101561140a5782600760003373ffffffffffffffffffffffffffffffffffffffff1673ffffffffffffffffffffffffffffffffffffffff1681526020019081526020016000208281548110610e8f57610e8e612fd7565b5b9060005260206000200154036113f757604051806040016040528060048581548110610ebe57610ebd612fd7565b5b90600052602060002090600b020160405180610160016040529081600082015481526020016001820160009054906101000a900473ffffffffffffffffffffffffffffffffffffffff1673ffffffffffffffffffffffffffffffffffffffff1673ffffffffffffffffffffffffffffffffffffffff16815260200160028201548152602001600382018054610f52906131c0565b80601f0160208091040260200160405190810160405280929190818152602001828054610f7e906131c0565b8015610fcb5780601f10610fa057610100808354040283529160200191610fcb565b820191906000526020600020905b815481529060010190602001808311610fae57829003601f168201915b50505050508152602001600482018054610fe4906131c0565b80601f0160208091040260200160405190810160405280929190818152602001828054611010906131c0565b801561105d5780601f106110325761010080835404028352916020019161105d565b820191906000526020600020905b81548152906001019060200180831161104057829003601f168201915b50505050508152602001600582018054611076906131c0565b80601f01602080910402602001604051908101604052809291908181526020018280546110a2906131c0565b80156110ef5780601f106110c4576101008083540402835291602001916110ef565b820191906000526020600020905b8154815290600101906020018083116110d257829003601f168201915b5050505050815260200160068201548152602001600782015481526020016008820154815260200160098201805480602002602001604051908101604052809291908181526020016000905b828210156112695783829060005260206000209060040201604051806080016040529081600082015481526020016001820160009054906101000a900473ffffffffffffffffffffffffffffffffffffffff1673ffffffffffffffffffffffffffffffffffffffff1673ffffffffffffffffffffffffffffffffffffffff1681526020016002820180546111ce906131c0565b80601f01602080910402602001604051908101604052809291908181526020018280546111fa906131c0565b80156112475780601f1061121c57610100808354040283529160200191611247565b820191906000526020600020905b81548152906001019060200180831161122a57829003601f168201915b505050505081526020016003820154815250508152602001906001019061113b565b505050508152602001600a8201805480602002602001604051908101604052809291908181526020016000905b828210156113435783829060005260206000209060020201604051806060016040529081600082015481526020016001820160009054906101000a900473ffffffffffffffffffffffffffffffffffffffff1673ffffffffffffffffffffffffffffffffffffffff1673ffffffffffffffffffffffffffffffffffffffff1681526020016001820160149054906101000a900460ff16151515158152505081526020019060010190611296565b5050505081525050815260200160056000868152602001908152602001600020805461136e906131c0565b80601f016020809104026020016040519081016040528092919081815260200182805461139a906131c0565b80156113e75780601f106113bc576101008083540402835291602001916113e7565b820191906000526020600020905b8154815290600101906020018083116113ca57829003601f168201915b5050505050815250915050611446565b80806114029061309d565b915050610df3565b506040517f08c379a000000000000000000000000000000000000000000000000000000000815260040161143d90613573565b60405180910390fd5b919050565b60008054905090565b3373ffffffffffffffffffffffffffffffffffffffff166004828154811061147f5761147e612fd7565b5b90600052602060002090600b020160010160009054906101000a900473ffffffffffffffffffffffffffffffffffffffff1673ffffffffffffffffffffffffffffffffffffffff1603611507576040517f08c379a00000000000000000000000000000000000000000000000000000000081526004016114fe9061362b565b60405180910390fd5b346004828154811061151c5761151b612fd7565b5b90600052602060002090600b0201600201541461156e576040517f08c379a000000000000000000000000000000000000000000000000000000000815260040161156590613697565b60405180910390fd5b6004818154811061158257611581612fd7565b5b90600052602060002090600b020160070154600482815481106115a8576115a7612fd7565b5b90600052602060002090600b020160060154116115fa576040517f08c379a00000000000000000000000000000000000000000000000000000000081526004016115f190613703565b60405180910390fd5b60005b600760003373ffffffffffffffffffffffffffffffffffffffff1673ffffffffffffffffffffffffffffffffffffffff168152602001908152602001600020805490508110156116f75781600760003373ffffffffffffffffffffffffffffffffffffffff1673ffffffffffffffffffffffffffffffffffffffff168152602001908152602001600020828154811061169957611698612fd7565b5b9060005260206000200154036116e4576040517f08c379a00000000000000000000000000000000000000000000000000000000081526004016116db90613795565b60405180910390fd5b80806116ef9061309d565b9150506115fd565b5060006064600560ff163461170c91906137b5565b6117169190613826565b9050600081346117269190613035565b905060007f000000000000000000000000000000000000000000000000000000000000000073ffffffffffffffffffffffffffffffffffffffff168360405161176e90613888565b60006040518083038185875af1925050503d80600081146117ab576040519150601f19603f3d011682016040523d82523d6000602084013e6117b0565b606091505b50509050806117f4576040517f08c379a00000000000000000000000000000000000000000000000000000000081526004016117eb906138e9565b60405180910390fd5b60006004858154811061180a57611809612fd7565b5b90600052602060002090600b020160010160009054906101000a900473ffffffffffffffffffffffffffffffffffffffff1673ffffffffffffffffffffffffffffffffffffffff168360405161185f90613888565b60006040518083038185875af1925050503d806000811461189c576040519150601f19603f3d011682016040523d82523d6000602084013e6118a1565b606091505b50509050806118e5576040517f08c379a00000000000000000000000000000000000000000000000000000000081526004016118dc90613955565b60405180910390fd5b6001600486815481106118fb576118fa612fd7565b5b90600052602060002090600b0201600701600082825461191b9190613069565b92505081905550600760003373ffffffffffffffffffffffffffffffffffffffff1673ffffffffffffffffffffffffffffffffffffffff1681526020019081526020016000208590806001815401808255809150506001900390600052602060002001600090919091909150555050505050565b6060600060035467ffffffffffffffff8111156119af576119ae61251c565b5b6040519080825280602002602001820160405280156119e857816020015b6119d56123bd565b8152602001906001900390816119cd5790505b5090506000805b600354811015611c23578473ffffffffffffffffffffffffffffffffffffffff166006600083815260200190815260200160002060010160009054906101000a900473ffffffffffffffffffffffffffffffffffffffff1673ffffffffffffffffffffffffffffffffffffffff1603611c1057600660008281526020019081526020016000206040518060a00160405290816000820160009054906101000a900473ffffffffffffffffffffffffffffffffffffffff1673ffffffffffffffffffffffffffffffffffffffff1673ffffffffffffffffffffffffffffffffffffffff1681526020016001820160009054906101000a900473ffffffffffffffffffffffffffffffffffffffff1673ffffffffffffffffffffffffffffffffffffffff1673ffffffffffffffffffffffffffffffffffffffff168152602001600282018054611b3c906131c0565b80601f0160208091040260200160405190810160405280929190818152602001828054611b68906131c0565b8015611bb55780601f10611b8a57610100808354040283529160200191611bb5565b820191906000526020600020905b815481529060010190602001808311611b9857829003601f168201915b50505050508152602001600382015481526020016004820160009054906101000a900460ff161515151581525050838381518110611bf657611bf5612fd7565b5b60200260200101819052508180611c0c9061309d565b9250505b8080611c1b9061309d565b9150506119ef565b508082528192505050919050565b600060046001816001815401808255809150500390600052602060002090600b02019050611c698769d3c21bcecceda1000000612356565b611c748660fa61230e565b611c80856103e861230e565b611c948369d3c21bcecceda1000000612356565b611ca0846103e861230e565b611cac8261271061230e565b6000548160000181905550338160010160006101000a81548173ffffffffffffffffffffffffffffffffffffffff021916908373ffffffffffffffffffffffffffffffffffffffff16021790555086816002018190555085816003019081611d14919061339d565b5084816004019081611d26919061339d565b5083816005019081611d38919061339d565b5082816006018190555060008160070181905550428160080181905550600760003373ffffffffffffffffffffffffffffffffffffffff1673ffffffffffffffffffffffffffffffffffffffff1681526020019081526020016000206000549080600181540180825580915050600190039060005260206000200160009091909190915055600080815480929190611dcf9061309d565b919050555050505050505050565b60005b60048281548110611df457611df3612fd7565b5b90600052602060002090600b0201600a0180549050811015611fed573373ffffffffffffffffffffffffffffffffffffffff1660048381548110611e3b57611e3a612fd7565b5b90600052602060002090600b0201600a018281548110611e5e57611e5d612fd7565b5b906000526020600020906002020160010160009054906101000a900473ffffffffffffffffffffffffffffffffffffffff1673ffffffffffffffffffffffffffffffffffffffff1603611fda576001151560048381548110611ec357611ec2612fd7565b5b90600052602060002090600b0201600a018281548110611ee657611ee5612fd7565b5b906000526020600020906002020160010160149054906101000a900460ff16151503611f7357600060048381548110611f2257611f21612fd7565b5b90600052602060002090600b0201600a018281548110611f4557611f44612fd7565b5b906000526020600020906002020160010160146101000a81548160ff02191690831515021790555050612029565b600160048381548110611f8957611f88612fd7565b5b90600052602060002090600b0201600a018281548110611fac57611fab612fd7565b5b906000526020600020906002020160010160146101000a81548160ff02191690831515021790555050612029565b8080611fe59061309d565b915050611de0565b506040517f08c379a000000000000000000000000000000000000000000000000000000000815260040161202090613171565b60405180910390fd5b50565b3373ffffffffffffffffffffffffffffffffffffffff166004838154811061205757612056612fd7565b5b90600052602060002090600b020160010160009054906101000a900473ffffffffffffffffffffffffffffffffffffffff1673ffffffffffffffffffffffffffffffffffffffff16036120df576040517f08c379a00000000000000000000000000000000000000000000000000000000081526004016120d6906139e7565b60405180910390fd5b60005b600483815481106120f6576120f5612fd7565b5b90600052602060002090600b0201600a01805490508110156121fb573373ffffffffffffffffffffffffffffffffffffffff166004848154811061213d5761213c612fd7565b5b90600052602060002090600b0201600a0182815481106121605761215f612fd7565b5b906000526020600020906002020160010160009054906101000a900473ffffffffffffffffffffffffffffffffffffffff1673ffffffffffffffffffffffffffffffffffffffff16036121e8576040517f08c379a00000000000000000000000000000000000000000000000000000000081526004016121df90613a53565b60405180910390fd5b80806121f39061309d565b9150506120e2565b50600482815481106122105761220f612fd7565b5b90600052602060002090600b0201600a01604051806060016040528060015481526020013373ffffffffffffffffffffffffffffffffffffffff16815260200183151581525090806001815401808255809150506001900390600052602060002090600202016000909190919091506000820151816000015560208201518160010160006101000a81548173ffffffffffffffffffffffffffffffffffffffff021916908373ffffffffffffffffffffffffffffffffffffffff16021790555060408201518160010160146101000a81548160ff0219169083151502179055505050600260008154809291906123059061309d565b91905055505050565b8082511115612352576040517f08c379a000000000000000000000000000000000000000000000000000000000815260040161234990613ae5565b60405180910390fd5b5050565b80821115612399576040517f08c379a000000000000000000000000000000000000000000000000000000000815260040161239090613b77565b60405180910390fd5b5050565b60405180604001604052806123b061241a565b8152602001606081525090565b6040518060a00160405280600073ffffffffffffffffffffffffffffffffffffffff168152602001600073ffffffffffffffffffffffffffffffffffffffff16815260200160608152602001600081526020016000151581525090565b60405180610160016040528060008152602001600073ffffffffffffffffffffffffffffffffffffffff1681526020016000815260200160608152602001606081526020016060815260200160008152602001600081526020016000815260200160608152602001606081525090565b6000604051905090565b600080fd5b600080fd5b6000819050919050565b6124b18161249e565b81146124bc57600080fd5b50565b6000813590506124ce816124a8565b92915050565b6000602082840312156124ea576124e9612494565b5b60006124f8848285016124bf565b91505092915050565b600080fd5b600080fd5b6000601f19601f8301169050919050565b7f4e487b7100000000000000000000000000000000000000000000000000000000600052604160045260246000fd5b6125548261250b565b810181811067ffffffffffffffff821117156125735761257261251c565b5b80604052505050565b600061258661248a565b9050612592828261254b565b919050565b600067ffffffffffffffff8211156125b2576125b161251c565b5b6125bb8261250b565b9050602081019050919050565b82818337600083830152505050565b60006125ea6125e584612597565b61257c565b90508281526020810184848401111561260657612605612506565b5b6126118482856125c8565b509392505050565b600082601f83011261262e5761262d612501565b5b813561263e8482602086016125d7565b91505092915050565b6000806040838503121561265e5761265d612494565b5b600061266c858286016124bf565b925050602083013567ffffffffffffffff81111561268d5761268c612499565b5b61269985828601612619565b9150509250929050565b600081519050919050565b600082825260208201905092915050565b6000819050602082019050919050565b6126d88161249e565b82525050565b600073ffffffffffffffffffffffffffffffffffffffff82169050919050565b6000612709826126de565b9050919050565b612719816126fe565b82525050565b600081519050919050565b600082825260208201905092915050565b60005b8381101561275957808201518184015260208101905061273e565b60008484015250505050565b60006127708261271f565b61277a818561272a565b935061278a81856020860161273b565b6127938161250b565b840191505092915050565b600081519050919050565b600082825260208201905092915050565b6000819050602082019050919050565b60006080830160008301516127e260008601826126cf565b5060208301516127f56020860182612710565b506040830151848203604086015261280d8282612765565b915050606083015161282260608601826126cf565b508091505092915050565b600061283983836127ca565b905092915050565b6000602082019050919050565b60006128598261279e565b61286381856127a9565b935083602082028501612875856127ba565b8060005b858110156128b15784840389528151612892858261282d565b945061289d83612841565b925060208a01995050600181019050612879565b50829750879550505050505092915050565b600081519050919050565b600082825260208201905092915050565b6000819050602082019050919050565b60008115159050919050565b612904816128ef565b82525050565b60608201600082015161292060008501826126cf565b5060208201516129336020850182612710565b50604082015161294660408501826128fb565b50505050565b6000612958838361290a565b60608301905092915050565b6000602082019050919050565b600061297c826128c3565b61298681856128ce565b9350612991836128df565b8060005b838110156129c25781516129a9888261294c565b97506129b483612964565b925050600181019050612995565b5085935050505092915050565b6000610160830160008301516129e860008601826126cf565b5060208301516129fb6020860182612710565b506040830151612a0e60408601826126cf565b5060608301518482036060860152612a268282612765565b91505060808301518482036080860152612a408282612765565b91505060a083015184820360a0860152612a5a8282612765565b91505060c0830151612a6f60c08601826126cf565b5060e0830151612a8260e08601826126cf565b50610100830151612a976101008601826126cf565b50610120830151848203610120860152612ab1828261284e565b915050610140830151848203610140860152612acd8282612971565b9150508091505092915050565b6000612ae683836129cf565b905092915050565b6000602082019050919050565b6000612b06826126a3565b612b1081856126ae565b935083602082028501612b22856126bf565b8060005b85811015612b5e5784840389528151612b3f8582612ada565b9450612b4a83612aee565b925060208a01995050600181019050612b26565b50829750879550505050505092915050565b60006020820190508181036000830152612b8a8184612afb565b905092915050565b612b9b816126fe565b82525050565b6000602082019050612bb66000830184612b92565b92915050565b612bc5816126fe565b8114612bd057600080fd5b50565b600081359050612be281612bbc565b92915050565b612bf1816128ef565b8114612bfc57600080fd5b50565b600081359050612c0e81612be8565b92915050565b600080600060608486031215612c2d57612c2c612494565b5b6000612c3b86828701612bd3565b935050602084013567ffffffffffffffff811115612c5c57612c5b612499565b5b612c6886828701612619565b9250506040612c7986828701612bff565b9150509250925092565b60006040830160008301518482036000860152612ca082826129cf565b91505060208301518482036020860152612cba8282612765565b9150508091505092915050565b60006020820190508181036000830152612ce18184612c83565b905092915050565b612cf28161249e565b82525050565b6000602082019050612d0d6000830184612ce9565b92915050565b600060208284031215612d2957612d28612494565b5b6000612d3784828501612bd3565b91505092915050565b600081519050919050565b600082825260208201905092915050565b6000819050602082019050919050565b600060a083016000830151612d846000860182612710565b506020830151612d976020860182612710565b5060408301518482036040860152612daf8282612765565b9150506060830151612dc460608601826126cf565b506080830151612dd760808601826128fb565b508091505092915050565b6000612dee8383612d6c565b905092915050565b6000602082019050919050565b6000612e0e82612d40565b612e188185612d4b565b935083602082028501612e2a85612d5c565b8060005b85811015612e665784840389528151612e478582612de2565b9450612e5283612df6565b925060208a01995050600181019050612e2e565b50829750879550505050505092915050565b60006020820190508181036000830152612e928184612e03565b905092915050565b60008060008060008060c08789031215612eb757612eb6612494565b5b6000612ec589828a016124bf565b965050602087013567ffffffffffffffff811115612ee657612ee5612499565b5b612ef289828a01612619565b955050604087013567ffffffffffffffff811115612f1357612f12612499565b5b612f1f89828a01612619565b945050606087013567ffffffffffffffff811115612f4057612f3f612499565b5b612f4c89828a01612619565b9350506080612f5d89828a016124bf565b92505060a087013567ffffffffffffffff811115612f7e57612f7d612499565b5b612f8a89828a01612619565b9150509295509295509295565b60008060408385031215612fae57612fad612494565b5b6000612fbc858286016124bf565b9250506020612fcd85828601612bff565b9150509250929050565b7f4e487b7100000000000000000000000000000000000000000000000000000000600052603260045260246000fd5b7f4e487b7100000000000000000000000000000000000000000000000000000000600052601160045260246000fd5b60006130408261249e565b915061304b8361249e565b925082820390508181111561306357613062613006565b5b92915050565b60006130748261249e565b915061307f8361249e565b925082820190508082111561309757613096613006565b5b92915050565b60006130a88261249e565b91507fffffffffffffffffffffffffffffffffffffffffffffffffffffffffffffffff82036130da576130d9613006565b5b600182019050919050565b7f4e487b7100000000000000000000000000000000000000000000000000000000600052603160045260246000fd5b600082825260208201905092915050565b7f596f7520646f6e2774206861766520616e792072617465000000000000000000600082015250565b600061315b601783613114565b915061316682613125565b602082019050919050565b6000602082019050818103600083015261318a8161314e565b9050919050565b7f4e487b7100000000000000000000000000000000000000000000000000000000600052602260045260246000fd5b600060028204905060018216806131d857607f821691505b6020821081036131eb576131ea613191565b5b50919050565b60008190508160005260206000209050919050565b60006020601f8301049050919050565b600082821b905092915050565b6000600883026132537fffffffffffffffffffffffffffffffffffffffffffffffffffffffffffffffff82613216565b61325d8683613216565b95508019841693508086168417925050509392505050565b6000819050919050565b600061329a6132956132908461249e565b613275565b61249e565b9050919050565b6000819050919050565b6132b48361327f565b6132c86132c0826132a1565b848454613223565b825550505050565b600090565b6132dd6132d0565b6132e88184846132ab565b505050565b5b8181101561330c576133016000826132d5565b6001810190506132ee565b5050565b601f82111561335157613322816131f1565b61332b84613206565b8101602085101561333a578190505b61334e61334685613206565b8301826132ed565b50505b505050565b600082821c905092915050565b600061337460001984600802613356565b1980831691505092915050565b600061338d8383613363565b9150826002028217905092915050565b6133a68261271f565b67ffffffffffffffff8111156133bf576133be61251c565b5b6133c982546131c0565b6133d4828285613310565b600060209050601f83116001811461340757600084156133f5578287015190505b6133ff8582613381565b865550613467565b601f198416613415866131f1565b60005b8281101561343d57848901518255600182019150602085019450602081019050613418565b8683101561345a5784890151613456601f891682613363565b8355505b6001600288020188555050505b505050505050565b7f596f752063616e6e6f7420616464206f70696e696f6e20746f20796f7572206160008201527f63636f756e740000000000000000000000000000000000000000000000000000602082015250565b60006134cb602683613114565b91506134d68261346f565b604082019050919050565b600060208201905081810360008301526134fa816134be565b9050919050565b7f596f7520646f6e277420686176652061636365737320746f207468697320736560008201527f6372657420696e666f0000000000000000000000000000000000000000000000602082015250565b600061355d602983613114565b915061356882613501565b604082019050919050565b6000602082019050818103600083015261358c81613550565b9050919050565b7f596f7520617265206f776e6572206f6620746869732073656372657420696e6660008201527f6f2c20796f752063616e6e6f742070617920666f7220796f757273207365637260208201527f657420696e666f73000000000000000000000000000000000000000000000000604082015250565b6000613615604883613114565b915061362082613593565b606082019050919050565b6000602082019050818103600083015261364481613608565b9050919050565b7f57726f6e6720616d6f756e742076616c75650000000000000000000000000000600082015250565b6000613681601283613114565b915061368c8261364b565b602082019050919050565b600060208201905081810360008301526136b081613674565b9050919050565b7f537570706c7920686173206265656e2075736564000000000000000000000000600082015250565b60006136ed601483613114565b91506136f8826136b7565b602082019050919050565b6000602082019050818103600083015261371c816136e0565b9050919050565b7f596f7520616c7265616479207061696420666f7220746869732073656372657460008201527f20696e666f000000000000000000000000000000000000000000000000000000602082015250565b600061377f602583613114565b915061378a82613723565b604082019050919050565b600060208201905081810360008301526137ae81613772565b9050919050565b60006137c08261249e565b91506137cb8361249e565b92508282026137d98161249e565b915082820484148315176137f0576137ef613006565b5b5092915050565b7f4e487b7100000000000000000000000000000000000000000000000000000000600052601260045260246000fd5b60006138318261249e565b915061383c8361249e565b92508261384c5761384b6137f7565b5b828204905092915050565b600081905092915050565b50565b6000613872600083613857565b915061387d82613862565b600082019050919050565b600061389382613865565b9150819050919050565b7f5472616e7366657220746f206f776e6572206661696c65640000000000000000600082015250565b60006138d3601883613114565b91506138de8261389d565b602082019050919050565b60006020820190508181036000830152613902816138c6565b9050919050565b7f4661696c656420746f2073656e64204574686572000000000000000000000000600082015250565b600061393f601483613114565b915061394a82613909565b602082019050919050565b6000602082019050818103600083015261396e81613932565b9050919050565b7f596f7520617265206f776e6572206f6620746869732073656372657420696e6660008201527f6f00000000000000000000000000000000000000000000000000000000000000602082015250565b60006139d1602183613114565b91506139dc82613975565b604082019050919050565b60006020820190508181036000830152613a00816139c4565b9050919050565b7f596f7520616c72656164792072617465207468697320696e666f000000000000600082015250565b6000613a3d601a83613114565b9150613a4882613a07565b602082019050919050565b60006020820190508181036000830152613a6c81613a30565b9050919050565b7f537472696e67206c656e677468206578636565647320746865206d6178696d7560008201527f6d20616c6c6f7765640000000000000000000000000000000000000000000000602082015250565b6000613acf602983613114565b9150613ada82613a73565b604082019050919050565b60006020820190508181036000830152613afe81613ac2565b9050919050565b7f4e756d626572206578636565647320746865206d6178696d756d20616c6c6f7760008201527f6564000000000000000000000000000000000000000000000000000000000000602082015250565b6000613b61602283613114565b9150613b6c82613b05565b604082019050919050565b60006020820190508181036000830152613b9081613b54565b905091905056fea2646970667358221220544d1ae2aca8e1ae01ecd43bce7f4ecfe9a02b9c378363f43a5ca67398219a9c64736f6c63430008120033",
  "linkReferences": {},
  "deployedLinkReferences": {}
}