{
  "_format": "hh-sol-artifact-1",
  "contractName": "PassingSecretInfo",
  "sourceName": "contracts/PassingSecretInfo.sol",
  "abi": [
    {
      "inputs": [
        {
          "internalType": "address",
          "name": "account_address",
          "type": "address"
        },
        {
          "internalType": "string",
          "name": "_content",
          "type": "string"
        },
        {
          "internalType": "bool",
          "name": "_rate",
          "type": "bool"
        }
      ],
      "name": "addAccountOpinion",
      "outputs": [],
      "stateMutability": "nonpayable",
      "type": "function"
    },
    {
      "inputs": [
        {
          "internalType": "uint256",
          "name": "_amount",
          "type": "uint256"
        },
        {
          "internalType": "string",
          "name": "_title",
          "type": "string"
        },
        {
          "internalType": "string",
          "name": "_description",
          "type": "string"
        },
        {
          "internalType": "uint256",
          "name": "_max_uses",
          "type": "uint256"
        },
        {
          "internalType": "string",
          "name": "_zero_knowledge_proof",
          "type": "string"
        },
        {
          "internalType": "string",
          "name": "_info",
          "type": "string"
        }
      ],
      "name": "addSecretInfo",
      "outputs": [],
      "stateMutability": "nonpayable",
      "type": "function"
    },
    {
      "inputs": [
        {
          "internalType": "uint256",
          "name": "_secret_info_id",
          "type": "uint256"
        },
        {
          "internalType": "bool",
          "name": "_rate",
          "type": "bool"
        }
      ],
      "name": "addSecretInfoRate",
      "outputs": [],
      "stateMutability": "nonpayable",
      "type": "function"
    },
    {
      "inputs": [
        {
          "internalType": "uint256",
          "name": "_secret_info_id",
          "type": "uint256"
        },
        {
          "internalType": "string",
          "name": "_content",
          "type": "string"
        }
      ],
      "name": "addSecretInfoReply",
      "outputs": [],
      "stateMutability": "nonpayable",
      "type": "function"
    },
    {
      "inputs": [
        {
          "internalType": "uint256",
          "name": "_secret_info_id",
          "type": "uint256"
        }
      ],
      "name": "changeSecretInfoRate",
      "outputs": [],
      "stateMutability": "nonpayable",
      "type": "function"
    },
    {
      "inputs": [
        {
          "internalType": "address",
          "name": "_account_address",
          "type": "address"
        }
      ],
      "name": "getAccountOpinionsByAddress",
      "outputs": [
        {
          "components": [
            {
              "internalType": "address",
              "name": "owner_address",
              "type": "address"
            },
            {
              "internalType": "address",
              "name": "account_address",
              "type": "address"
            },
            {
              "internalType": "uint256",
              "name": "created_at",
              "type": "uint256"
            },
            {
              "internalType": "string",
              "name": "content",
              "type": "string"
            },
            {
              "internalType": "bool",
              "name": "rate",
              "type": "bool"
            }
          ],
          "internalType": "struct PassingSecretInfoStructs.AccountOpinion[]",
          "name": "",
          "type": "tuple[]"
        }
      ],
      "stateMutability": "view",
      "type": "function"
    },
    {
      "inputs": [],
      "name": "getSecretInfos",
      "outputs": [
        {
          "components": [
            {
              "internalType": "uint256",
              "name": "id",
              "type": "uint256"
            },
            {
              "internalType": "address",
              "name": "owner_address",
              "type": "address"
            },
            {
              "internalType": "uint256",
              "name": "amount",
              "type": "uint256"
            },
            {
              "internalType": "string",
              "name": "title",
              "type": "string"
            },
            {
              "internalType": "string",
              "name": "description",
              "type": "string"
            },
            {
              "internalType": "uint256",
              "name": "created_at",
              "type": "uint256"
            },
            {
              "internalType": "uint256",
              "name": "max_uses",
              "type": "uint256"
            },
            {
              "internalType": "uint256",
              "name": "current_uses",
              "type": "uint256"
            },
            {
              "components": [
                {
                  "internalType": "uint256",
                  "name": "id",
                  "type": "uint256"
                },
                {
                  "internalType": "address",
                  "name": "owner_address",
                  "type": "address"
                },
                {
                  "internalType": "uint256",
                  "name": "created_at",
                  "type": "uint256"
                },
                {
                  "internalType": "string",
                  "name": "content",
                  "type": "string"
                }
              ],
              "internalType": "struct Structs.Reply[]",
              "name": "replies",
              "type": "tuple[]"
            },
            {
              "components": [
                {
                  "internalType": "uint256",
                  "name": "id",
                  "type": "uint256"
                },
                {
                  "internalType": "address",
                  "name": "owner_address",
                  "type": "address"
                },
                {
                  "internalType": "bool",
                  "name": "rate",
                  "type": "bool"
                }
              ],
              "internalType": "struct Structs.Rate[]",
              "name": "rates",
              "type": "tuple[]"
            },
            {
              "internalType": "string",
              "name": "zero_knowledge_proof",
              "type": "string"
            }
          ],
          "internalType": "struct PassingSecretInfoStructs.SecretInfo[]",
          "name": "",
          "type": "tuple[]"
        }
      ],
      "stateMutability": "view",
      "type": "function"
    },
    {
      "inputs": [],
      "name": "getSecretInfosAccessed",
      "outputs": [
        {
          "components": [
            {
              "components": [
                {
                  "internalType": "uint256",
                  "name": "id",
                  "type": "uint256"
                },
                {
                  "internalType": "address",
                  "name": "owner_address",
                  "type": "address"
                },
                {
                  "internalType": "uint256",
                  "name": "amount",
                  "type": "uint256"
                },
                {
                  "internalType": "string",
                  "name": "title",
                  "type": "string"
                },
                {
                  "internalType": "string",
                  "name": "description",
                  "type": "string"
                },
                {
                  "internalType": "uint256",
                  "name": "created_at",
                  "type": "uint256"
                },
                {
                  "internalType": "uint256",
                  "name": "max_uses",
                  "type": "uint256"
                },
                {
                  "internalType": "uint256",
                  "name": "current_uses",
                  "type": "uint256"
                },
                {
                  "components": [
                    {
                      "internalType": "uint256",
                      "name": "id",
                      "type": "uint256"
                    },
                    {
                      "internalType": "address",
                      "name": "owner_address",
                      "type": "address"
                    },
                    {
                      "internalType": "uint256",
                      "name": "created_at",
                      "type": "uint256"
                    },
                    {
                      "internalType": "string",
                      "name": "content",
                      "type": "string"
                    }
                  ],
                  "internalType": "struct Structs.Reply[]",
                  "name": "replies",
                  "type": "tuple[]"
                },
                {
                  "components": [
                    {
                      "internalType": "uint256",
                      "name": "id",
                      "type": "uint256"
                    },
                    {
                      "internalType": "address",
                      "name": "owner_address",
                      "type": "address"
                    },
                    {
                      "internalType": "bool",
                      "name": "rate",
                      "type": "bool"
                    }
                  ],
                  "internalType": "struct Structs.Rate[]",
                  "name": "rates",
                  "type": "tuple[]"
                },
                {
                  "internalType": "string",
                  "name": "zero_knowledge_proof",
                  "type": "string"
                }
              ],
              "internalType": "struct PassingSecretInfoStructs.SecretInfo",
              "name": "secret_info",
              "type": "tuple"
            },
            {
              "components": [
                {
                  "internalType": "string",
                  "name": "info",
                  "type": "string"
                },
                {
                  "internalType": "address[]",
                  "name": "accessed_adresses",
                  "type": "address[]"
                }
              ],
              "internalType": "struct PassingSecretInfoStructs.SecretInfoAccessed",
              "name": "secret_info_accessed",
              "type": "tuple"
            }
          ],
          "internalType": "struct PassingSecretInfoStructs.SecretInfoAccessedResponse[]",
          "name": "",
          "type": "tuple[]"
        }
      ],
      "stateMutability": "view",
      "type": "function"
    },
    {
      "inputs": [
        {
          "internalType": "uint256",
          "name": "_secret_info_id",
          "type": "uint256"
        }
      ],
      "name": "payForSecretInfoAccess",
      "outputs": [],
      "stateMutability": "payable",
      "type": "function"
    },
    {
      "inputs": [
        {
          "internalType": "uint256",
          "name": "_secret_info_id",
          "type": "uint256"
        }
      ],
      "name": "removeSecretInfoRate",
      "outputs": [],
      "stateMutability": "nonpayable",
      "type": "function"
    }
  ],
  "bytecode": "0x6080604052600080556000600155600060025534801561001e57600080fd5b506142208061002e6000396000f3fe6080604052600436106100915760003560e01c806390a96b091161005957806390a96b0914610167578063cdd62f9514610190578063d6e842e3146101ac578063e0898a14146101e9578063eb71acd01461021257610091565b8063048474af14610096578063172ffbc5146100bf57806317e18e77146100e8578063237fa7eb146101115780634d6281761461013c575b600080fd5b3480156100a257600080fd5b506100bd60048036038101906100b89190612c78565b61023b565b005b3480156100cb57600080fd5b506100e660048036038101906100e19190612deb565b610572565b005b3480156100f457600080fd5b5061010f600480360381019061010a9190612e47565b610694565b005b34801561011d57600080fd5b5061012661089b565b6040516101339190613411565b60405180910390f35b34801561014857600080fd5b50610151610d6e565b60405161015e919061362c565b60405180910390f35b34801561017357600080fd5b5061018e600480360381019061018991906136a6565b611bb1565b005b6101aa60048036038101906101a59190612c78565b611d80565b005b3480156101b857600080fd5b506101d360048036038101906101ce9190613715565b6121f4565b6040516101e0919061387a565b60405180910390f35b3480156101f557600080fd5b50610210600480360381019061020b9190612c78565b6124ba565b005b34801561021e57600080fd5b506102396004803603810190610234919061389c565b612709565b005b60005b60038281548110610252576102516138dc565b5b90600052602060002090600b020160090180549050811015610533573373ffffffffffffffffffffffffffffffffffffffff1660038381548110610299576102986138dc565b5b90600052602060002090600b020160090182815481106102bc576102bb6138dc565b5b906000526020600020906002020160010160009054906101000a900473ffffffffffffffffffffffffffffffffffffffff1673ffffffffffffffffffffffffffffffffffffffff16036105205760008190505b60038381548110610323576103226138dc565b5b90600052602060002090600b02016009018054905081116104885760038381548110610352576103516138dc565b5b90600052602060002090600b0201600901600182610370919061393a565b81548110610381576103806138dc565b5b9060005260206000209060020201600384815481106103a3576103a26138dc565b5b90600052602060002090600b020160090182815481106103c6576103c56138dc565b5b9060005260206000209060020201600082015481600001556001820160009054906101000a900473ffffffffffffffffffffffffffffffffffffffff168160010160006101000a81548173ffffffffffffffffffffffffffffffffffffffff021916908373ffffffffffffffffffffffffffffffffffffffff1602179055506001820160149054906101000a900460ff168160010160146101000a81548160ff02191690831515021790555090505080806104809061396e565b91505061030f565b506003828154811061049d5761049c6138dc565b5b90600052602060002090600b02016009018054806104be576104bd6139b6565b5b60019003818190600052602060002090600202016000808201600090556001820160006101000a81549073ffffffffffffffffffffffffffffffffffffffff02191690556001820160146101000a81549060ff0219169055505090555061056f565b808061052b9061396e565b91505061023e565b506040517f08c379a000000000000000000000000000000000000000000000000000000000815260040161056690613a42565b60405180910390fd5b50565b61057e816103e86129eb565b60038281548110610592576105916138dc565b5b90600052602060002090600b0201600801604051806080016040528060015481526020013373ffffffffffffffffffffffffffffffffffffffff1681526020014281526020018381525090806001815401808255809150506001900390600052602060002090600402016000909190919091506000820151816000015560208201518160010160006101000a81548173ffffffffffffffffffffffffffffffffffffffff021916908373ffffffffffffffffffffffffffffffffffffffff1602179055506040820151816002015560608201518160030190816106759190613c6e565b5050506001600081548092919061068b9061396e565b91905055505050565b60008067ffffffffffffffff8111156106b0576106af612cc0565b5b6040519080825280602002602001820160405280156106de5781602001602082028036833780820191505090505b509050600060036001816001815401808255809150500390600052602060002090600b020190506000548160000181905550338160010160006101000a81548173ffffffffffffffffffffffffffffffffffffffff021916908373ffffffffffffffffffffffffffffffffffffffff1602179055506107678869d3c21bcecceda1000000612a33565b87816002018190555061077b8760fa6129eb565b8681600301908161078c9190613c6e565b50610799866103e86129eb565b858160040190816107aa9190613c6e565b506107bf8569d3c21bcecceda1000000612a33565b8481600601819055506107d4846103e86129eb565b8381600a0190816107e59190613c6e565b5042816005018190555060008160070181905550610805836127106129eb565b60046040518060400160405280858152602001848152509080600181540180825580915050600190039060005260206000209060020201600090919091909150600082015181600001908161085a9190613c6e565b506020820151816001019080519060200190610877929190612a7a565b50505060008081548092919061088c9061396e565b91905055505050505050505050565b60606003805480602002602001604051908101604052809291908181526020016000905b82821015610d6557838290600052602060002090600b020160405180610160016040529081600082015481526020016001820160009054906101000a900473ffffffffffffffffffffffffffffffffffffffff1673ffffffffffffffffffffffffffffffffffffffff1673ffffffffffffffffffffffffffffffffffffffff1681526020016002820154815260200160038201805461095d90613a91565b80601f016020809104026020016040519081016040528092919081815260200182805461098990613a91565b80156109d65780601f106109ab576101008083540402835291602001916109d6565b820191906000526020600020905b8154815290600101906020018083116109b957829003601f168201915b505050505081526020016004820180546109ef90613a91565b80601f0160208091040260200160405190810160405280929190818152602001828054610a1b90613a91565b8015610a685780601f10610a3d57610100808354040283529160200191610a68565b820191906000526020600020905b815481529060010190602001808311610a4b57829003601f168201915b5050505050815260200160058201548152602001600682015481526020016007820154815260200160088201805480602002602001604051908101604052809291908181526020016000905b82821015610be25783829060005260206000209060040201604051806080016040529081600082015481526020016001820160009054906101000a900473ffffffffffffffffffffffffffffffffffffffff1673ffffffffffffffffffffffffffffffffffffffff1673ffffffffffffffffffffffffffffffffffffffff16815260200160028201548152602001600382018054610b5190613a91565b80601f0160208091040260200160405190810160405280929190818152602001828054610b7d90613a91565b8015610bca5780601f10610b9f57610100808354040283529160200191610bca565b820191906000526020600020905b815481529060010190602001808311610bad57829003601f168201915b50505050508152505081526020019060010190610ab4565b50505050815260200160098201805480602002602001604051908101604052809291908181526020016000905b82821015610cbc5783829060005260206000209060020201604051806060016040529081600082015481526020016001820160009054906101000a900473ffffffffffffffffffffffffffffffffffffffff1673ffffffffffffffffffffffffffffffffffffffff1673ffffffffffffffffffffffffffffffffffffffff1681526020016001820160149054906101000a900460ff16151515158152505081526020019060010190610c0f565b505050508152602001600a82018054610cd490613a91565b80601f0160208091040260200160405190810160405280929190818152602001828054610d0090613a91565b8015610d4d5780601f10610d2257610100808354040283529160200191610d4d565b820191906000526020600020905b815481529060010190602001808311610d3057829003601f168201915b505050505081525050815260200190600101906108bf565b50505050905090565b6060600060038054905067ffffffffffffffff811115610d9157610d90612cc0565b5b604051908082528060200260200182016040528015610dca57816020015b610db7612b04565b815260200190600190039081610daf5790505b5090506000805b600480549050811015611ba5573373ffffffffffffffffffffffffffffffffffffffff1660038281548110610e0957610e086138dc565b5b90600052602060002090600b020160010160009054906101000a900473ffffffffffffffffffffffffffffffffffffffff1673ffffffffffffffffffffffffffffffffffffffff160361148857604051806040016040528060038381548110610e7557610e746138dc565b5b90600052602060002090600b020160405180610160016040529081600082015481526020016001820160009054906101000a900473ffffffffffffffffffffffffffffffffffffffff1673ffffffffffffffffffffffffffffffffffffffff1673ffffffffffffffffffffffffffffffffffffffff16815260200160028201548152602001600382018054610f0990613a91565b80601f0160208091040260200160405190810160405280929190818152602001828054610f3590613a91565b8015610f825780601f10610f5757610100808354040283529160200191610f82565b820191906000526020600020905b815481529060010190602001808311610f6557829003601f168201915b50505050508152602001600482018054610f9b90613a91565b80601f0160208091040260200160405190810160405280929190818152602001828054610fc790613a91565b80156110145780601f10610fe957610100808354040283529160200191611014565b820191906000526020600020905b815481529060010190602001808311610ff757829003601f168201915b5050505050815260200160058201548152602001600682015481526020016007820154815260200160088201805480602002602001604051908101604052809291908181526020016000905b8282101561118e5783829060005260206000209060040201604051806080016040529081600082015481526020016001820160009054906101000a900473ffffffffffffffffffffffffffffffffffffffff1673ffffffffffffffffffffffffffffffffffffffff1673ffffffffffffffffffffffffffffffffffffffff168152602001600282015481526020016003820180546110fd90613a91565b80601f016020809104026020016040519081016040528092919081815260200182805461112990613a91565b80156111765780601f1061114b57610100808354040283529160200191611176565b820191906000526020600020905b81548152906001019060200180831161115957829003601f168201915b50505050508152505081526020019060010190611060565b50505050815260200160098201805480602002602001604051908101604052809291908181526020016000905b828210156112685783829060005260206000209060020201604051806060016040529081600082015481526020016001820160009054906101000a900473ffffffffffffffffffffffffffffffffffffffff1673ffffffffffffffffffffffffffffffffffffffff1673ffffffffffffffffffffffffffffffffffffffff1681526020016001820160149054906101000a900460ff161515151581525050815260200190600101906111bb565b505050508152602001600a8201805461128090613a91565b80601f01602080910402602001604051908101604052809291908181526020018280546112ac90613a91565b80156112f95780601f106112ce576101008083540402835291602001916112f9565b820191906000526020600020905b8154815290600101906020018083116112dc57829003601f168201915b50505050508152505081526020016004838154811061131b5761131a6138dc565b5b906000526020600020906002020160405180604001604052908160008201805461134490613a91565b80601f016020809104026020016040519081016040528092919081815260200182805461137090613a91565b80156113bd5780601f10611392576101008083540402835291602001916113bd565b820191906000526020600020905b8154815290600101906020018083116113a057829003601f168201915b505050505081526020016001820180548060200260200160405190810160405280929190818152602001828054801561144b57602002820191906000526020600020905b8160009054906101000a900473ffffffffffffffffffffffffffffffffffffffff1673ffffffffffffffffffffffffffffffffffffffff1681526020019060010190808311611401575b50505050508152505081525083838151811061146a576114696138dc565b5b602002602001018190525081806114809061396e565b925050611b92565b60005b6004828154811061149f5761149e6138dc565b5b906000526020600020906002020160010180549050811015611b90573373ffffffffffffffffffffffffffffffffffffffff16600483815481106114e6576114e56138dc565b5b90600052602060002090600202016001018281548110611509576115086138dc565b5b9060005260206000200160009054906101000a900473ffffffffffffffffffffffffffffffffffffffff1673ffffffffffffffffffffffffffffffffffffffff1603611b7d5760405180604001604052806003848154811061156e5761156d6138dc565b5b90600052602060002090600b020160405180610160016040529081600082015481526020016001820160009054906101000a900473ffffffffffffffffffffffffffffffffffffffff1673ffffffffffffffffffffffffffffffffffffffff1673ffffffffffffffffffffffffffffffffffffffff1681526020016002820154815260200160038201805461160290613a91565b80601f016020809104026020016040519081016040528092919081815260200182805461162e90613a91565b801561167b5780601f106116505761010080835404028352916020019161167b565b820191906000526020600020905b81548152906001019060200180831161165e57829003601f168201915b5050505050815260200160048201805461169490613a91565b80601f01602080910402602001604051908101604052809291908181526020018280546116c090613a91565b801561170d5780601f106116e25761010080835404028352916020019161170d565b820191906000526020600020905b8154815290600101906020018083116116f057829003601f168201915b5050505050815260200160058201548152602001600682015481526020016007820154815260200160088201805480602002602001604051908101604052809291908181526020016000905b828210156118875783829060005260206000209060040201604051806080016040529081600082015481526020016001820160009054906101000a900473ffffffffffffffffffffffffffffffffffffffff1673ffffffffffffffffffffffffffffffffffffffff1673ffffffffffffffffffffffffffffffffffffffff168152602001600282015481526020016003820180546117f690613a91565b80601f016020809104026020016040519081016040528092919081815260200182805461182290613a91565b801561186f5780601f106118445761010080835404028352916020019161186f565b820191906000526020600020905b81548152906001019060200180831161185257829003601f168201915b50505050508152505081526020019060010190611759565b50505050815260200160098201805480602002602001604051908101604052809291908181526020016000905b828210156119615783829060005260206000209060020201604051806060016040529081600082015481526020016001820160009054906101000a900473ffffffffffffffffffffffffffffffffffffffff1673ffffffffffffffffffffffffffffffffffffffff1673ffffffffffffffffffffffffffffffffffffffff1681526020016001820160149054906101000a900460ff161515151581525050815260200190600101906118b4565b505050508152602001600a8201805461197990613a91565b80601f01602080910402602001604051908101604052809291908181526020018280546119a590613a91565b80156119f25780601f106119c7576101008083540402835291602001916119f2565b820191906000526020600020905b8154815290600101906020018083116119d557829003601f168201915b505050505081525050815260200160048481548110611a1457611a136138dc565b5b9060005260206000209060020201604051806040016040529081600082018054611a3d90613a91565b80601f0160208091040260200160405190810160405280929190818152602001828054611a6990613a91565b8015611ab65780601f10611a8b57610100808354040283529160200191611ab6565b820191906000526020600020905b815481529060010190602001808311611a9957829003601f168201915b5050505050815260200160018201805480602002602001604051908101604052809291908181526020018280548015611b4457602002820191906000526020600020905b8160009054906101000a900473ffffffffffffffffffffffffffffffffffffffff1673ffffffffffffffffffffffffffffffffffffffff1681526020019060010190808311611afa575b505050505081525050815250848481518110611b6357611b626138dc565b5b60200260200101819052508280611b799061396e565b9350505b8080611b889061396e565b91505061148b565b505b8080611b9d9061396e565b915050610dd1565b50808252819250505090565b3373ffffffffffffffffffffffffffffffffffffffff168373ffffffffffffffffffffffffffffffffffffffff1603611c1f576040517f08c379a0000000000000000000000000000000000000000000000000000000008152600401611c1690613db2565b60405180910390fd5b611c2b826103e86129eb565b60056040518060a001604052803373ffffffffffffffffffffffffffffffffffffffff1681526020018573ffffffffffffffffffffffffffffffffffffffff168152602001428152602001848152602001831515815250908060018154018082558091505060019003906000526020600020906005020160009091909190915060008201518160000160006101000a81548173ffffffffffffffffffffffffffffffffffffffff021916908373ffffffffffffffffffffffffffffffffffffffff16021790555060208201518160010160006101000a81548173ffffffffffffffffffffffffffffffffffffffff021916908373ffffffffffffffffffffffffffffffffffffffff160217905550604082015181600201556060820151816003019081611d589190613c6e565b5060808201518160040160006101000a81548160ff0219169083151502179055505050505050565b3373ffffffffffffffffffffffffffffffffffffffff1660038281548110611dab57611daa6138dc565b5b90600052602060002090600b020160010160009054906101000a900473ffffffffffffffffffffffffffffffffffffffff1673ffffffffffffffffffffffffffffffffffffffff1603611e33576040517f08c379a0000000000000000000000000000000000000000000000000000000008152600401611e2a90613e44565b60405180910390fd5b3460038281548110611e4857611e476138dc565b5b90600052602060002090600b02016002015414611e9a576040517f08c379a0000000000000000000000000000000000000000000000000000000008152600401611e9190613eb0565b60405180910390fd5b60038181548110611eae57611ead6138dc565b5b90600052602060002090600b02016007015460038281548110611ed457611ed36138dc565b5b90600052602060002090600b02016006015411611f26576040517f08c379a0000000000000000000000000000000000000000000000000000000008152600401611f1d90613f1c565b60405180910390fd5b60005b60048281548110611f3d57611f3c6138dc565b5b90600052602060002090600202016001018054905081101561203b573373ffffffffffffffffffffffffffffffffffffffff1660048381548110611f8457611f836138dc565b5b90600052602060002090600202016001018281548110611fa757611fa66138dc565b5b9060005260206000200160009054906101000a900473ffffffffffffffffffffffffffffffffffffffff1673ffffffffffffffffffffffffffffffffffffffff1603612028576040517f08c379a000000000000000000000000000000000000000000000000000000000815260040161201f90613f88565b60405180910390fd5b80806120339061396e565b915050611f29565b50600060038281548110612052576120516138dc565b5b90600052602060002090600b020160010160009054906101000a900473ffffffffffffffffffffffffffffffffffffffff1673ffffffffffffffffffffffffffffffffffffffff16346040516120a790613fd9565b60006040518083038185875af1925050503d80600081146120e4576040519150601f19603f3d011682016040523d82523d6000602084013e6120e9565b606091505b505090508061212d576040517f08c379a00000000000000000000000000000000000000000000000000000000081526004016121249061403a565b60405180910390fd5b600160038381548110612143576121426138dc565b5b90600052602060002090600b02016007016000828254612163919061393a565b925050819055506004828154811061217e5761217d6138dc565b5b9060005260206000209060020201600101339080600181540180825580915050600190039060005260206000200160009091909190916101000a81548173ffffffffffffffffffffffffffffffffffffffff021916908373ffffffffffffffffffffffffffffffffffffffff1602179055505050565b6060600060058054905067ffffffffffffffff81111561221757612216612cc0565b5b60405190808252806020026020018201604052801561225057816020015b61223d612b2a565b8152602001906001900390816122355790505b5090506000805b6005805490508110156124ac578473ffffffffffffffffffffffffffffffffffffffff166005828154811061228f5761228e6138dc565b5b906000526020600020906005020160010160009054906101000a900473ffffffffffffffffffffffffffffffffffffffff1673ffffffffffffffffffffffffffffffffffffffff160361249957600581815481106122f0576122ef6138dc565b5b90600052602060002090600502016040518060a00160405290816000820160009054906101000a900473ffffffffffffffffffffffffffffffffffffffff1673ffffffffffffffffffffffffffffffffffffffff1673ffffffffffffffffffffffffffffffffffffffff1681526020016001820160009054906101000a900473ffffffffffffffffffffffffffffffffffffffff1673ffffffffffffffffffffffffffffffffffffffff1673ffffffffffffffffffffffffffffffffffffffff168152602001600282015481526020016003820180546123cf90613a91565b80601f01602080910402602001604051908101604052809291908181526020018280546123fb90613a91565b80156124485780601f1061241d57610100808354040283529160200191612448565b820191906000526020600020905b81548152906001019060200180831161242b57829003601f168201915b505050505081526020016004820160009054906101000a900460ff16151515158152505083838151811061247f5761247e6138dc565b5b602002602001018190525081806124959061396e565b9250505b80806124a49061396e565b915050612257565b508082528192505050919050565b60005b600382815481106124d1576124d06138dc565b5b90600052602060002090600b0201600901805490508110156126ca573373ffffffffffffffffffffffffffffffffffffffff1660038381548110612518576125176138dc565b5b90600052602060002090600b0201600901828154811061253b5761253a6138dc565b5b906000526020600020906002020160010160009054906101000a900473ffffffffffffffffffffffffffffffffffffffff1673ffffffffffffffffffffffffffffffffffffffff16036126b75760011515600383815481106125a05761259f6138dc565b5b90600052602060002090600b020160090182815481106125c3576125c26138dc565b5b906000526020600020906002020160010160149054906101000a900460ff16151503612650576000600383815481106125ff576125fe6138dc565b5b90600052602060002090600b02016009018281548110612622576126216138dc565b5b906000526020600020906002020160010160146101000a81548160ff02191690831515021790555050612706565b600160038381548110612666576126656138dc565b5b90600052602060002090600b02016009018281548110612689576126886138dc565b5b906000526020600020906002020160010160146101000a81548160ff02191690831515021790555050612706565b80806126c29061396e565b9150506124bd565b506040517f08c379a00000000000000000000000000000000000000000000000000000000081526004016126fd90613a42565b60405180910390fd5b50565b3373ffffffffffffffffffffffffffffffffffffffff1660038381548110612734576127336138dc565b5b90600052602060002090600b020160010160009054906101000a900473ffffffffffffffffffffffffffffffffffffffff1673ffffffffffffffffffffffffffffffffffffffff16036127bc576040517f08c379a00000000000000000000000000000000000000000000000000000000081526004016127b390613e44565b60405180910390fd5b60005b600383815481106127d3576127d26138dc565b5b90600052602060002090600b0201600901805490508110156128d8573373ffffffffffffffffffffffffffffffffffffffff166003848154811061281a576128196138dc565b5b90600052602060002090600b0201600901828154811061283d5761283c6138dc565b5b906000526020600020906002020160010160009054906101000a900473ffffffffffffffffffffffffffffffffffffffff1673ffffffffffffffffffffffffffffffffffffffff16036128c5576040517f08c379a00000000000000000000000000000000000000000000000000000000081526004016128bc906140a6565b60405180910390fd5b80806128d09061396e565b9150506127bf565b50600382815481106128ed576128ec6138dc565b5b90600052602060002090600b0201600901604051806060016040528060015481526020013373ffffffffffffffffffffffffffffffffffffffff16815260200183151581525090806001815401808255809150506001900390600052602060002090600202016000909190919091506000820151816000015560208201518160010160006101000a81548173ffffffffffffffffffffffffffffffffffffffff021916908373ffffffffffffffffffffffffffffffffffffffff16021790555060408201518160010160146101000a81548160ff0219169083151502179055505050600260008154809291906129e29061396e565b91905055505050565b8082511115612a2f576040517f08c379a0000000000000000000000000000000000000000000000000000000008152600401612a2690614138565b60405180910390fd5b5050565b80821115612a76576040517f08c379a0000000000000000000000000000000000000000000000000000000008152600401612a6d906141ca565b60405180910390fd5b5050565b828054828255906000526020600020908101928215612af3579160200282015b82811115612af25782518260006101000a81548173ffffffffffffffffffffffffffffffffffffffff021916908373ffffffffffffffffffffffffffffffffffffffff16021790555091602001919060010190612a9a565b5b509050612b009190612b87565b5090565b6040518060400160405280612b17612ba4565b8152602001612b24612c14565b81525090565b6040518060a00160405280600073ffffffffffffffffffffffffffffffffffffffff168152602001600073ffffffffffffffffffffffffffffffffffffffff16815260200160008152602001606081526020016000151581525090565b5b80821115612ba0576000816000905550600101612b88565b5090565b60405180610160016040528060008152602001600073ffffffffffffffffffffffffffffffffffffffff1681526020016000815260200160608152602001606081526020016000815260200160008152602001600081526020016060815260200160608152602001606081525090565b604051806040016040528060608152602001606081525090565b6000604051905090565b600080fd5b600080fd5b6000819050919050565b612c5581612c42565b8114612c6057600080fd5b50565b600081359050612c7281612c4c565b92915050565b600060208284031215612c8e57612c8d612c38565b5b6000612c9c84828501612c63565b91505092915050565b600080fd5b600080fd5b6000601f19601f8301169050919050565b7f4e487b7100000000000000000000000000000000000000000000000000000000600052604160045260246000fd5b612cf882612caf565b810181811067ffffffffffffffff82111715612d1757612d16612cc0565b5b80604052505050565b6000612d2a612c2e565b9050612d368282612cef565b919050565b600067ffffffffffffffff821115612d5657612d55612cc0565b5b612d5f82612caf565b9050602081019050919050565b82818337600083830152505050565b6000612d8e612d8984612d3b565b612d20565b905082815260208101848484011115612daa57612da9612caa565b5b612db5848285612d6c565b509392505050565b600082601f830112612dd257612dd1612ca5565b5b8135612de2848260208601612d7b565b91505092915050565b60008060408385031215612e0257612e01612c38565b5b6000612e1085828601612c63565b925050602083013567ffffffffffffffff811115612e3157612e30612c3d565b5b612e3d85828601612dbd565b9150509250929050565b60008060008060008060c08789031215612e6457612e63612c38565b5b6000612e7289828a01612c63565b965050602087013567ffffffffffffffff811115612e9357612e92612c3d565b5b612e9f89828a01612dbd565b955050604087013567ffffffffffffffff811115612ec057612ebf612c3d565b5b612ecc89828a01612dbd565b9450506060612edd89828a01612c63565b935050608087013567ffffffffffffffff811115612efe57612efd612c3d565b5b612f0a89828a01612dbd565b92505060a087013567ffffffffffffffff811115612f2b57612f2a612c3d565b5b612f3789828a01612dbd565b9150509295509295509295565b600081519050919050565b600082825260208201905092915050565b6000819050602082019050919050565b612f7981612c42565b82525050565b600073ffffffffffffffffffffffffffffffffffffffff82169050919050565b6000612faa82612f7f565b9050919050565b612fba81612f9f565b82525050565b600081519050919050565b600082825260208201905092915050565b60005b83811015612ffa578082015181840152602081019050612fdf565b60008484015250505050565b600061301182612fc0565b61301b8185612fcb565b935061302b818560208601612fdc565b61303481612caf565b840191505092915050565b600081519050919050565b600082825260208201905092915050565b6000819050602082019050919050565b60006080830160008301516130836000860182612f70565b5060208301516130966020860182612fb1565b5060408301516130a96040860182612f70565b50606083015184820360608601526130c18282613006565b9150508091505092915050565b60006130da838361306b565b905092915050565b6000602082019050919050565b60006130fa8261303f565b613104818561304a565b9350836020820285016131168561305b565b8060005b85811015613152578484038952815161313385826130ce565b945061313e836130e2565b925060208a0199505060018101905061311a565b50829750879550505050505092915050565b600081519050919050565b600082825260208201905092915050565b6000819050602082019050919050565b60008115159050919050565b6131a581613190565b82525050565b6060820160008201516131c16000850182612f70565b5060208201516131d46020850182612fb1565b5060408201516131e7604085018261319c565b50505050565b60006131f983836131ab565b60608301905092915050565b6000602082019050919050565b600061321d82613164565b613227818561316f565b935061323283613180565b8060005b8381101561326357815161324a88826131ed565b975061325583613205565b925050600181019050613236565b5085935050505092915050565b6000610160830160008301516132896000860182612f70565b50602083015161329c6020860182612fb1565b5060408301516132af6040860182612f70565b50606083015184820360608601526132c78282613006565b915050608083015184820360808601526132e18282613006565b91505060a08301516132f660a0860182612f70565b5060c083015161330960c0860182612f70565b5060e083015161331c60e0860182612f70565b5061010083015184820361010086015261333682826130ef565b9150506101208301518482036101208601526133528282613212565b91505061014083015184820361014086015261336e8282613006565b9150508091505092915050565b60006133878383613270565b905092915050565b6000602082019050919050565b60006133a782612f44565b6133b18185612f4f565b9350836020820285016133c385612f60565b8060005b858110156133ff57848403895281516133e0858261337b565b94506133eb8361338f565b925060208a019950506001810190506133c7565b50829750879550505050505092915050565b6000602082019050818103600083015261342b818461339c565b905092915050565b600081519050919050565b600082825260208201905092915050565b6000819050602082019050919050565b600081519050919050565b600082825260208201905092915050565b6000819050602082019050919050565b60006134978383612fb1565b60208301905092915050565b6000602082019050919050565b60006134bb8261345f565b6134c5818561346a565b93506134d08361347b565b8060005b838110156135015781516134e8888261348b565b97506134f3836134a3565b9250506001810190506134d4565b5085935050505092915050565b6000604083016000830151848203600086015261352b8282613006565b9150506020830151848203602086015261354582826134b0565b9150508091505092915050565b6000604083016000830151848203600086015261356f8282613270565b91505060208301518482036020860152613589828261350e565b9150508091505092915050565b60006135a28383613552565b905092915050565b6000602082019050919050565b60006135c282613433565b6135cc818561343e565b9350836020820285016135de8561344f565b8060005b8581101561361a57848403895281516135fb8582613596565b9450613606836135aa565b925060208a019950506001810190506135e2565b50829750879550505050505092915050565b6000602082019050818103600083015261364681846135b7565b905092915050565b61365781612f9f565b811461366257600080fd5b50565b6000813590506136748161364e565b92915050565b61368381613190565b811461368e57600080fd5b50565b6000813590506136a08161367a565b92915050565b6000806000606084860312156136bf576136be612c38565b5b60006136cd86828701613665565b935050602084013567ffffffffffffffff8111156136ee576136ed612c3d565b5b6136fa86828701612dbd565b925050604061370b86828701613691565b9150509250925092565b60006020828403121561372b5761372a612c38565b5b600061373984828501613665565b91505092915050565b600081519050919050565b600082825260208201905092915050565b6000819050602082019050919050565b600060a0830160008301516137866000860182612fb1565b5060208301516137996020860182612fb1565b5060408301516137ac6040860182612f70565b50606083015184820360608601526137c48282613006565b91505060808301516137d9608086018261319c565b508091505092915050565b60006137f0838361376e565b905092915050565b6000602082019050919050565b600061381082613742565b61381a818561374d565b93508360208202850161382c8561375e565b8060005b85811015613868578484038952815161384985826137e4565b9450613854836137f8565b925060208a01995050600181019050613830565b50829750879550505050505092915050565b600060208201905081810360008301526138948184613805565b905092915050565b600080604083850312156138b3576138b2612c38565b5b60006138c185828601612c63565b92505060206138d285828601613691565b9150509250929050565b7f4e487b7100000000000000000000000000000000000000000000000000000000600052603260045260246000fd5b7f4e487b7100000000000000000000000000000000000000000000000000000000600052601160045260246000fd5b600061394582612c42565b915061395083612c42565b92508282019050808211156139685761396761390b565b5b92915050565b600061397982612c42565b91507fffffffffffffffffffffffffffffffffffffffffffffffffffffffffffffffff82036139ab576139aa61390b565b5b600182019050919050565b7f4e487b7100000000000000000000000000000000000000000000000000000000600052603160045260246000fd5b600082825260208201905092915050565b7f596f7520646f6e2774206861766520616e792072617465000000000000000000600082015250565b6000613a2c6017836139e5565b9150613a37826139f6565b602082019050919050565b60006020820190508181036000830152613a5b81613a1f565b9050919050565b7f4e487b7100000000000000000000000000000000000000000000000000000000600052602260045260246000fd5b60006002820490506001821680613aa957607f821691505b602082108103613abc57613abb613a62565b5b50919050565b60008190508160005260206000209050919050565b60006020601f8301049050919050565b600082821b905092915050565b600060088302613b247fffffffffffffffffffffffffffffffffffffffffffffffffffffffffffffffff82613ae7565b613b2e8683613ae7565b95508019841693508086168417925050509392505050565b6000819050919050565b6000613b6b613b66613b6184612c42565b613b46565b612c42565b9050919050565b6000819050919050565b613b8583613b50565b613b99613b9182613b72565b848454613af4565b825550505050565b600090565b613bae613ba1565b613bb9818484613b7c565b505050565b5b81811015613bdd57613bd2600082613ba6565b600181019050613bbf565b5050565b601f821115613c2257613bf381613ac2565b613bfc84613ad7565b81016020851015613c0b578190505b613c1f613c1785613ad7565b830182613bbe565b50505b505050565b600082821c905092915050565b6000613c4560001984600802613c27565b1980831691505092915050565b6000613c5e8383613c34565b9150826002028217905092915050565b613c7782612fc0565b67ffffffffffffffff811115613c9057613c8f612cc0565b5b613c9a8254613a91565b613ca5828285613be1565b600060209050601f831160018114613cd85760008415613cc6578287015190505b613cd08582613c52565b865550613d38565b601f198416613ce686613ac2565b60005b82811015613d0e57848901518255600182019150602085019450602081019050613ce9565b86831015613d2b5784890151613d27601f891682613c34565b8355505b6001600288020188555050505b505050505050565b7f596f752063616e6e6f7420616464206f70696e696f6e20746f20796f7572206160008201527f63636f756e740000000000000000000000000000000000000000000000000000602082015250565b6000613d9c6026836139e5565b9150613da782613d40565b604082019050919050565b60006020820190508181036000830152613dcb81613d8f565b9050919050565b7f596f7520617265206f776e6572206f6620746869732073656372657420696e6660008201527f6f00000000000000000000000000000000000000000000000000000000000000602082015250565b6000613e2e6021836139e5565b9150613e3982613dd2565b604082019050919050565b60006020820190508181036000830152613e5d81613e21565b9050919050565b7f57726f6e6720616d6f756e742076616c75650000000000000000000000000000600082015250565b6000613e9a6012836139e5565b9150613ea582613e64565b602082019050919050565b60006020820190508181036000830152613ec981613e8d565b9050919050565b7f537570706c7920686173206265656e2075736564000000000000000000000000600082015250565b6000613f066014836139e5565b9150613f1182613ed0565b602082019050919050565b60006020820190508181036000830152613f3581613ef9565b9050919050565b7f596f7520616c7265616479207061696420666f72207468697320696e666f0000600082015250565b6000613f72601e836139e5565b9150613f7d82613f3c565b602082019050919050565b60006020820190508181036000830152613fa181613f65565b9050919050565b600081905092915050565b50565b6000613fc3600083613fa8565b9150613fce82613fb3565b600082019050919050565b6000613fe482613fb6565b9150819050919050565b7f4661696c656420746f2073656e64204574686572000000000000000000000000600082015250565b60006140246014836139e5565b915061402f82613fee565b602082019050919050565b6000602082019050818103600083015261405381614017565b9050919050565b7f596f7520616c72656164792072617465207468697320696e666f000000000000600082015250565b6000614090601a836139e5565b915061409b8261405a565b602082019050919050565b600060208201905081810360008301526140bf81614083565b9050919050565b7f537472696e67206c656e677468206578636565647320746865206d6178696d7560008201527f6d20616c6c6f7765640000000000000000000000000000000000000000000000602082015250565b60006141226029836139e5565b915061412d826140c6565b604082019050919050565b6000602082019050818103600083015261415181614115565b9050919050565b7f4e756d626572206578636565647320746865206d6178696d756d20616c6c6f7760008201527f6564000000000000000000000000000000000000000000000000000000000000602082015250565b60006141b46022836139e5565b91506141bf82614158565b604082019050919050565b600060208201905081810360008301526141e3816141a7565b905091905056fea264697066735822122053bdd7016f7d50c32c4543e8ec36917fcf6efb41d5887e7099218a20854d795664736f6c63430008120033",
  "linkReferences": {},
  "deployedLinkReferences": {}
}