{
  "_format": "hh-sol-artifact-1",
  "contractName": "PassingSecretInfo",
  "sourceName": "contracts/PassingSecretInfo.sol",
  "abi": [
    {
      "inputs": [],
      "stateMutability": "nonpayable",
      "type": "constructor"
    },
    {
      "inputs": [
        {
          "internalType": "address",
          "name": "account_address",
          "type": "address"
        },
        {
          "internalType": "string",
          "name": "_content",
          "type": "string"
        },
        {
          "internalType": "bool",
          "name": "_rate",
          "type": "bool"
        }
      ],
      "name": "addAccountOpinion",
      "outputs": [],
      "stateMutability": "nonpayable",
      "type": "function"
    },
    {
      "inputs": [
        {
          "internalType": "uint256",
          "name": "_amount",
          "type": "uint256"
        },
        {
          "internalType": "string",
          "name": "_title",
          "type": "string"
        },
        {
          "internalType": "string",
          "name": "_description",
          "type": "string"
        },
        {
          "internalType": "string",
          "name": "_zero_knowledge_proof",
          "type": "string"
        },
        {
          "internalType": "uint256",
          "name": "_max_uses",
          "type": "uint256"
        },
        {
          "internalType": "string",
          "name": "_info",
          "type": "string"
        }
      ],
      "name": "addSecretInfo",
      "outputs": [],
      "stateMutability": "nonpayable",
      "type": "function"
    },
    {
      "inputs": [
        {
          "internalType": "uint256",
          "name": "_secret_info_id",
          "type": "uint256"
        },
        {
          "internalType": "bool",
          "name": "_rate",
          "type": "bool"
        }
      ],
      "name": "addSecretInfoRate",
      "outputs": [],
      "stateMutability": "nonpayable",
      "type": "function"
    },
    {
      "inputs": [
        {
          "internalType": "uint256",
          "name": "_secret_info_id",
          "type": "uint256"
        },
        {
          "internalType": "string",
          "name": "_content",
          "type": "string"
        }
      ],
      "name": "addSecretInfoReply",
      "outputs": [],
      "stateMutability": "nonpayable",
      "type": "function"
    },
    {
      "inputs": [
        {
          "internalType": "uint256",
          "name": "_secret_info_id",
          "type": "uint256"
        }
      ],
      "name": "changeSecretInfoRate",
      "outputs": [],
      "stateMutability": "nonpayable",
      "type": "function"
    },
    {
      "inputs": [],
      "name": "getAccessedIds",
      "outputs": [
        {
          "internalType": "uint256[]",
          "name": "",
          "type": "uint256[]"
        }
      ],
      "stateMutability": "view",
      "type": "function"
    },
    {
      "inputs": [
        {
          "internalType": "address",
          "name": "_account_address",
          "type": "address"
        }
      ],
      "name": "getAccountOpinionsByAddress",
      "outputs": [
        {
          "components": [
            {
              "internalType": "address",
              "name": "owner_address",
              "type": "address"
            },
            {
              "internalType": "address",
              "name": "account_address",
              "type": "address"
            },
            {
              "internalType": "string",
              "name": "content",
              "type": "string"
            },
            {
              "internalType": "uint256",
              "name": "created_at",
              "type": "uint256"
            },
            {
              "internalType": "bool",
              "name": "rate",
              "type": "bool"
            }
          ],
          "internalType": "struct PassingSecretInfoStructs.AccountOpinion[]",
          "name": "",
          "type": "tuple[]"
        }
      ],
      "stateMutability": "view",
      "type": "function"
    },
    {
      "inputs": [
        {
          "internalType": "uint256",
          "name": "_secret_info_id",
          "type": "uint256"
        }
      ],
      "name": "getSecretInfoAccessedById",
      "outputs": [
        {
          "internalType": "string",
          "name": "",
          "type": "string"
        }
      ],
      "stateMutability": "view",
      "type": "function"
    },
    {
      "inputs": [],
      "name": "getSecretInfos",
      "outputs": [
        {
          "components": [
            {
              "internalType": "uint256",
              "name": "id",
              "type": "uint256"
            },
            {
              "internalType": "address",
              "name": "owner_address",
              "type": "address"
            },
            {
              "internalType": "uint256",
              "name": "amount",
              "type": "uint256"
            },
            {
              "internalType": "string",
              "name": "title",
              "type": "string"
            },
            {
              "internalType": "string",
              "name": "description",
              "type": "string"
            },
            {
              "internalType": "string",
              "name": "zero_knowledge_proof",
              "type": "string"
            },
            {
              "internalType": "uint256",
              "name": "max_uses",
              "type": "uint256"
            },
            {
              "internalType": "uint256",
              "name": "current_uses",
              "type": "uint256"
            },
            {
              "internalType": "uint256",
              "name": "created_at",
              "type": "uint256"
            },
            {
              "components": [
                {
                  "internalType": "uint256",
                  "name": "id",
                  "type": "uint256"
                },
                {
                  "internalType": "address",
                  "name": "owner_address",
                  "type": "address"
                },
                {
                  "internalType": "string",
                  "name": "content",
                  "type": "string"
                },
                {
                  "internalType": "uint256",
                  "name": "created_at",
                  "type": "uint256"
                }
              ],
              "internalType": "struct Structs.Reply[]",
              "name": "replies",
              "type": "tuple[]"
            },
            {
              "components": [
                {
                  "internalType": "uint256",
                  "name": "id",
                  "type": "uint256"
                },
                {
                  "internalType": "address",
                  "name": "owner_address",
                  "type": "address"
                },
                {
                  "internalType": "bool",
                  "name": "rate",
                  "type": "bool"
                }
              ],
              "internalType": "struct Structs.Rate[]",
              "name": "rates",
              "type": "tuple[]"
            }
          ],
          "internalType": "struct PassingSecretInfoStructs.SecretInfo[]",
          "name": "",
          "type": "tuple[]"
        }
      ],
      "stateMutability": "view",
      "type": "function"
    },
    {
      "inputs": [],
      "name": "owner",
      "outputs": [
        {
          "internalType": "address",
          "name": "",
          "type": "address"
        }
      ],
      "stateMutability": "view",
      "type": "function"
    },
    {
      "inputs": [
        {
          "internalType": "uint256",
          "name": "_secret_info_id",
          "type": "uint256"
        }
      ],
      "name": "payForSecretInfoAccess",
      "outputs": [],
      "stateMutability": "payable",
      "type": "function"
    },
    {
      "inputs": [
        {
          "internalType": "uint256",
          "name": "_secret_info_id",
          "type": "uint256"
        }
      ],
      "name": "removeSecretInfoRate",
      "outputs": [],
      "stateMutability": "nonpayable",
      "type": "function"
    }
  ],
  "bytecode": "0x60a06040526000805560006001556000600255600060035534801561002357600080fd5b503373ffffffffffffffffffffffffffffffffffffffff1660808173ffffffffffffffffffffffffffffffffffffffff16815250506080516137c761007a60003960008181610bf401526112fe01526137c76000f3fe6080604052600436106100a75760003560e01c8063bff8148011610064578063bff81480146101a8578063cdd62f95146101e5578063d6e842e314610201578063d7b5565f1461023e578063e0898a1414610267578063eb71acd014610290576100a7565b8063048474af146100ac578063172ffbc5146100d5578063237fa7eb146100fe5780638da5cb5b1461012957806390a96b0914610154578063b05a943f1461017d575b600080fd5b3480156100b857600080fd5b506100d360048036038101906100ce9190612032565b6102b9565b005b3480156100e157600080fd5b506100fc60048036038101906100f791906121a5565b6105fd565b005b34801561010a57600080fd5b5061011361071f565b60405161012091906126ce565b60405180910390f35b34801561013557600080fd5b5061013e610bf2565b60405161014b91906126ff565b60405180910390f35b34801561016057600080fd5b5061017b60048036038101906101769190612772565b610c16565b005b34801561018957600080fd5b50610192610de8565b60405161019f9190612890565b60405180910390f35b3480156101b457600080fd5b506101cf60048036038101906101ca9190612032565b610e7d565b6040516101dc91906128fc565b60405180910390f35b6101ff60048036038101906101fa9190612032565b611026565b005b34801561020d57600080fd5b506102286004803603810190610223919061291e565b611561565b6040516102359190612a83565b60405180910390f35b34801561024a57600080fd5b5061026560048036038101906102609190612aa5565b611803565b005b34801561027357600080fd5b5061028e60048036038101906102899190612032565b6119d1565b005b34801561029c57600080fd5b506102b760048036038101906102b29190612ba2565b611c1a565b005b60005b600482815481106102d0576102cf612be2565b5b90600052602060002090600b0201600a01805490508110156105be573373ffffffffffffffffffffffffffffffffffffffff166004838154811061031757610316612be2565b5b90600052602060002090600b0201600a01828154811061033a57610339612be2565b5b906000526020600020906002020160010160009054906101000a900473ffffffffffffffffffffffffffffffffffffffff1673ffffffffffffffffffffffffffffffffffffffff16036105ab5760008190505b6001600484815481106103a3576103a2612be2565b5b90600052602060002090600b0201600a01805490506103c29190612c40565b81101561051357600483815481106103dd576103dc612be2565b5b90600052602060002090600b0201600a016001826103fb9190612c74565b8154811061040c5761040b612be2565b5b90600052602060002090600202016004848154811061042e5761042d612be2565b5b90600052602060002090600b0201600a01828154811061045157610450612be2565b5b9060005260206000209060020201600082015481600001556001820160009054906101000a900473ffffffffffffffffffffffffffffffffffffffff168160010160006101000a81548173ffffffffffffffffffffffffffffffffffffffff021916908373ffffffffffffffffffffffffffffffffffffffff1602179055506001820160149054906101000a900460ff168160010160146101000a81548160ff021916908315150217905550905050808061050b90612ca8565b91505061038d565b506004828154811061052857610527612be2565b5b90600052602060002090600b0201600a0180548061054957610548612cf0565b5b60019003818190600052602060002090600202016000808201600090556001820160006101000a81549073ffffffffffffffffffffffffffffffffffffffff02191690556001820160146101000a81549060ff021916905550509055506105fa565b80806105b690612ca8565b9150506102bc565b506040517f08c379a00000000000000000000000000000000000000000000000000000000081526004016105f190612d6b565b60405180910390fd5b50565b610609816103e8611efc565b6004828154811061061d5761061c612be2565b5b90600052602060002090600b0201600901604051806080016040528060015481526020013373ffffffffffffffffffffffffffffffffffffffff1681526020018381526020014281525090806001815401808255809150506001900390600052602060002090600402016000909190919091506000820151816000015560208201518160010160006101000a81548173ffffffffffffffffffffffffffffffffffffffff021916908373ffffffffffffffffffffffffffffffffffffffff16021790555060408201518160020190816106f69190612f97565b506060820151816003015550506001600081548092919061071690612ca8565b91905055505050565b60606004805480602002602001604051908101604052809291908181526020016000905b82821015610be957838290600052602060002090600b020160405180610160016040529081600082015481526020016001820160009054906101000a900473ffffffffffffffffffffffffffffffffffffffff1673ffffffffffffffffffffffffffffffffffffffff1673ffffffffffffffffffffffffffffffffffffffff168152602001600282015481526020016003820180546107e190612dba565b80601f016020809104026020016040519081016040528092919081815260200182805461080d90612dba565b801561085a5780601f1061082f5761010080835404028352916020019161085a565b820191906000526020600020905b81548152906001019060200180831161083d57829003601f168201915b5050505050815260200160048201805461087390612dba565b80601f016020809104026020016040519081016040528092919081815260200182805461089f90612dba565b80156108ec5780601f106108c1576101008083540402835291602001916108ec565b820191906000526020600020905b8154815290600101906020018083116108cf57829003601f168201915b5050505050815260200160058201805461090590612dba565b80601f016020809104026020016040519081016040528092919081815260200182805461093190612dba565b801561097e5780601f106109535761010080835404028352916020019161097e565b820191906000526020600020905b81548152906001019060200180831161096157829003601f168201915b5050505050815260200160068201548152602001600782015481526020016008820154815260200160098201805480602002602001604051908101604052809291908181526020016000905b82821015610af85783829060005260206000209060040201604051806080016040529081600082015481526020016001820160009054906101000a900473ffffffffffffffffffffffffffffffffffffffff1673ffffffffffffffffffffffffffffffffffffffff1673ffffffffffffffffffffffffffffffffffffffff168152602001600282018054610a5d90612dba565b80601f0160208091040260200160405190810160405280929190818152602001828054610a8990612dba565b8015610ad65780601f10610aab57610100808354040283529160200191610ad6565b820191906000526020600020905b815481529060010190602001808311610ab957829003601f168201915b50505050508152602001600382015481525050815260200190600101906109ca565b505050508152602001600a8201805480602002602001604051908101604052809291908181526020016000905b82821015610bd25783829060005260206000209060020201604051806060016040529081600082015481526020016001820160009054906101000a900473ffffffffffffffffffffffffffffffffffffffff1673ffffffffffffffffffffffffffffffffffffffff1673ffffffffffffffffffffffffffffffffffffffff1681526020016001820160149054906101000a900460ff16151515158152505081526020019060010190610b25565b505050508152505081526020019060010190610743565b50505050905090565b7f000000000000000000000000000000000000000000000000000000000000000081565b3373ffffffffffffffffffffffffffffffffffffffff168373ffffffffffffffffffffffffffffffffffffffff1603610c84576040517f08c379a0000000000000000000000000000000000000000000000000000000008152600401610c7b906130db565b60405180910390fd5b610c90826103e8611efc565b6040518060a001604052803373ffffffffffffffffffffffffffffffffffffffff1681526020018473ffffffffffffffffffffffffffffffffffffffff16815260200183815260200142815260200182151581525060066000600354815260200190815260200160002060008201518160000160006101000a81548173ffffffffffffffffffffffffffffffffffffffff021916908373ffffffffffffffffffffffffffffffffffffffff16021790555060208201518160010160006101000a81548173ffffffffffffffffffffffffffffffffffffffff021916908373ffffffffffffffffffffffffffffffffffffffff1602179055506040820151816002019081610d9d9190612f97565b506060820151816003015560808201518160040160006101000a81548160ff02191690831515021790555090505060036000815480929190610dde90612ca8565b9190505550505050565b6060600760003373ffffffffffffffffffffffffffffffffffffffff1673ffffffffffffffffffffffffffffffffffffffff168152602001908152602001600020805480602002602001604051908101604052809291908181526020018280548015610e7357602002820191906000526020600020905b815481526020019060010190808311610e5f575b5050505050905090565b606060005b600760003373ffffffffffffffffffffffffffffffffffffffff1673ffffffffffffffffffffffffffffffffffffffff16815260200190815260200160002080549050811015610fe55782600760003373ffffffffffffffffffffffffffffffffffffffff1673ffffffffffffffffffffffffffffffffffffffff1681526020019081526020016000208281548110610f1e57610f1d612be2565b5b906000526020600020015403610fd257600560008481526020019081526020016000208054610f4c90612dba565b80601f0160208091040260200160405190810160405280929190818152602001828054610f7890612dba565b8015610fc55780601f10610f9a57610100808354040283529160200191610fc5565b820191906000526020600020905b815481529060010190602001808311610fa857829003601f168201915b5050505050915050611021565b8080610fdd90612ca8565b915050610e82565b506040517f08c379a00000000000000000000000000000000000000000000000000000000081526004016110189061316d565b60405180910390fd5b919050565b3373ffffffffffffffffffffffffffffffffffffffff166004828154811061105157611050612be2565b5b90600052602060002090600b020160010160009054906101000a900473ffffffffffffffffffffffffffffffffffffffff1673ffffffffffffffffffffffffffffffffffffffff16036110d9576040517f08c379a00000000000000000000000000000000000000000000000000000000081526004016110d090613225565b60405180910390fd5b34600482815481106110ee576110ed612be2565b5b90600052602060002090600b02016002015414611140576040517f08c379a000000000000000000000000000000000000000000000000000000000815260040161113790613291565b60405180910390fd5b6004818154811061115457611153612be2565b5b90600052602060002090600b0201600701546004828154811061117a57611179612be2565b5b90600052602060002090600b020160060154116111cc576040517f08c379a00000000000000000000000000000000000000000000000000000000081526004016111c3906132fd565b60405180910390fd5b60005b600760003373ffffffffffffffffffffffffffffffffffffffff1673ffffffffffffffffffffffffffffffffffffffff168152602001908152602001600020805490508110156112c95781600760003373ffffffffffffffffffffffffffffffffffffffff1673ffffffffffffffffffffffffffffffffffffffff168152602001908152602001600020828154811061126b5761126a612be2565b5b9060005260206000200154036112b6576040517f08c379a00000000000000000000000000000000000000000000000000000000081526004016112ad9061338f565b60405180910390fd5b80806112c190612ca8565b9150506111cf565b5060006064600560ff16346112de91906133af565b6112e89190613420565b9050600081346112f89190612c40565b905060007f000000000000000000000000000000000000000000000000000000000000000073ffffffffffffffffffffffffffffffffffffffff168360405161134090613482565b60006040518083038185875af1925050503d806000811461137d576040519150601f19603f3d011682016040523d82523d6000602084013e611382565b606091505b50509050806113c6576040517f08c379a00000000000000000000000000000000000000000000000000000000081526004016113bd906134e3565b60405180910390fd5b6000600485815481106113dc576113db612be2565b5b90600052602060002090600b020160010160009054906101000a900473ffffffffffffffffffffffffffffffffffffffff1673ffffffffffffffffffffffffffffffffffffffff168360405161143190613482565b60006040518083038185875af1925050503d806000811461146e576040519150601f19603f3d011682016040523d82523d6000602084013e611473565b606091505b50509050806114b7576040517f08c379a00000000000000000000000000000000000000000000000000000000081526004016114ae9061354f565b60405180910390fd5b6001600486815481106114cd576114cc612be2565b5b90600052602060002090600b020160070160008282546114ed9190612c74565b92505081905550600760003373ffffffffffffffffffffffffffffffffffffffff1673ffffffffffffffffffffffffffffffffffffffff1681526020019081526020016000208590806001815401808255809150506001900390600052602060002001600090919091909150555050505050565b6060600060035467ffffffffffffffff8111156115815761158061207a565b5b6040519080825280602002602001820160405280156115ba57816020015b6115a7611f8b565b81526020019060019003908161159f5790505b5090506000805b6003548110156117f5578473ffffffffffffffffffffffffffffffffffffffff166006600083815260200190815260200160002060010160009054906101000a900473ffffffffffffffffffffffffffffffffffffffff1673ffffffffffffffffffffffffffffffffffffffff16036117e257600660008281526020019081526020016000206040518060a00160405290816000820160009054906101000a900473ffffffffffffffffffffffffffffffffffffffff1673ffffffffffffffffffffffffffffffffffffffff1673ffffffffffffffffffffffffffffffffffffffff1681526020016001820160009054906101000a900473ffffffffffffffffffffffffffffffffffffffff1673ffffffffffffffffffffffffffffffffffffffff1673ffffffffffffffffffffffffffffffffffffffff16815260200160028201805461170e90612dba565b80601f016020809104026020016040519081016040528092919081815260200182805461173a90612dba565b80156117875780601f1061175c57610100808354040283529160200191611787565b820191906000526020600020905b81548152906001019060200180831161176a57829003601f168201915b50505050508152602001600382015481526020016004820160009054906101000a900460ff1615151515815250508383815181106117c8576117c7612be2565b5b602002602001018190525081806117de90612ca8565b9250505b80806117ed90612ca8565b9150506115c1565b508082528192505050919050565b600060046001816001815401808255809150500390600052602060002090600b0201905061183b8769d3c21bcecceda1000000611f44565b6118468660fa611efc565b611852856103e8611efc565b6118668369d3c21bcecceda1000000611f44565b611872846103e8611efc565b61187e82612710611efc565b6000548160000181905550338160010160006101000a81548173ffffffffffffffffffffffffffffffffffffffff021916908373ffffffffffffffffffffffffffffffffffffffff160217905550868160020181905550858160030190816118e69190612f97565b50848160040190816118f89190612f97565b508381600501908161190a9190612f97565b508281600601819055506000816007018190555042816008018190555081600560008054815260200190815260200160002090816119489190612f97565b50600760003373ffffffffffffffffffffffffffffffffffffffff1673ffffffffffffffffffffffffffffffffffffffff16815260200190815260200160002060005490806001815401808255809150506001900390600052602060002001600090919091909150556000808154809291906119c390612ca8565b919050555050505050505050565b60005b600482815481106119e8576119e7612be2565b5b90600052602060002090600b0201600a0180549050811015611bdb573373ffffffffffffffffffffffffffffffffffffffff1660048381548110611a2f57611a2e612be2565b5b90600052602060002090600b0201600a018281548110611a5257611a51612be2565b5b906000526020600020906002020160010160009054906101000a900473ffffffffffffffffffffffffffffffffffffffff1673ffffffffffffffffffffffffffffffffffffffff1603611bc85760048281548110611ab357611ab2612be2565b5b90600052602060002090600b0201600a018181548110611ad657611ad5612be2565b5b906000526020600020906002020160010160149054906101000a900460ff1615611b6157600060048381548110611b1057611b0f612be2565b5b90600052602060002090600b0201600a018281548110611b3357611b32612be2565b5b906000526020600020906002020160010160146101000a81548160ff02191690831515021790555050611c17565b600160048381548110611b7757611b76612be2565b5b90600052602060002090600b0201600a018281548110611b9a57611b99612be2565b5b906000526020600020906002020160010160146101000a81548160ff02191690831515021790555050611c17565b8080611bd390612ca8565b9150506119d4565b506040517f08c379a0000000000000000000000000000000000000000000000000000000008152600401611c0e90612d6b565b60405180910390fd5b50565b3373ffffffffffffffffffffffffffffffffffffffff1660048381548110611c4557611c44612be2565b5b90600052602060002090600b020160010160009054906101000a900473ffffffffffffffffffffffffffffffffffffffff1673ffffffffffffffffffffffffffffffffffffffff1603611ccd576040517f08c379a0000000000000000000000000000000000000000000000000000000008152600401611cc4906135e1565b60405180910390fd5b60005b60048381548110611ce457611ce3612be2565b5b90600052602060002090600b0201600a0180549050811015611de9573373ffffffffffffffffffffffffffffffffffffffff1660048481548110611d2b57611d2a612be2565b5b90600052602060002090600b0201600a018281548110611d4e57611d4d612be2565b5b906000526020600020906002020160010160009054906101000a900473ffffffffffffffffffffffffffffffffffffffff1673ffffffffffffffffffffffffffffffffffffffff1603611dd6576040517f08c379a0000000000000000000000000000000000000000000000000000000008152600401611dcd9061364d565b60405180910390fd5b8080611de190612ca8565b915050611cd0565b5060048281548110611dfe57611dfd612be2565b5b90600052602060002090600b0201600a01604051806060016040528060015481526020013373ffffffffffffffffffffffffffffffffffffffff16815260200183151581525090806001815401808255809150506001900390600052602060002090600202016000909190919091506000820151816000015560208201518160010160006101000a81548173ffffffffffffffffffffffffffffffffffffffff021916908373ffffffffffffffffffffffffffffffffffffffff16021790555060408201518160010160146101000a81548160ff021916908315150217905550505060026000815480929190611ef390612ca8565b91905055505050565b8082511115611f40576040517f08c379a0000000000000000000000000000000000000000000000000000000008152600401611f37906136df565b60405180910390fd5b5050565b80821115611f87576040517f08c379a0000000000000000000000000000000000000000000000000000000008152600401611f7e90613771565b60405180910390fd5b5050565b6040518060a00160405280600073ffffffffffffffffffffffffffffffffffffffff168152602001600073ffffffffffffffffffffffffffffffffffffffff16815260200160608152602001600081526020016000151581525090565b6000604051905090565b600080fd5b600080fd5b6000819050919050565b61200f81611ffc565b811461201a57600080fd5b50565b60008135905061202c81612006565b92915050565b60006020828403121561204857612047611ff2565b5b60006120568482850161201d565b91505092915050565b600080fd5b600080fd5b6000601f19601f8301169050919050565b7f4e487b7100000000000000000000000000000000000000000000000000000000600052604160045260246000fd5b6120b282612069565b810181811067ffffffffffffffff821117156120d1576120d061207a565b5b80604052505050565b60006120e4611fe8565b90506120f082826120a9565b919050565b600067ffffffffffffffff8211156121105761210f61207a565b5b61211982612069565b9050602081019050919050565b82818337600083830152505050565b6000612148612143846120f5565b6120da565b90508281526020810184848401111561216457612163612064565b5b61216f848285612126565b509392505050565b600082601f83011261218c5761218b61205f565b5b813561219c848260208601612135565b91505092915050565b600080604083850312156121bc576121bb611ff2565b5b60006121ca8582860161201d565b925050602083013567ffffffffffffffff8111156121eb576121ea611ff7565b5b6121f785828601612177565b9150509250929050565b600081519050919050565b600082825260208201905092915050565b6000819050602082019050919050565b61223681611ffc565b82525050565b600073ffffffffffffffffffffffffffffffffffffffff82169050919050565b60006122678261223c565b9050919050565b6122778161225c565b82525050565b600081519050919050565b600082825260208201905092915050565b60005b838110156122b757808201518184015260208101905061229c565b60008484015250505050565b60006122ce8261227d565b6122d88185612288565b93506122e8818560208601612299565b6122f181612069565b840191505092915050565b600081519050919050565b600082825260208201905092915050565b6000819050602082019050919050565b6000608083016000830151612340600086018261222d565b506020830151612353602086018261226e565b506040830151848203604086015261236b82826122c3565b9150506060830151612380606086018261222d565b508091505092915050565b60006123978383612328565b905092915050565b6000602082019050919050565b60006123b7826122fc565b6123c18185612307565b9350836020820285016123d385612318565b8060005b8581101561240f57848403895281516123f0858261238b565b94506123fb8361239f565b925060208a019950506001810190506123d7565b50829750879550505050505092915050565b600081519050919050565b600082825260208201905092915050565b6000819050602082019050919050565b60008115159050919050565b6124628161244d565b82525050565b60608201600082015161247e600085018261222d565b506020820151612491602085018261226e565b5060408201516124a46040850182612459565b50505050565b60006124b68383612468565b60608301905092915050565b6000602082019050919050565b60006124da82612421565b6124e4818561242c565b93506124ef8361243d565b8060005b8381101561252057815161250788826124aa565b9750612512836124c2565b9250506001810190506124f3565b5085935050505092915050565b600061016083016000830151612546600086018261222d565b506020830151612559602086018261226e565b50604083015161256c604086018261222d565b506060830151848203606086015261258482826122c3565b9150506080830151848203608086015261259e82826122c3565b91505060a083015184820360a08601526125b882826122c3565b91505060c08301516125cd60c086018261222d565b5060e08301516125e060e086018261222d565b506101008301516125f561010086018261222d565b5061012083015184820361012086015261260f82826123ac565b91505061014083015184820361014086015261262b82826124cf565b9150508091505092915050565b6000612644838361252d565b905092915050565b6000602082019050919050565b600061266482612201565b61266e818561220c565b9350836020820285016126808561221d565b8060005b858110156126bc578484038952815161269d8582612638565b94506126a88361264c565b925060208a01995050600181019050612684565b50829750879550505050505092915050565b600060208201905081810360008301526126e88184612659565b905092915050565b6126f98161225c565b82525050565b600060208201905061271460008301846126f0565b92915050565b6127238161225c565b811461272e57600080fd5b50565b6000813590506127408161271a565b92915050565b61274f8161244d565b811461275a57600080fd5b50565b60008135905061276c81612746565b92915050565b60008060006060848603121561278b5761278a611ff2565b5b600061279986828701612731565b935050602084013567ffffffffffffffff8111156127ba576127b9611ff7565b5b6127c686828701612177565b92505060406127d78682870161275d565b9150509250925092565b600081519050919050565b600082825260208201905092915050565b6000819050602082019050919050565b6000612819838361222d565b60208301905092915050565b6000602082019050919050565b600061283d826127e1565b61284781856127ec565b9350612852836127fd565b8060005b8381101561288357815161286a888261280d565b975061287583612825565b925050600181019050612856565b5085935050505092915050565b600060208201905081810360008301526128aa8184612832565b905092915050565b600082825260208201905092915050565b60006128ce8261227d565b6128d881856128b2565b93506128e8818560208601612299565b6128f181612069565b840191505092915050565b6000602082019050818103600083015261291681846128c3565b905092915050565b60006020828403121561293457612933611ff2565b5b600061294284828501612731565b91505092915050565b600081519050919050565b600082825260208201905092915050565b6000819050602082019050919050565b600060a08301600083015161298f600086018261226e565b5060208301516129a2602086018261226e565b50604083015184820360408601526129ba82826122c3565b91505060608301516129cf606086018261222d565b5060808301516129e26080860182612459565b508091505092915050565b60006129f98383612977565b905092915050565b6000602082019050919050565b6000612a198261294b565b612a238185612956565b935083602082028501612a3585612967565b8060005b85811015612a715784840389528151612a5285826129ed565b9450612a5d83612a01565b925060208a01995050600181019050612a39565b50829750879550505050505092915050565b60006020820190508181036000830152612a9d8184612a0e565b905092915050565b60008060008060008060c08789031215612ac257612ac1611ff2565b5b6000612ad089828a0161201d565b965050602087013567ffffffffffffffff811115612af157612af0611ff7565b5b612afd89828a01612177565b955050604087013567ffffffffffffffff811115612b1e57612b1d611ff7565b5b612b2a89828a01612177565b945050606087013567ffffffffffffffff811115612b4b57612b4a611ff7565b5b612b5789828a01612177565b9350506080612b6889828a0161201d565b92505060a087013567ffffffffffffffff811115612b8957612b88611ff7565b5b612b9589828a01612177565b9150509295509295509295565b60008060408385031215612bb957612bb8611ff2565b5b6000612bc78582860161201d565b9250506020612bd88582860161275d565b9150509250929050565b7f4e487b7100000000000000000000000000000000000000000000000000000000600052603260045260246000fd5b7f4e487b7100000000000000000000000000000000000000000000000000000000600052601160045260246000fd5b6000612c4b82611ffc565b9150612c5683611ffc565b9250828203905081811115612c6e57612c6d612c11565b5b92915050565b6000612c7f82611ffc565b9150612c8a83611ffc565b9250828201905080821115612ca257612ca1612c11565b5b92915050565b6000612cb382611ffc565b91507fffffffffffffffffffffffffffffffffffffffffffffffffffffffffffffffff8203612ce557612ce4612c11565b5b600182019050919050565b7f4e487b7100000000000000000000000000000000000000000000000000000000600052603160045260246000fd5b7f596f7520646f6e2774206861766520616e792072617465000000000000000000600082015250565b6000612d556017836128b2565b9150612d6082612d1f565b602082019050919050565b60006020820190508181036000830152612d8481612d48565b9050919050565b7f4e487b7100000000000000000000000000000000000000000000000000000000600052602260045260246000fd5b60006002820490506001821680612dd257607f821691505b602082108103612de557612de4612d8b565b5b50919050565b60008190508160005260206000209050919050565b60006020601f8301049050919050565b600082821b905092915050565b600060088302612e4d7fffffffffffffffffffffffffffffffffffffffffffffffffffffffffffffffff82612e10565b612e578683612e10565b95508019841693508086168417925050509392505050565b6000819050919050565b6000612e94612e8f612e8a84611ffc565b612e6f565b611ffc565b9050919050565b6000819050919050565b612eae83612e79565b612ec2612eba82612e9b565b848454612e1d565b825550505050565b600090565b612ed7612eca565b612ee2818484612ea5565b505050565b5b81811015612f0657612efb600082612ecf565b600181019050612ee8565b5050565b601f821115612f4b57612f1c81612deb565b612f2584612e00565b81016020851015612f34578190505b612f48612f4085612e00565b830182612ee7565b50505b505050565b600082821c905092915050565b6000612f6e60001984600802612f50565b1980831691505092915050565b6000612f878383612f5d565b9150826002028217905092915050565b612fa08261227d565b67ffffffffffffffff811115612fb957612fb861207a565b5b612fc38254612dba565b612fce828285612f0a565b600060209050601f8311600181146130015760008415612fef578287015190505b612ff98582612f7b565b865550613061565b601f19841661300f86612deb565b60005b8281101561303757848901518255600182019150602085019450602081019050613012565b868310156130545784890151613050601f891682612f5d565b8355505b6001600288020188555050505b505050505050565b7f596f752063616e6e6f7420616464206f70696e696f6e20746f20796f7572206160008201527f63636f756e740000000000000000000000000000000000000000000000000000602082015250565b60006130c56026836128b2565b91506130d082613069565b604082019050919050565b600060208201905081810360008301526130f4816130b8565b9050919050565b7f596f7520646f6e277420686176652061636365737320746f207468697320736560008201527f6372657420696e666f0000000000000000000000000000000000000000000000602082015250565b60006131576029836128b2565b9150613162826130fb565b604082019050919050565b600060208201905081810360008301526131868161314a565b9050919050565b7f596f7520617265206f776e6572206f6620746869732073656372657420696e6660008201527f6f2c20796f752063616e6e6f742070617920666f7220796f757273207365637260208201527f657420696e666f73000000000000000000000000000000000000000000000000604082015250565b600061320f6048836128b2565b915061321a8261318d565b606082019050919050565b6000602082019050818103600083015261323e81613202565b9050919050565b7f57726f6e6720616d6f756e742076616c75650000000000000000000000000000600082015250565b600061327b6012836128b2565b915061328682613245565b602082019050919050565b600060208201905081810360008301526132aa8161326e565b9050919050565b7f537570706c7920686173206265656e2075736564000000000000000000000000600082015250565b60006132e76014836128b2565b91506132f2826132b1565b602082019050919050565b60006020820190508181036000830152613316816132da565b9050919050565b7f596f7520616c7265616479207061696420666f7220746869732073656372657460008201527f20696e666f000000000000000000000000000000000000000000000000000000602082015250565b60006133796025836128b2565b91506133848261331d565b604082019050919050565b600060208201905081810360008301526133a88161336c565b9050919050565b60006133ba82611ffc565b91506133c583611ffc565b92508282026133d381611ffc565b915082820484148315176133ea576133e9612c11565b5b5092915050565b7f4e487b7100000000000000000000000000000000000000000000000000000000600052601260045260246000fd5b600061342b82611ffc565b915061343683611ffc565b925082613446576134456133f1565b5b828204905092915050565b600081905092915050565b50565b600061346c600083613451565b91506134778261345c565b600082019050919050565b600061348d8261345f565b9150819050919050565b7f546178207472616e7366657220746f206f776e6572206661696c656400000000600082015250565b60006134cd601c836128b2565b91506134d882613497565b602082019050919050565b600060208201905081810360008301526134fc816134c0565b9050919050565b7f4661696c656420746f2073656e64204574686572000000000000000000000000600082015250565b60006135396014836128b2565b915061354482613503565b602082019050919050565b600060208201905081810360008301526135688161352c565b9050919050565b7f596f7520617265206f776e6572206f6620746869732073656372657420696e6660008201527f6f00000000000000000000000000000000000000000000000000000000000000602082015250565b60006135cb6021836128b2565b91506135d68261356f565b604082019050919050565b600060208201905081810360008301526135fa816135be565b9050919050565b7f596f7520616c72656164792072617465207468697320696e666f000000000000600082015250565b6000613637601a836128b2565b915061364282613601565b602082019050919050565b600060208201905081810360008301526136668161362a565b9050919050565b7f537472696e67206c656e677468206578636565647320746865206d6178696d7560008201527f6d20616c6c6f7765640000000000000000000000000000000000000000000000602082015250565b60006136c96029836128b2565b91506136d48261366d565b604082019050919050565b600060208201905081810360008301526136f8816136bc565b9050919050565b7f4e756d626572206578636565647320746865206d6178696d756d20616c6c6f7760008201527f6564000000000000000000000000000000000000000000000000000000000000602082015250565b600061375b6022836128b2565b9150613766826136ff565b604082019050919050565b6000602082019050818103600083015261378a8161374e565b905091905056fea26469706673582212205d8c719412d982a71d48e22e10c3bce6972b76fdea3d5bbf39eac4c260c3becf64736f6c63430008120033",
  "linkReferences": {},
  "deployedLinkReferences": {}
}