{
  "_format": "hh-sol-artifact-1",
  "contractName": "PassingSecretInfo",
  "sourceName": "contracts/PassingSecretInfo.sol",
  "abi": [
    {
      "inputs": [
        {
          "internalType": "address",
          "name": "account_address",
          "type": "address"
        },
        {
          "internalType": "string",
          "name": "_content",
          "type": "string"
        },
        {
          "internalType": "bool",
          "name": "_rate",
          "type": "bool"
        }
      ],
      "name": "addAccountOpinion",
      "outputs": [],
      "stateMutability": "nonpayable",
      "type": "function"
    },
    {
      "inputs": [
        {
          "internalType": "uint256",
          "name": "_amount",
          "type": "uint256"
        },
        {
          "internalType": "string",
          "name": "_title",
          "type": "string"
        },
        {
          "internalType": "string",
          "name": "_description",
          "type": "string"
        },
        {
          "internalType": "uint256",
          "name": "_max_uses",
          "type": "uint256"
        },
        {
          "internalType": "string",
          "name": "_info",
          "type": "string"
        }
      ],
      "name": "addSecretInfo",
      "outputs": [],
      "stateMutability": "nonpayable",
      "type": "function"
    },
    {
      "inputs": [
        {
          "internalType": "uint256",
          "name": "_secret_infos_id",
          "type": "uint256"
        },
        {
          "internalType": "bool",
          "name": "_rate",
          "type": "bool"
        }
      ],
      "name": "addSecretInfoRate",
      "outputs": [],
      "stateMutability": "nonpayable",
      "type": "function"
    },
    {
      "inputs": [
        {
          "internalType": "uint256",
          "name": "_secret_infos_id",
          "type": "uint256"
        },
        {
          "internalType": "string",
          "name": "_content",
          "type": "string"
        }
      ],
      "name": "addSecretInfoReply",
      "outputs": [],
      "stateMutability": "nonpayable",
      "type": "function"
    },
    {
      "inputs": [
        {
          "internalType": "uint256",
          "name": "_secret_infos_id",
          "type": "uint256"
        }
      ],
      "name": "changeSecretInfoRate",
      "outputs": [],
      "stateMutability": "nonpayable",
      "type": "function"
    },
    {
      "inputs": [
        {
          "internalType": "address",
          "name": "_account_address",
          "type": "address"
        }
      ],
      "name": "getAccountOpinionsByAddress",
      "outputs": [
        {
          "components": [
            {
              "internalType": "address",
              "name": "owner_address",
              "type": "address"
            },
            {
              "internalType": "address",
              "name": "account_address",
              "type": "address"
            },
            {
              "internalType": "uint256",
              "name": "created_at",
              "type": "uint256"
            },
            {
              "internalType": "string",
              "name": "content",
              "type": "string"
            },
            {
              "internalType": "bool",
              "name": "rate",
              "type": "bool"
            }
          ],
          "internalType": "struct PassingSecretInfoStructs.AccountOpinion[]",
          "name": "",
          "type": "tuple[]"
        }
      ],
      "stateMutability": "view",
      "type": "function"
    },
    {
      "inputs": [
        {
          "internalType": "uint256",
          "name": "_secret_info_id",
          "type": "uint256"
        }
      ],
      "name": "getSecretInfoAccessedById",
      "outputs": [
        {
          "components": [
            {
              "components": [
                {
                  "internalType": "uint256",
                  "name": "id",
                  "type": "uint256"
                },
                {
                  "internalType": "address",
                  "name": "owner_address",
                  "type": "address"
                },
                {
                  "internalType": "uint256",
                  "name": "amount",
                  "type": "uint256"
                },
                {
                  "internalType": "string",
                  "name": "title",
                  "type": "string"
                },
                {
                  "internalType": "string",
                  "name": "description",
                  "type": "string"
                },
                {
                  "internalType": "uint256",
                  "name": "created_at",
                  "type": "uint256"
                },
                {
                  "internalType": "uint256",
                  "name": "max_uses",
                  "type": "uint256"
                },
                {
                  "internalType": "uint256",
                  "name": "current_uses",
                  "type": "uint256"
                },
                {
                  "components": [
                    {
                      "internalType": "uint256",
                      "name": "id",
                      "type": "uint256"
                    },
                    {
                      "internalType": "address",
                      "name": "owner_address",
                      "type": "address"
                    },
                    {
                      "internalType": "uint256",
                      "name": "created_at",
                      "type": "uint256"
                    },
                    {
                      "internalType": "string",
                      "name": "content",
                      "type": "string"
                    }
                  ],
                  "internalType": "struct Structs.Reply[]",
                  "name": "replies",
                  "type": "tuple[]"
                },
                {
                  "components": [
                    {
                      "internalType": "uint256",
                      "name": "id",
                      "type": "uint256"
                    },
                    {
                      "internalType": "address",
                      "name": "owner_address",
                      "type": "address"
                    },
                    {
                      "internalType": "bool",
                      "name": "rate",
                      "type": "bool"
                    }
                  ],
                  "internalType": "struct Structs.Rate[]",
                  "name": "rates",
                  "type": "tuple[]"
                }
              ],
              "internalType": "struct PassingSecretInfoStructs.SecretInfo",
              "name": "secret_info",
              "type": "tuple"
            },
            {
              "components": [
                {
                  "internalType": "string",
                  "name": "info",
                  "type": "string"
                },
                {
                  "internalType": "address[]",
                  "name": "accessed_adresses",
                  "type": "address[]"
                }
              ],
              "internalType": "struct PassingSecretInfoStructs.SecretInfoAccessed",
              "name": "secret_info_accessed",
              "type": "tuple"
            }
          ],
          "internalType": "struct PassingSecretInfoStructs.SecretInfoAccessedResponse",
          "name": "",
          "type": "tuple"
        }
      ],
      "stateMutability": "view",
      "type": "function"
    },
    {
      "inputs": [
        {
          "internalType": "uint256",
          "name": "id",
          "type": "uint256"
        }
      ],
      "name": "getSecretInfoById",
      "outputs": [
        {
          "components": [
            {
              "internalType": "uint256",
              "name": "id",
              "type": "uint256"
            },
            {
              "internalType": "address",
              "name": "owner_address",
              "type": "address"
            },
            {
              "internalType": "uint256",
              "name": "amount",
              "type": "uint256"
            },
            {
              "internalType": "string",
              "name": "title",
              "type": "string"
            },
            {
              "internalType": "string",
              "name": "description",
              "type": "string"
            },
            {
              "internalType": "uint256",
              "name": "created_at",
              "type": "uint256"
            },
            {
              "internalType": "uint256",
              "name": "max_uses",
              "type": "uint256"
            },
            {
              "internalType": "uint256",
              "name": "current_uses",
              "type": "uint256"
            },
            {
              "components": [
                {
                  "internalType": "uint256",
                  "name": "id",
                  "type": "uint256"
                },
                {
                  "internalType": "address",
                  "name": "owner_address",
                  "type": "address"
                },
                {
                  "internalType": "uint256",
                  "name": "created_at",
                  "type": "uint256"
                },
                {
                  "internalType": "string",
                  "name": "content",
                  "type": "string"
                }
              ],
              "internalType": "struct Structs.Reply[]",
              "name": "replies",
              "type": "tuple[]"
            },
            {
              "components": [
                {
                  "internalType": "uint256",
                  "name": "id",
                  "type": "uint256"
                },
                {
                  "internalType": "address",
                  "name": "owner_address",
                  "type": "address"
                },
                {
                  "internalType": "bool",
                  "name": "rate",
                  "type": "bool"
                }
              ],
              "internalType": "struct Structs.Rate[]",
              "name": "rates",
              "type": "tuple[]"
            }
          ],
          "internalType": "struct PassingSecretInfoStructs.SecretInfo",
          "name": "",
          "type": "tuple"
        }
      ],
      "stateMutability": "view",
      "type": "function"
    },
    {
      "inputs": [],
      "name": "getSecretInfos",
      "outputs": [
        {
          "components": [
            {
              "internalType": "uint256",
              "name": "id",
              "type": "uint256"
            },
            {
              "internalType": "address",
              "name": "owner_address",
              "type": "address"
            },
            {
              "internalType": "uint256",
              "name": "amount",
              "type": "uint256"
            },
            {
              "internalType": "string",
              "name": "title",
              "type": "string"
            },
            {
              "internalType": "string",
              "name": "description",
              "type": "string"
            },
            {
              "internalType": "uint256",
              "name": "created_at",
              "type": "uint256"
            },
            {
              "internalType": "uint256",
              "name": "max_uses",
              "type": "uint256"
            },
            {
              "internalType": "uint256",
              "name": "current_uses",
              "type": "uint256"
            },
            {
              "components": [
                {
                  "internalType": "uint256",
                  "name": "id",
                  "type": "uint256"
                },
                {
                  "internalType": "address",
                  "name": "owner_address",
                  "type": "address"
                },
                {
                  "internalType": "uint256",
                  "name": "created_at",
                  "type": "uint256"
                },
                {
                  "internalType": "string",
                  "name": "content",
                  "type": "string"
                }
              ],
              "internalType": "struct Structs.Reply[]",
              "name": "replies",
              "type": "tuple[]"
            },
            {
              "components": [
                {
                  "internalType": "uint256",
                  "name": "id",
                  "type": "uint256"
                },
                {
                  "internalType": "address",
                  "name": "owner_address",
                  "type": "address"
                },
                {
                  "internalType": "bool",
                  "name": "rate",
                  "type": "bool"
                }
              ],
              "internalType": "struct Structs.Rate[]",
              "name": "rates",
              "type": "tuple[]"
            }
          ],
          "internalType": "struct PassingSecretInfoStructs.SecretInfo[]",
          "name": "",
          "type": "tuple[]"
        }
      ],
      "stateMutability": "view",
      "type": "function"
    },
    {
      "inputs": [],
      "name": "getSecretInfosAccessed",
      "outputs": [
        {
          "components": [
            {
              "components": [
                {
                  "internalType": "uint256",
                  "name": "id",
                  "type": "uint256"
                },
                {
                  "internalType": "address",
                  "name": "owner_address",
                  "type": "address"
                },
                {
                  "internalType": "uint256",
                  "name": "amount",
                  "type": "uint256"
                },
                {
                  "internalType": "string",
                  "name": "title",
                  "type": "string"
                },
                {
                  "internalType": "string",
                  "name": "description",
                  "type": "string"
                },
                {
                  "internalType": "uint256",
                  "name": "created_at",
                  "type": "uint256"
                },
                {
                  "internalType": "uint256",
                  "name": "max_uses",
                  "type": "uint256"
                },
                {
                  "internalType": "uint256",
                  "name": "current_uses",
                  "type": "uint256"
                },
                {
                  "components": [
                    {
                      "internalType": "uint256",
                      "name": "id",
                      "type": "uint256"
                    },
                    {
                      "internalType": "address",
                      "name": "owner_address",
                      "type": "address"
                    },
                    {
                      "internalType": "uint256",
                      "name": "created_at",
                      "type": "uint256"
                    },
                    {
                      "internalType": "string",
                      "name": "content",
                      "type": "string"
                    }
                  ],
                  "internalType": "struct Structs.Reply[]",
                  "name": "replies",
                  "type": "tuple[]"
                },
                {
                  "components": [
                    {
                      "internalType": "uint256",
                      "name": "id",
                      "type": "uint256"
                    },
                    {
                      "internalType": "address",
                      "name": "owner_address",
                      "type": "address"
                    },
                    {
                      "internalType": "bool",
                      "name": "rate",
                      "type": "bool"
                    }
                  ],
                  "internalType": "struct Structs.Rate[]",
                  "name": "rates",
                  "type": "tuple[]"
                }
              ],
              "internalType": "struct PassingSecretInfoStructs.SecretInfo",
              "name": "secret_info",
              "type": "tuple"
            },
            {
              "components": [
                {
                  "internalType": "string",
                  "name": "info",
                  "type": "string"
                },
                {
                  "internalType": "address[]",
                  "name": "accessed_adresses",
                  "type": "address[]"
                }
              ],
              "internalType": "struct PassingSecretInfoStructs.SecretInfoAccessed",
              "name": "secret_info_accessed",
              "type": "tuple"
            }
          ],
          "internalType": "struct PassingSecretInfoStructs.SecretInfoAccessedResponse[]",
          "name": "",
          "type": "tuple[]"
        }
      ],
      "stateMutability": "view",
      "type": "function"
    },
    {
      "inputs": [
        {
          "internalType": "uint256",
          "name": "_secret_info_id",
          "type": "uint256"
        }
      ],
      "name": "payForSecretInfoAccess",
      "outputs": [],
      "stateMutability": "payable",
      "type": "function"
    },
    {
      "inputs": [
        {
          "internalType": "uint256",
          "name": "_secret_infos_id",
          "type": "uint256"
        }
      ],
      "name": "removeSecretInfoRate",
      "outputs": [],
      "stateMutability": "nonpayable",
      "type": "function"
    },
    {
      "inputs": [
        {
          "internalType": "uint256",
          "name": "",
          "type": "uint256"
        }
      ],
      "name": "secret_infos",
      "outputs": [
        {
          "internalType": "uint256",
          "name": "id",
          "type": "uint256"
        },
        {
          "internalType": "address",
          "name": "owner_address",
          "type": "address"
        },
        {
          "internalType": "uint256",
          "name": "amount",
          "type": "uint256"
        },
        {
          "internalType": "string",
          "name": "title",
          "type": "string"
        },
        {
          "internalType": "string",
          "name": "description",
          "type": "string"
        },
        {
          "internalType": "uint256",
          "name": "created_at",
          "type": "uint256"
        },
        {
          "internalType": "uint256",
          "name": "max_uses",
          "type": "uint256"
        },
        {
          "internalType": "uint256",
          "name": "current_uses",
          "type": "uint256"
        }
      ],
      "stateMutability": "view",
      "type": "function"
    }
  ],
  "bytecode": "0x6080604052600080556000600155600060025534801561001e57600080fd5b506154458061002e6000396000f3fe6080604052600436106100c25760003560e01c8063bff814801161007f578063d6e842e311610059578063d6e842e314610272578063e0898a14146102af578063eae2eea2146102d8578063eb71acd014610301576100c2565b8063bff81480146101d5578063c526a39814610212578063cdd62f9514610256576100c2565b8063048474af146100c7578063172ffbc5146100f0578063237fa7eb146101195780634d62817614610144578063632467681461016f57806390a96b09146101ac575b600080fd5b3480156100d357600080fd5b506100ee60048036038101906100e99190613c33565b61032a565b005b3480156100fc57600080fd5b5061011760048036038101906101129190613da6565b61066e565b005b34801561012557600080fd5b5061012e610790565b60405161013b91906142b3565b60405180910390f35b34801561015057600080fd5b50610159610bd1565b60405161016691906144ce565b60405180910390f35b34801561017b57600080fd5b5061019660048036038101906101919190613c33565b6118b7565b6040516101a391906145df565b60405180910390f35b3480156101b857600080fd5b506101d360048036038101906101ce9190614659565b611cd5565b005b3480156101e157600080fd5b506101fc60048036038101906101f79190613c33565b611e36565b604051610209919061470c565b60405180910390f35b34801561021e57600080fd5b5061023960048036038101906102349190613c33565b612a85565b60405161024d989796959493929190614796565b60405180910390f35b610270600480360381019061026b9190613c33565b612c0d565b005b34801561027e57600080fd5b5061029960048036038101906102949190614822565b613081565b6040516102a69190614987565b60405180910390f35b3480156102bb57600080fd5b506102d660048036038101906102d19190613c33565b613347565b005b3480156102e457600080fd5b506102ff60048036038101906102fa91906149a9565b613596565b005b34801561030d57600080fd5b5061032860048036038101906103239190614a78565b61377e565b005b60005b6003828154811061034157610340614ab8565b5b90600052602060002090600a02016009018054905081101561062f573373ffffffffffffffffffffffffffffffffffffffff166003838154811061038857610387614ab8565b5b90600052602060002090600a020160090182815481106103ab576103aa614ab8565b5b906000526020600020906002020160010160009054906101000a900473ffffffffffffffffffffffffffffffffffffffff1673ffffffffffffffffffffffffffffffffffffffff160361061c5760008190505b60016003848154811061041457610413614ab8565b5b90600052602060002090600a0201600901805490506104339190614b16565b811015610584576003838154811061044e5761044d614ab8565b5b90600052602060002090600a020160090160018261046c9190614b4a565b8154811061047d5761047c614ab8565b5b90600052602060002090600202016003848154811061049f5761049e614ab8565b5b90600052602060002090600a020160090182815481106104c2576104c1614ab8565b5b9060005260206000209060020201600082015481600001556001820160009054906101000a900473ffffffffffffffffffffffffffffffffffffffff168160010160006101000a81548173ffffffffffffffffffffffffffffffffffffffff021916908373ffffffffffffffffffffffffffffffffffffffff1602179055506001820160149054906101000a900460ff168160010160146101000a81548160ff021916908315150217905550905050808061057c90614b7e565b9150506103fe565b506003828154811061059957610598614ab8565b5b90600052602060002090600a02016009018054806105ba576105b9614bc6565b5b60019003818190600052602060002090600202016000808201600090556001820160006101000a81549073ffffffffffffffffffffffffffffffffffffffff02191690556001820160146101000a81549060ff0219169055505090555061066b565b808061062790614b7e565b91505061032d565b506040517f08c379a000000000000000000000000000000000000000000000000000000000815260040161066290614c41565b60405180910390fd5b50565b61067a816103e86139ad565b6003828154811061068e5761068d614ab8565b5b90600052602060002090600a0201600801604051806080016040528060015481526020013373ffffffffffffffffffffffffffffffffffffffff1681526020014281526020018381525090806001815401808255809150506001900390600052602060002090600402016000909190919091506000820151816000015560208201518160010160006101000a81548173ffffffffffffffffffffffffffffffffffffffff021916908373ffffffffffffffffffffffffffffffffffffffff1602179055506040820151816002015560608201518160030190816107719190614e6d565b5050506001600081548092919061078790614b7e565b91905055505050565b60606003805480602002602001604051908101604052809291908181526020016000905b82821015610bc857838290600052602060002090600a020160405180610140016040529081600082015481526020016001820160009054906101000a900473ffffffffffffffffffffffffffffffffffffffff1673ffffffffffffffffffffffffffffffffffffffff1673ffffffffffffffffffffffffffffffffffffffff1681526020016002820154815260200160038201805461085290614c90565b80601f016020809104026020016040519081016040528092919081815260200182805461087e90614c90565b80156108cb5780601f106108a0576101008083540402835291602001916108cb565b820191906000526020600020905b8154815290600101906020018083116108ae57829003601f168201915b505050505081526020016004820180546108e490614c90565b80601f016020809104026020016040519081016040528092919081815260200182805461091090614c90565b801561095d5780601f106109325761010080835404028352916020019161095d565b820191906000526020600020905b81548152906001019060200180831161094057829003601f168201915b5050505050815260200160058201548152602001600682015481526020016007820154815260200160088201805480602002602001604051908101604052809291908181526020016000905b82821015610ad75783829060005260206000209060040201604051806080016040529081600082015481526020016001820160009054906101000a900473ffffffffffffffffffffffffffffffffffffffff1673ffffffffffffffffffffffffffffffffffffffff1673ffffffffffffffffffffffffffffffffffffffff16815260200160028201548152602001600382018054610a4690614c90565b80601f0160208091040260200160405190810160405280929190818152602001828054610a7290614c90565b8015610abf5780601f10610a9457610100808354040283529160200191610abf565b820191906000526020600020905b815481529060010190602001808311610aa257829003601f168201915b505050505081525050815260200190600101906109a9565b50505050815260200160098201805480602002602001604051908101604052809291908181526020016000905b82821015610bb15783829060005260206000209060020201604051806060016040529081600082015481526020016001820160009054906101000a900473ffffffffffffffffffffffffffffffffffffffff1673ffffffffffffffffffffffffffffffffffffffff1673ffffffffffffffffffffffffffffffffffffffff1681526020016001820160149054906101000a900460ff16151515158152505081526020019060010190610b04565b5050505081525050815260200190600101906107b4565b50505050905090565b6060600060038054905067ffffffffffffffff811115610bf457610bf3613c7b565b5b604051908082528060200260200182016040528015610c2d57816020015b610c1a613a3c565b815260200190600190039081610c125790505b5090506000805b6004805490508110156118ab573373ffffffffffffffffffffffffffffffffffffffff16610c61826118b7565b6020015173ffffffffffffffffffffffffffffffffffffffff160361122057604051806040016040528060038381548110610c9f57610c9e614ab8565b5b90600052602060002090600a020160405180610140016040529081600082015481526020016001820160009054906101000a900473ffffffffffffffffffffffffffffffffffffffff1673ffffffffffffffffffffffffffffffffffffffff1673ffffffffffffffffffffffffffffffffffffffff16815260200160028201548152602001600382018054610d3390614c90565b80601f0160208091040260200160405190810160405280929190818152602001828054610d5f90614c90565b8015610dac5780601f10610d8157610100808354040283529160200191610dac565b820191906000526020600020905b815481529060010190602001808311610d8f57829003601f168201915b50505050508152602001600482018054610dc590614c90565b80601f0160208091040260200160405190810160405280929190818152602001828054610df190614c90565b8015610e3e5780601f10610e1357610100808354040283529160200191610e3e565b820191906000526020600020905b815481529060010190602001808311610e2157829003601f168201915b5050505050815260200160058201548152602001600682015481526020016007820154815260200160088201805480602002602001604051908101604052809291908181526020016000905b82821015610fb85783829060005260206000209060040201604051806080016040529081600082015481526020016001820160009054906101000a900473ffffffffffffffffffffffffffffffffffffffff1673ffffffffffffffffffffffffffffffffffffffff1673ffffffffffffffffffffffffffffffffffffffff16815260200160028201548152602001600382018054610f2790614c90565b80601f0160208091040260200160405190810160405280929190818152602001828054610f5390614c90565b8015610fa05780601f10610f7557610100808354040283529160200191610fa0565b820191906000526020600020905b815481529060010190602001808311610f8357829003601f168201915b50505050508152505081526020019060010190610e8a565b50505050815260200160098201805480602002602001604051908101604052809291908181526020016000905b828210156110925783829060005260206000209060020201604051806060016040529081600082015481526020016001820160009054906101000a900473ffffffffffffffffffffffffffffffffffffffff1673ffffffffffffffffffffffffffffffffffffffff1673ffffffffffffffffffffffffffffffffffffffff1681526020016001820160149054906101000a900460ff16151515158152505081526020019060010190610fe5565b50505050815250508152602001600483815481106110b3576110b2614ab8565b5b90600052602060002090600202016040518060400160405290816000820180546110dc90614c90565b80601f016020809104026020016040519081016040528092919081815260200182805461110890614c90565b80156111555780601f1061112a57610100808354040283529160200191611155565b820191906000526020600020905b81548152906001019060200180831161113857829003601f168201915b50505050508152602001600182018054806020026020016040519081016040528092919081815260200182805480156111e357602002820191906000526020600020905b8160009054906101000a900473ffffffffffffffffffffffffffffffffffffffff1673ffffffffffffffffffffffffffffffffffffffff1681526020019060010190808311611199575b50505050508152505081525083838151811061120257611201614ab8565b5b6020026020010181905250818061121890614b7e565b925050611898565b60005b6004828154811061123757611236614ab8565b5b906000526020600020906002020160010180549050811015611896573373ffffffffffffffffffffffffffffffffffffffff166004838154811061127e5761127d614ab8565b5b906000526020600020906002020160010182815481106112a1576112a0614ab8565b5b9060005260206000200160009054906101000a900473ffffffffffffffffffffffffffffffffffffffff1673ffffffffffffffffffffffffffffffffffffffff16036118835760405180604001604052806003848154811061130657611305614ab8565b5b90600052602060002090600a020160405180610140016040529081600082015481526020016001820160009054906101000a900473ffffffffffffffffffffffffffffffffffffffff1673ffffffffffffffffffffffffffffffffffffffff1673ffffffffffffffffffffffffffffffffffffffff1681526020016002820154815260200160038201805461139a90614c90565b80601f01602080910402602001604051908101604052809291908181526020018280546113c690614c90565b80156114135780601f106113e857610100808354040283529160200191611413565b820191906000526020600020905b8154815290600101906020018083116113f657829003601f168201915b5050505050815260200160048201805461142c90614c90565b80601f016020809104026020016040519081016040528092919081815260200182805461145890614c90565b80156114a55780601f1061147a576101008083540402835291602001916114a5565b820191906000526020600020905b81548152906001019060200180831161148857829003601f168201915b5050505050815260200160058201548152602001600682015481526020016007820154815260200160088201805480602002602001604051908101604052809291908181526020016000905b8282101561161f5783829060005260206000209060040201604051806080016040529081600082015481526020016001820160009054906101000a900473ffffffffffffffffffffffffffffffffffffffff1673ffffffffffffffffffffffffffffffffffffffff1673ffffffffffffffffffffffffffffffffffffffff1681526020016002820154815260200160038201805461158e90614c90565b80601f01602080910402602001604051908101604052809291908181526020018280546115ba90614c90565b80156116075780601f106115dc57610100808354040283529160200191611607565b820191906000526020600020905b8154815290600101906020018083116115ea57829003601f168201915b505050505081525050815260200190600101906114f1565b50505050815260200160098201805480602002602001604051908101604052809291908181526020016000905b828210156116f95783829060005260206000209060020201604051806060016040529081600082015481526020016001820160009054906101000a900473ffffffffffffffffffffffffffffffffffffffff1673ffffffffffffffffffffffffffffffffffffffff1673ffffffffffffffffffffffffffffffffffffffff1681526020016001820160149054906101000a900460ff1615151515815250508152602001906001019061164c565b505050508152505081526020016004848154811061171a57611719614ab8565b5b906000526020600020906002020160405180604001604052908160008201805461174390614c90565b80601f016020809104026020016040519081016040528092919081815260200182805461176f90614c90565b80156117bc5780601f10611791576101008083540402835291602001916117bc565b820191906000526020600020905b81548152906001019060200180831161179f57829003601f168201915b505050505081526020016001820180548060200260200160405190810160405280929190818152602001828054801561184a57602002820191906000526020600020905b8160009054906101000a900473ffffffffffffffffffffffffffffffffffffffff1673ffffffffffffffffffffffffffffffffffffffff1681526020019060010190808311611800575b50505050508152505081525084848151811061186957611868614ab8565b5b6020026020010181905250828061187f90614b7e565b9350505b808061188e90614b7e565b915050611223565b505b80806118a390614b7e565b915050610c34565b50808252819250505090565b6118bf613a62565b600382815481106118d3576118d2614ab8565b5b90600052602060002090600a020160405180610140016040529081600082015481526020016001820160009054906101000a900473ffffffffffffffffffffffffffffffffffffffff1673ffffffffffffffffffffffffffffffffffffffff1673ffffffffffffffffffffffffffffffffffffffff1681526020016002820154815260200160038201805461196790614c90565b80601f016020809104026020016040519081016040528092919081815260200182805461199390614c90565b80156119e05780601f106119b5576101008083540402835291602001916119e0565b820191906000526020600020905b8154815290600101906020018083116119c357829003601f168201915b505050505081526020016004820180546119f990614c90565b80601f0160208091040260200160405190810160405280929190818152602001828054611a2590614c90565b8015611a725780601f10611a4757610100808354040283529160200191611a72565b820191906000526020600020905b815481529060010190602001808311611a5557829003601f168201915b5050505050815260200160058201548152602001600682015481526020016007820154815260200160088201805480602002602001604051908101604052809291908181526020016000905b82821015611bec5783829060005260206000209060040201604051806080016040529081600082015481526020016001820160009054906101000a900473ffffffffffffffffffffffffffffffffffffffff1673ffffffffffffffffffffffffffffffffffffffff1673ffffffffffffffffffffffffffffffffffffffff16815260200160028201548152602001600382018054611b5b90614c90565b80601f0160208091040260200160405190810160405280929190818152602001828054611b8790614c90565b8015611bd45780601f10611ba957610100808354040283529160200191611bd4565b820191906000526020600020905b815481529060010190602001808311611bb757829003601f168201915b50505050508152505081526020019060010190611abe565b50505050815260200160098201805480602002602001604051908101604052809291908181526020016000905b82821015611cc65783829060005260206000209060020201604051806060016040529081600082015481526020016001820160009054906101000a900473ffffffffffffffffffffffffffffffffffffffff1673ffffffffffffffffffffffffffffffffffffffff1673ffffffffffffffffffffffffffffffffffffffff1681526020016001820160149054906101000a900460ff16151515158152505081526020019060010190611c19565b50505050815250509050919050565b611ce1826103e86139ad565b60056040518060a001604052803373ffffffffffffffffffffffffffffffffffffffff1681526020018573ffffffffffffffffffffffffffffffffffffffff168152602001428152602001848152602001831515815250908060018154018082558091505060019003906000526020600020906005020160009091909190915060008201518160000160006101000a81548173ffffffffffffffffffffffffffffffffffffffff021916908373ffffffffffffffffffffffffffffffffffffffff16021790555060208201518160010160006101000a81548173ffffffffffffffffffffffffffffffffffffffff021916908373ffffffffffffffffffffffffffffffffffffffff160217905550604082015181600201556060820151816003019081611e0e9190614e6d565b5060808201518160040160006101000a81548160ff0219169083151502179055505050505050565b611e3e613a3c565b3373ffffffffffffffffffffffffffffffffffffffff16611e5e836118b7565b6020015173ffffffffffffffffffffffffffffffffffffffff16036123f357604051806040016040528060038481548110611e9c57611e9b614ab8565b5b90600052602060002090600a020160405180610140016040529081600082015481526020016001820160009054906101000a900473ffffffffffffffffffffffffffffffffffffffff1673ffffffffffffffffffffffffffffffffffffffff1673ffffffffffffffffffffffffffffffffffffffff16815260200160028201548152602001600382018054611f3090614c90565b80601f0160208091040260200160405190810160405280929190818152602001828054611f5c90614c90565b8015611fa95780601f10611f7e57610100808354040283529160200191611fa9565b820191906000526020600020905b815481529060010190602001808311611f8c57829003601f168201915b50505050508152602001600482018054611fc290614c90565b80601f0160208091040260200160405190810160405280929190818152602001828054611fee90614c90565b801561203b5780601f106120105761010080835404028352916020019161203b565b820191906000526020600020905b81548152906001019060200180831161201e57829003601f168201915b5050505050815260200160058201548152602001600682015481526020016007820154815260200160088201805480602002602001604051908101604052809291908181526020016000905b828210156121b55783829060005260206000209060040201604051806080016040529081600082015481526020016001820160009054906101000a900473ffffffffffffffffffffffffffffffffffffffff1673ffffffffffffffffffffffffffffffffffffffff1673ffffffffffffffffffffffffffffffffffffffff1681526020016002820154815260200160038201805461212490614c90565b80601f016020809104026020016040519081016040528092919081815260200182805461215090614c90565b801561219d5780601f106121725761010080835404028352916020019161219d565b820191906000526020600020905b81548152906001019060200180831161218057829003601f168201915b50505050508152505081526020019060010190612087565b50505050815260200160098201805480602002602001604051908101604052809291908181526020016000905b8282101561228f5783829060005260206000209060020201604051806060016040529081600082015481526020016001820160009054906101000a900473ffffffffffffffffffffffffffffffffffffffff1673ffffffffffffffffffffffffffffffffffffffff1673ffffffffffffffffffffffffffffffffffffffff1681526020016001820160149054906101000a900460ff161515151581525050815260200190600101906121e2565b50505050815250508152602001600484815481106122b0576122af614ab8565b5b90600052602060002090600202016040518060400160405290816000820180546122d990614c90565b80601f016020809104026020016040519081016040528092919081815260200182805461230590614c90565b80156123525780601f1061232757610100808354040283529160200191612352565b820191906000526020600020905b81548152906001019060200180831161233557829003601f168201915b50505050508152602001600182018054806020026020016040519081016040528092919081815260200182805480156123e057602002820191906000526020600020905b8160009054906101000a900473ffffffffffffffffffffffffffffffffffffffff1673ffffffffffffffffffffffffffffffffffffffff1681526020019060010190808311612396575b5050505050815250508152509050612a80565b60005b6004838154811061240a57612409614ab8565b5b906000526020600020906002020160010180549050811015612a44573373ffffffffffffffffffffffffffffffffffffffff166004848154811061245157612450614ab8565b5b9060005260206000209060020201600101828154811061247457612473614ab8565b5b9060005260206000200160009054906101000a900473ffffffffffffffffffffffffffffffffffffffff1673ffffffffffffffffffffffffffffffffffffffff1603612a31576040518060400160405280600385815481106124d9576124d8614ab8565b5b90600052602060002090600a020160405180610140016040529081600082015481526020016001820160009054906101000a900473ffffffffffffffffffffffffffffffffffffffff1673ffffffffffffffffffffffffffffffffffffffff1673ffffffffffffffffffffffffffffffffffffffff1681526020016002820154815260200160038201805461256d90614c90565b80601f016020809104026020016040519081016040528092919081815260200182805461259990614c90565b80156125e65780601f106125bb576101008083540402835291602001916125e6565b820191906000526020600020905b8154815290600101906020018083116125c957829003601f168201915b505050505081526020016004820180546125ff90614c90565b80601f016020809104026020016040519081016040528092919081815260200182805461262b90614c90565b80156126785780601f1061264d57610100808354040283529160200191612678565b820191906000526020600020905b81548152906001019060200180831161265b57829003601f168201915b5050505050815260200160058201548152602001600682015481526020016007820154815260200160088201805480602002602001604051908101604052809291908181526020016000905b828210156127f25783829060005260206000209060040201604051806080016040529081600082015481526020016001820160009054906101000a900473ffffffffffffffffffffffffffffffffffffffff1673ffffffffffffffffffffffffffffffffffffffff1673ffffffffffffffffffffffffffffffffffffffff1681526020016002820154815260200160038201805461276190614c90565b80601f016020809104026020016040519081016040528092919081815260200182805461278d90614c90565b80156127da5780601f106127af576101008083540402835291602001916127da565b820191906000526020600020905b8154815290600101906020018083116127bd57829003601f168201915b505050505081525050815260200190600101906126c4565b50505050815260200160098201805480602002602001604051908101604052809291908181526020016000905b828210156128cc5783829060005260206000209060020201604051806060016040529081600082015481526020016001820160009054906101000a900473ffffffffffffffffffffffffffffffffffffffff1673ffffffffffffffffffffffffffffffffffffffff1673ffffffffffffffffffffffffffffffffffffffff1681526020016001820160149054906101000a900460ff1615151515815250508152602001906001019061281f565b50505050815250508152602001600485815481106128ed576128ec614ab8565b5b906000526020600020906002020160405180604001604052908160008201805461291690614c90565b80601f016020809104026020016040519081016040528092919081815260200182805461294290614c90565b801561298f5780601f106129645761010080835404028352916020019161298f565b820191906000526020600020905b81548152906001019060200180831161297257829003601f168201915b5050505050815260200160018201805480602002602001604051908101604052809291908181526020018280548015612a1d57602002820191906000526020600020905b8160009054906101000a900473ffffffffffffffffffffffffffffffffffffffff1673ffffffffffffffffffffffffffffffffffffffff16815260200190600101908083116129d3575b505050505081525050815250915050612a80565b8080612a3c90614b7e565b9150506123f6565b506040517f08c379a0000000000000000000000000000000000000000000000000000000008152600401612a7790614fd7565b60405180910390fd5b919050565b60038181548110612a9557600080fd5b90600052602060002090600a02016000915090508060000154908060010160009054906101000a900473ffffffffffffffffffffffffffffffffffffffff1690806002015490806003018054612aea90614c90565b80601f0160208091040260200160405190810160405280929190818152602001828054612b1690614c90565b8015612b635780601f10612b3857610100808354040283529160200191612b63565b820191906000526020600020905b815481529060010190602001808311612b4657829003601f168201915b505050505090806004018054612b7890614c90565b80601f0160208091040260200160405190810160405280929190818152602001828054612ba490614c90565b8015612bf15780601f10612bc657610100808354040283529160200191612bf1565b820191906000526020600020905b815481529060010190602001808311612bd457829003601f168201915b5050505050908060050154908060060154908060070154905088565b3373ffffffffffffffffffffffffffffffffffffffff1660038281548110612c3857612c37614ab8565b5b90600052602060002090600a020160010160009054906101000a900473ffffffffffffffffffffffffffffffffffffffff1673ffffffffffffffffffffffffffffffffffffffff1603612cc0576040517f08c379a0000000000000000000000000000000000000000000000000000000008152600401612cb790615069565b60405180910390fd5b3460038281548110612cd557612cd4614ab8565b5b90600052602060002090600a02016002015414612d27576040517f08c379a0000000000000000000000000000000000000000000000000000000008152600401612d1e906150d5565b60405180910390fd5b60038181548110612d3b57612d3a614ab8565b5b90600052602060002090600a02016007015460038281548110612d6157612d60614ab8565b5b90600052602060002090600a02016006015411612db3576040517f08c379a0000000000000000000000000000000000000000000000000000000008152600401612daa90615141565b60405180910390fd5b60005b60048281548110612dca57612dc9614ab8565b5b906000526020600020906002020160010180549050811015612ec8573373ffffffffffffffffffffffffffffffffffffffff1660048381548110612e1157612e10614ab8565b5b90600052602060002090600202016001018281548110612e3457612e33614ab8565b5b9060005260206000200160009054906101000a900473ffffffffffffffffffffffffffffffffffffffff1673ffffffffffffffffffffffffffffffffffffffff1603612eb5576040517f08c379a0000000000000000000000000000000000000000000000000000000008152600401612eac906151ad565b60405180910390fd5b8080612ec090614b7e565b915050612db6565b50600060038281548110612edf57612ede614ab8565b5b90600052602060002090600a020160010160009054906101000a900473ffffffffffffffffffffffffffffffffffffffff1673ffffffffffffffffffffffffffffffffffffffff1634604051612f34906151fe565b60006040518083038185875af1925050503d8060008114612f71576040519150601f19603f3d011682016040523d82523d6000602084013e612f76565b606091505b5050905080612fba576040517f08c379a0000000000000000000000000000000000000000000000000000000008152600401612fb19061525f565b60405180910390fd5b600160038381548110612fd057612fcf614ab8565b5b90600052602060002090600a02016007016000828254612ff09190614b4a565b925050819055506004828154811061300b5761300a614ab8565b5b9060005260206000209060020201600101339080600181540180825580915050600190039060005260206000200160009091909190916101000a81548173ffffffffffffffffffffffffffffffffffffffff021916908373ffffffffffffffffffffffffffffffffffffffff1602179055505050565b6060600060058054905067ffffffffffffffff8111156130a4576130a3613c7b565b5b6040519080825280602002602001820160405280156130dd57816020015b6130ca613acb565b8152602001906001900390816130c25790505b5090506000805b600580549050811015613339578473ffffffffffffffffffffffffffffffffffffffff166005828154811061311c5761311b614ab8565b5b906000526020600020906005020160010160009054906101000a900473ffffffffffffffffffffffffffffffffffffffff1673ffffffffffffffffffffffffffffffffffffffff1603613326576005818154811061317d5761317c614ab8565b5b90600052602060002090600502016040518060a00160405290816000820160009054906101000a900473ffffffffffffffffffffffffffffffffffffffff1673ffffffffffffffffffffffffffffffffffffffff1673ffffffffffffffffffffffffffffffffffffffff1681526020016001820160009054906101000a900473ffffffffffffffffffffffffffffffffffffffff1673ffffffffffffffffffffffffffffffffffffffff1673ffffffffffffffffffffffffffffffffffffffff1681526020016002820154815260200160038201805461325c90614c90565b80601f016020809104026020016040519081016040528092919081815260200182805461328890614c90565b80156132d55780601f106132aa576101008083540402835291602001916132d5565b820191906000526020600020905b8154815290600101906020018083116132b857829003601f168201915b505050505081526020016004820160009054906101000a900460ff16151515158152505083838151811061330c5761330b614ab8565b5b6020026020010181905250818061332290614b7e565b9250505b808061333190614b7e565b9150506130e4565b508082528192505050919050565b60005b6003828154811061335e5761335d614ab8565b5b90600052602060002090600a020160090180549050811015613557573373ffffffffffffffffffffffffffffffffffffffff16600383815481106133a5576133a4614ab8565b5b90600052602060002090600a020160090182815481106133c8576133c7614ab8565b5b906000526020600020906002020160010160009054906101000a900473ffffffffffffffffffffffffffffffffffffffff1673ffffffffffffffffffffffffffffffffffffffff160361354457600115156003838154811061342d5761342c614ab8565b5b90600052602060002090600a020160090182815481106134505761344f614ab8565b5b906000526020600020906002020160010160149054906101000a900460ff161515036134dd5760006003838154811061348c5761348b614ab8565b5b90600052602060002090600a020160090182815481106134af576134ae614ab8565b5b906000526020600020906002020160010160146101000a81548160ff02191690831515021790555050613593565b6001600383815481106134f3576134f2614ab8565b5b90600052602060002090600a0201600901828154811061351657613515614ab8565b5b906000526020600020906002020160010160146101000a81548160ff02191690831515021790555050613593565b808061354f90614b7e565b91505061334a565b506040517f08c379a000000000000000000000000000000000000000000000000000000000815260040161358a90614c41565b60405180910390fd5b50565b60008067ffffffffffffffff8111156135b2576135b1613c7b565b5b6040519080825280602002602001820160405280156135e05781602001602082028036833780820191505090505b509050600060036001816001815401808255809150500390600052602060002090600a0201905061361b8769d3c21bcecceda10000006139f5565b6136268660fa6139ad565b613632856103e86139ad565b6136468469d3c21bcecceda10000006139f5565b613652836127106139ad565b6000548160000181905550338160010160006101000a81548173ffffffffffffffffffffffffffffffffffffffff021916908373ffffffffffffffffffffffffffffffffffffffff160217905550868160020181905550858160030190816136ba9190614e6d565b50848160040190816136cc9190614e6d565b508381600601819055504281600501819055506000816007018190555060046040518060400160405280858152602001848152509080600181540180825580915050600190039060005260206000209060020201600090919091909150600082015181600001908161373e9190614e6d565b50602082015181600101908051906020019061375b929190613b28565b50505060008081548092919061377090614b7e565b919050555050505050505050565b60005b6003838154811061379557613794614ab8565b5b90600052602060002090600a02016009018054905081101561389a573373ffffffffffffffffffffffffffffffffffffffff16600384815481106137dc576137db614ab8565b5b90600052602060002090600a020160090182815481106137ff576137fe614ab8565b5b906000526020600020906002020160010160009054906101000a900473ffffffffffffffffffffffffffffffffffffffff1673ffffffffffffffffffffffffffffffffffffffff1603613887576040517f08c379a000000000000000000000000000000000000000000000000000000000815260040161387e906152cb565b60405180910390fd5b808061389290614b7e565b915050613781565b50600382815481106138af576138ae614ab8565b5b90600052602060002090600a0201600901604051806060016040528060015481526020013373ffffffffffffffffffffffffffffffffffffffff16815260200183151581525090806001815401808255809150506001900390600052602060002090600202016000909190919091506000820151816000015560208201518160010160006101000a81548173ffffffffffffffffffffffffffffffffffffffff021916908373ffffffffffffffffffffffffffffffffffffffff16021790555060408201518160010160146101000a81548160ff0219169083151502179055505050600260008154809291906139a490614b7e565b91905055505050565b80825111156139f1576040517f08c379a00000000000000000000000000000000000000000000000000000000081526004016139e89061535d565b60405180910390fd5b5050565b80821115613a38576040517f08c379a0000000000000000000000000000000000000000000000000000000008152600401613a2f906153ef565b60405180910390fd5b5050565b6040518060400160405280613a4f613a62565b8152602001613a5c613bb2565b81525090565b60405180610140016040528060008152602001600073ffffffffffffffffffffffffffffffffffffffff16815260200160008152602001606081526020016060815260200160008152602001600081526020016000815260200160608152602001606081525090565b6040518060a00160405280600073ffffffffffffffffffffffffffffffffffffffff168152602001600073ffffffffffffffffffffffffffffffffffffffff16815260200160008152602001606081526020016000151581525090565b828054828255906000526020600020908101928215613ba1579160200282015b82811115613ba05782518260006101000a81548173ffffffffffffffffffffffffffffffffffffffff021916908373ffffffffffffffffffffffffffffffffffffffff16021790555091602001919060010190613b48565b5b509050613bae9190613bcc565b5090565b604051806040016040528060608152602001606081525090565b5b80821115613be5576000816000905550600101613bcd565b5090565b6000604051905090565b600080fd5b600080fd5b6000819050919050565b613c1081613bfd565b8114613c1b57600080fd5b50565b600081359050613c2d81613c07565b92915050565b600060208284031215613c4957613c48613bf3565b5b6000613c5784828501613c1e565b91505092915050565b600080fd5b600080fd5b6000601f19601f8301169050919050565b7f4e487b7100000000000000000000000000000000000000000000000000000000600052604160045260246000fd5b613cb382613c6a565b810181811067ffffffffffffffff82111715613cd257613cd1613c7b565b5b80604052505050565b6000613ce5613be9565b9050613cf18282613caa565b919050565b600067ffffffffffffffff821115613d1157613d10613c7b565b5b613d1a82613c6a565b9050602081019050919050565b82818337600083830152505050565b6000613d49613d4484613cf6565b613cdb565b905082815260208101848484011115613d6557613d64613c65565b5b613d70848285613d27565b509392505050565b600082601f830112613d8d57613d8c613c60565b5b8135613d9d848260208601613d36565b91505092915050565b60008060408385031215613dbd57613dbc613bf3565b5b6000613dcb85828601613c1e565b925050602083013567ffffffffffffffff811115613dec57613deb613bf8565b5b613df885828601613d78565b9150509250929050565b600081519050919050565b600082825260208201905092915050565b6000819050602082019050919050565b613e3781613bfd565b82525050565b600073ffffffffffffffffffffffffffffffffffffffff82169050919050565b6000613e6882613e3d565b9050919050565b613e7881613e5d565b82525050565b600081519050919050565b600082825260208201905092915050565b60005b83811015613eb8578082015181840152602081019050613e9d565b60008484015250505050565b6000613ecf82613e7e565b613ed98185613e89565b9350613ee9818560208601613e9a565b613ef281613c6a565b840191505092915050565b600081519050919050565b600082825260208201905092915050565b6000819050602082019050919050565b6000608083016000830151613f416000860182613e2e565b506020830151613f546020860182613e6f565b506040830151613f676040860182613e2e565b5060608301518482036060860152613f7f8282613ec4565b9150508091505092915050565b6000613f988383613f29565b905092915050565b6000602082019050919050565b6000613fb882613efd565b613fc28185613f08565b935083602082028501613fd485613f19565b8060005b858110156140105784840389528151613ff18582613f8c565b9450613ffc83613fa0565b925060208a01995050600181019050613fd8565b50829750879550505050505092915050565b600081519050919050565b600082825260208201905092915050565b6000819050602082019050919050565b60008115159050919050565b6140638161404e565b82525050565b60608201600082015161407f6000850182613e2e565b5060208201516140926020850182613e6f565b5060408201516140a5604085018261405a565b50505050565b60006140b78383614069565b60608301905092915050565b6000602082019050919050565b60006140db82614022565b6140e5818561402d565b93506140f08361403e565b8060005b8381101561412157815161410888826140ab565b9750614113836140c3565b9250506001810190506140f4565b5085935050505092915050565b6000610140830160008301516141476000860182613e2e565b50602083015161415a6020860182613e6f565b50604083015161416d6040860182613e2e565b50606083015184820360608601526141858282613ec4565b9150506080830151848203608086015261419f8282613ec4565b91505060a08301516141b460a0860182613e2e565b5060c08301516141c760c0860182613e2e565b5060e08301516141da60e0860182613e2e565b506101008301518482036101008601526141f48282613fad565b91505061012083015184820361012086015261421082826140d0565b9150508091505092915050565b6000614229838361412e565b905092915050565b6000602082019050919050565b600061424982613e02565b6142538185613e0d565b93508360208202850161426585613e1e565b8060005b858110156142a15784840389528151614282858261421d565b945061428d83614231565b925060208a01995050600181019050614269565b50829750879550505050505092915050565b600060208201905081810360008301526142cd818461423e565b905092915050565b600081519050919050565b600082825260208201905092915050565b6000819050602082019050919050565b600081519050919050565b600082825260208201905092915050565b6000819050602082019050919050565b60006143398383613e6f565b60208301905092915050565b6000602082019050919050565b600061435d82614301565b614367818561430c565b93506143728361431d565b8060005b838110156143a357815161438a888261432d565b975061439583614345565b925050600181019050614376565b5085935050505092915050565b600060408301600083015184820360008601526143cd8282613ec4565b915050602083015184820360208601526143e78282614352565b9150508091505092915050565b60006040830160008301518482036000860152614411828261412e565b9150506020830151848203602086015261442b82826143b0565b9150508091505092915050565b600061444483836143f4565b905092915050565b6000602082019050919050565b6000614464826142d5565b61446e81856142e0565b935083602082028501614480856142f1565b8060005b858110156144bc578484038952815161449d8582614438565b94506144a88361444c565b925060208a01995050600181019050614484565b50829750879550505050505092915050565b600060208201905081810360008301526144e88184614459565b905092915050565b6000610140830160008301516145096000860182613e2e565b50602083015161451c6020860182613e6f565b50604083015161452f6040860182613e2e565b50606083015184820360608601526145478282613ec4565b915050608083015184820360808601526145618282613ec4565b91505060a083015161457660a0860182613e2e565b5060c083015161458960c0860182613e2e565b5060e083015161459c60e0860182613e2e565b506101008301518482036101008601526145b68282613fad565b9150506101208301518482036101208601526145d282826140d0565b9150508091505092915050565b600060208201905081810360008301526145f981846144f0565b905092915050565b61460a81613e5d565b811461461557600080fd5b50565b60008135905061462781614601565b92915050565b6146368161404e565b811461464157600080fd5b50565b6000813590506146538161462d565b92915050565b60008060006060848603121561467257614671613bf3565b5b600061468086828701614618565b935050602084013567ffffffffffffffff8111156146a1576146a0613bf8565b5b6146ad86828701613d78565b92505060406146be86828701614644565b9150509250925092565b600060408301600083015184820360008601526146e5828261412e565b915050602083015184820360208601526146ff82826143b0565b9150508091505092915050565b6000602082019050818103600083015261472681846146c8565b905092915050565b61473781613bfd565b82525050565b61474681613e5d565b82525050565b600082825260208201905092915050565b600061476882613e7e565b614772818561474c565b9350614782818560208601613e9a565b61478b81613c6a565b840191505092915050565b6000610100820190506147ac600083018b61472e565b6147b9602083018a61473d565b6147c6604083018961472e565b81810360608301526147d8818861475d565b905081810360808301526147ec818761475d565b90506147fb60a083018661472e565b61480860c083018561472e565b61481560e083018461472e565b9998505050505050505050565b60006020828403121561483857614837613bf3565b5b600061484684828501614618565b91505092915050565b600081519050919050565b600082825260208201905092915050565b6000819050602082019050919050565b600060a0830160008301516148936000860182613e6f565b5060208301516148a66020860182613e6f565b5060408301516148b96040860182613e2e565b50606083015184820360608601526148d18282613ec4565b91505060808301516148e6608086018261405a565b508091505092915050565b60006148fd838361487b565b905092915050565b6000602082019050919050565b600061491d8261484f565b614927818561485a565b9350836020820285016149398561486b565b8060005b85811015614975578484038952815161495685826148f1565b945061496183614905565b925060208a0199505060018101905061493d565b50829750879550505050505092915050565b600060208201905081810360008301526149a18184614912565b905092915050565b600080600080600060a086880312156149c5576149c4613bf3565b5b60006149d388828901613c1e565b955050602086013567ffffffffffffffff8111156149f4576149f3613bf8565b5b614a0088828901613d78565b945050604086013567ffffffffffffffff811115614a2157614a20613bf8565b5b614a2d88828901613d78565b9350506060614a3e88828901613c1e565b925050608086013567ffffffffffffffff811115614a5f57614a5e613bf8565b5b614a6b88828901613d78565b9150509295509295909350565b60008060408385031215614a8f57614a8e613bf3565b5b6000614a9d85828601613c1e565b9250506020614aae85828601614644565b9150509250929050565b7f4e487b7100000000000000000000000000000000000000000000000000000000600052603260045260246000fd5b7f4e487b7100000000000000000000000000000000000000000000000000000000600052601160045260246000fd5b6000614b2182613bfd565b9150614b2c83613bfd565b9250828203905081811115614b4457614b43614ae7565b5b92915050565b6000614b5582613bfd565b9150614b6083613bfd565b9250828201905080821115614b7857614b77614ae7565b5b92915050565b6000614b8982613bfd565b91507fffffffffffffffffffffffffffffffffffffffffffffffffffffffffffffffff8203614bbb57614bba614ae7565b5b600182019050919050565b7f4e487b7100000000000000000000000000000000000000000000000000000000600052603160045260246000fd5b7f596f7520646f6e2774206861766520616e792072617465000000000000000000600082015250565b6000614c2b60178361474c565b9150614c3682614bf5565b602082019050919050565b60006020820190508181036000830152614c5a81614c1e565b9050919050565b7f4e487b7100000000000000000000000000000000000000000000000000000000600052602260045260246000fd5b60006002820490506001821680614ca857607f821691505b602082108103614cbb57614cba614c61565b5b50919050565b60008190508160005260206000209050919050565b60006020601f8301049050919050565b600082821b905092915050565b600060088302614d237fffffffffffffffffffffffffffffffffffffffffffffffffffffffffffffffff82614ce6565b614d2d8683614ce6565b95508019841693508086168417925050509392505050565b6000819050919050565b6000614d6a614d65614d6084613bfd565b614d45565b613bfd565b9050919050565b6000819050919050565b614d8483614d4f565b614d98614d9082614d71565b848454614cf3565b825550505050565b600090565b614dad614da0565b614db8818484614d7b565b505050565b5b81811015614ddc57614dd1600082614da5565b600181019050614dbe565b5050565b601f821115614e2157614df281614cc1565b614dfb84614cd6565b81016020851015614e0a578190505b614e1e614e1685614cd6565b830182614dbd565b50505b505050565b600082821c905092915050565b6000614e4460001984600802614e26565b1980831691505092915050565b6000614e5d8383614e33565b9150826002028217905092915050565b614e7682613e7e565b67ffffffffffffffff811115614e8f57614e8e613c7b565b5b614e998254614c90565b614ea4828285614de0565b600060209050601f831160018114614ed75760008415614ec5578287015190505b614ecf8582614e51565b865550614f37565b601f198416614ee586614cc1565b60005b82811015614f0d57848901518255600182019150602085019450602081019050614ee8565b86831015614f2a5784890151614f26601f891682614e33565b8355505b6001600288020188555050505b505050505050565b7f596f7520646f6e277420686176652061636365737320746f207468697320696e60008201527f666f2e20596f75206861766520746f20706179206f776e6572206f6620696e6660208201527f6f2e000000000000000000000000000000000000000000000000000000000000604082015250565b6000614fc160428361474c565b9150614fcc82614f3f565b606082019050919050565b60006020820190508181036000830152614ff081614fb4565b9050919050565b7f596f7520617265206f776e6572206f6620746869732073656372657420696e6660008201527f6f00000000000000000000000000000000000000000000000000000000000000602082015250565b600061505360218361474c565b915061505e82614ff7565b604082019050919050565b6000602082019050818103600083015261508281615046565b9050919050565b7f57726f6e67204554482028574549292076616c75650000000000000000000000600082015250565b60006150bf60158361474c565b91506150ca82615089565b602082019050919050565b600060208201905081810360008301526150ee816150b2565b9050919050565b7f537570706c7920686173206265656e2075736564000000000000000000000000600082015250565b600061512b60148361474c565b9150615136826150f5565b602082019050919050565b6000602082019050818103600083015261515a8161511e565b9050919050565b7f596f7520616c7265616479207061696420666f72207468697320696e666f0000600082015250565b6000615197601e8361474c565b91506151a282615161565b602082019050919050565b600060208201905081810360008301526151c68161518a565b9050919050565b600081905092915050565b50565b60006151e86000836151cd565b91506151f3826151d8565b600082019050919050565b6000615209826151db565b9150819050919050565b7f4661696c656420746f2073656e64204574686572000000000000000000000000600082015250565b600061524960148361474c565b915061525482615213565b602082019050919050565b600060208201905081810360008301526152788161523c565b9050919050565b7f596f7520616c72656164792072617465207468697320696e666f000000000000600082015250565b60006152b5601a8361474c565b91506152c08261527f565b602082019050919050565b600060208201905081810360008301526152e4816152a8565b9050919050565b7f537472696e67206c656e677468206578636565647320746865206d6178696d7560008201527f6d20616c6c6f7765640000000000000000000000000000000000000000000000602082015250565b600061534760298361474c565b9150615352826152eb565b604082019050919050565b600060208201905081810360008301526153768161533a565b9050919050565b7f4e756d626572206578636565647320746865206d6178696d756d20616c6c6f7760008201527f6564000000000000000000000000000000000000000000000000000000000000602082015250565b60006153d960228361474c565b91506153e48261537d565b604082019050919050565b60006020820190508181036000830152615408816153cc565b905091905056fea2646970667358221220c114146f49b448c1cce1fff224979061acd4101f60e5865dc7580db5d64a728a64736f6c63430008120033",
  "linkReferences": {},
  "deployedLinkReferences": {}
}