{
  "_format": "hh-sol-artifact-1",
  "contractName": "CompaniesSalaries",
  "sourceName": "contracts/CompaniesSalaries.sol",
  "abi": [
    {
      "inputs": [
        {
          "internalType": "uint256",
          "name": "_current",
          "type": "uint256"
        },
        {
          "internalType": "uint256",
          "name": "_first",
          "type": "uint256"
        },
        {
          "internalType": "uint256",
          "name": "_speed_of_growth",
          "type": "uint256"
        },
        {
          "internalType": "uint256",
          "name": "_raise_change",
          "type": "uint256"
        },
        {
          "internalType": "string",
          "name": "_role",
          "type": "string"
        },
        {
          "internalType": "string",
          "name": "_experience",
          "type": "string"
        },
        {
          "internalType": "string",
          "name": "_opinion",
          "type": "string"
        },
        {
          "internalType": "uint256",
          "name": "_company_id",
          "type": "uint256"
        },
        {
          "internalType": "string",
          "name": "_company_name",
          "type": "string"
        }
      ],
      "name": "addSalary",
      "outputs": [],
      "stateMutability": "nonpayable",
      "type": "function"
    },
    {
      "inputs": [
        {
          "internalType": "uint256",
          "name": "_salary_id",
          "type": "uint256"
        },
        {
          "internalType": "bool",
          "name": "_rate",
          "type": "bool"
        }
      ],
      "name": "addSalaryRate",
      "outputs": [],
      "stateMutability": "nonpayable",
      "type": "function"
    },
    {
      "inputs": [
        {
          "internalType": "uint256",
          "name": "_salary_id",
          "type": "uint256"
        },
        {
          "internalType": "string",
          "name": "_content",
          "type": "string"
        }
      ],
      "name": "addSalaryReply",
      "outputs": [],
      "stateMutability": "nonpayable",
      "type": "function"
    },
    {
      "inputs": [
        {
          "internalType": "uint256",
          "name": "_salary_id",
          "type": "uint256"
        }
      ],
      "name": "changeSalaryRate",
      "outputs": [],
      "stateMutability": "nonpayable",
      "type": "function"
    },
    {
      "inputs": [],
      "name": "getSalaries",
      "outputs": [
        {
          "components": [
            {
              "internalType": "uint256",
              "name": "salary_id",
              "type": "uint256"
            },
            {
              "internalType": "address",
              "name": "owner_address",
              "type": "address"
            },
            {
              "internalType": "uint256",
              "name": "current",
              "type": "uint256"
            },
            {
              "internalType": "uint256",
              "name": "first",
              "type": "uint256"
            },
            {
              "internalType": "uint256",
              "name": "speed_of_growth",
              "type": "uint256"
            },
            {
              "internalType": "uint256",
              "name": "raise_change",
              "type": "uint256"
            },
            {
              "internalType": "string",
              "name": "role",
              "type": "string"
            },
            {
              "internalType": "string",
              "name": "experience",
              "type": "string"
            },
            {
              "internalType": "string",
              "name": "opinion",
              "type": "string"
            },
            {
              "internalType": "uint256",
              "name": "company_id",
              "type": "uint256"
            },
            {
              "internalType": "string",
              "name": "company_name",
              "type": "string"
            },
            {
              "internalType": "uint256",
              "name": "created_at",
              "type": "uint256"
            },
            {
              "components": [
                {
                  "internalType": "uint256",
                  "name": "id",
                  "type": "uint256"
                },
                {
                  "internalType": "address",
                  "name": "owner_address",
                  "type": "address"
                },
                {
                  "internalType": "uint256",
                  "name": "created_at",
                  "type": "uint256"
                },
                {
                  "internalType": "string",
                  "name": "content",
                  "type": "string"
                }
              ],
              "internalType": "struct Structs.Reply[]",
              "name": "replies",
              "type": "tuple[]"
            },
            {
              "components": [
                {
                  "internalType": "uint256",
                  "name": "id",
                  "type": "uint256"
                },
                {
                  "internalType": "address",
                  "name": "owner_address",
                  "type": "address"
                },
                {
                  "internalType": "bool",
                  "name": "rate",
                  "type": "bool"
                }
              ],
              "internalType": "struct Structs.Rate[]",
              "name": "rates",
              "type": "tuple[]"
            }
          ],
          "internalType": "struct CompaniesSalariesStructs.Salary[]",
          "name": "",
          "type": "tuple[]"
        }
      ],
      "stateMutability": "view",
      "type": "function"
    },
    {
      "inputs": [
        {
          "internalType": "uint256",
          "name": "_company_id",
          "type": "uint256"
        }
      ],
      "name": "getSalariesByCompanyId",
      "outputs": [
        {
          "components": [
            {
              "internalType": "uint256",
              "name": "salary_id",
              "type": "uint256"
            },
            {
              "internalType": "address",
              "name": "owner_address",
              "type": "address"
            },
            {
              "internalType": "uint256",
              "name": "current",
              "type": "uint256"
            },
            {
              "internalType": "uint256",
              "name": "first",
              "type": "uint256"
            },
            {
              "internalType": "uint256",
              "name": "speed_of_growth",
              "type": "uint256"
            },
            {
              "internalType": "uint256",
              "name": "raise_change",
              "type": "uint256"
            },
            {
              "internalType": "string",
              "name": "role",
              "type": "string"
            },
            {
              "internalType": "string",
              "name": "experience",
              "type": "string"
            },
            {
              "internalType": "string",
              "name": "opinion",
              "type": "string"
            },
            {
              "internalType": "uint256",
              "name": "company_id",
              "type": "uint256"
            },
            {
              "internalType": "string",
              "name": "company_name",
              "type": "string"
            },
            {
              "internalType": "uint256",
              "name": "created_at",
              "type": "uint256"
            },
            {
              "components": [
                {
                  "internalType": "uint256",
                  "name": "id",
                  "type": "uint256"
                },
                {
                  "internalType": "address",
                  "name": "owner_address",
                  "type": "address"
                },
                {
                  "internalType": "uint256",
                  "name": "created_at",
                  "type": "uint256"
                },
                {
                  "internalType": "string",
                  "name": "content",
                  "type": "string"
                }
              ],
              "internalType": "struct Structs.Reply[]",
              "name": "replies",
              "type": "tuple[]"
            },
            {
              "components": [
                {
                  "internalType": "uint256",
                  "name": "id",
                  "type": "uint256"
                },
                {
                  "internalType": "address",
                  "name": "owner_address",
                  "type": "address"
                },
                {
                  "internalType": "bool",
                  "name": "rate",
                  "type": "bool"
                }
              ],
              "internalType": "struct Structs.Rate[]",
              "name": "rates",
              "type": "tuple[]"
            }
          ],
          "internalType": "struct CompaniesSalariesStructs.Salary[]",
          "name": "",
          "type": "tuple[]"
        }
      ],
      "stateMutability": "view",
      "type": "function"
    },
    {
      "inputs": [
        {
          "internalType": "string",
          "name": "_company_name",
          "type": "string"
        }
      ],
      "name": "getSalariesByCompanyName",
      "outputs": [
        {
          "components": [
            {
              "internalType": "uint256",
              "name": "salary_id",
              "type": "uint256"
            },
            {
              "internalType": "address",
              "name": "owner_address",
              "type": "address"
            },
            {
              "internalType": "uint256",
              "name": "current",
              "type": "uint256"
            },
            {
              "internalType": "uint256",
              "name": "first",
              "type": "uint256"
            },
            {
              "internalType": "uint256",
              "name": "speed_of_growth",
              "type": "uint256"
            },
            {
              "internalType": "uint256",
              "name": "raise_change",
              "type": "uint256"
            },
            {
              "internalType": "string",
              "name": "role",
              "type": "string"
            },
            {
              "internalType": "string",
              "name": "experience",
              "type": "string"
            },
            {
              "internalType": "string",
              "name": "opinion",
              "type": "string"
            },
            {
              "internalType": "uint256",
              "name": "company_id",
              "type": "uint256"
            },
            {
              "internalType": "string",
              "name": "company_name",
              "type": "string"
            },
            {
              "internalType": "uint256",
              "name": "created_at",
              "type": "uint256"
            },
            {
              "components": [
                {
                  "internalType": "uint256",
                  "name": "id",
                  "type": "uint256"
                },
                {
                  "internalType": "address",
                  "name": "owner_address",
                  "type": "address"
                },
                {
                  "internalType": "uint256",
                  "name": "created_at",
                  "type": "uint256"
                },
                {
                  "internalType": "string",
                  "name": "content",
                  "type": "string"
                }
              ],
              "internalType": "struct Structs.Reply[]",
              "name": "replies",
              "type": "tuple[]"
            },
            {
              "components": [
                {
                  "internalType": "uint256",
                  "name": "id",
                  "type": "uint256"
                },
                {
                  "internalType": "address",
                  "name": "owner_address",
                  "type": "address"
                },
                {
                  "internalType": "bool",
                  "name": "rate",
                  "type": "bool"
                }
              ],
              "internalType": "struct Structs.Rate[]",
              "name": "rates",
              "type": "tuple[]"
            }
          ],
          "internalType": "struct CompaniesSalariesStructs.Salary[]",
          "name": "",
          "type": "tuple[]"
        }
      ],
      "stateMutability": "view",
      "type": "function"
    },
    {
      "inputs": [
        {
          "internalType": "uint256",
          "name": "_salary_id",
          "type": "uint256"
        }
      ],
      "name": "getSalaryById",
      "outputs": [
        {
          "components": [
            {
              "internalType": "uint256",
              "name": "salary_id",
              "type": "uint256"
            },
            {
              "internalType": "address",
              "name": "owner_address",
              "type": "address"
            },
            {
              "internalType": "uint256",
              "name": "current",
              "type": "uint256"
            },
            {
              "internalType": "uint256",
              "name": "first",
              "type": "uint256"
            },
            {
              "internalType": "uint256",
              "name": "speed_of_growth",
              "type": "uint256"
            },
            {
              "internalType": "uint256",
              "name": "raise_change",
              "type": "uint256"
            },
            {
              "internalType": "string",
              "name": "role",
              "type": "string"
            },
            {
              "internalType": "string",
              "name": "experience",
              "type": "string"
            },
            {
              "internalType": "string",
              "name": "opinion",
              "type": "string"
            },
            {
              "internalType": "uint256",
              "name": "company_id",
              "type": "uint256"
            },
            {
              "internalType": "string",
              "name": "company_name",
              "type": "string"
            },
            {
              "internalType": "uint256",
              "name": "created_at",
              "type": "uint256"
            },
            {
              "components": [
                {
                  "internalType": "uint256",
                  "name": "id",
                  "type": "uint256"
                },
                {
                  "internalType": "address",
                  "name": "owner_address",
                  "type": "address"
                },
                {
                  "internalType": "uint256",
                  "name": "created_at",
                  "type": "uint256"
                },
                {
                  "internalType": "string",
                  "name": "content",
                  "type": "string"
                }
              ],
              "internalType": "struct Structs.Reply[]",
              "name": "replies",
              "type": "tuple[]"
            },
            {
              "components": [
                {
                  "internalType": "uint256",
                  "name": "id",
                  "type": "uint256"
                },
                {
                  "internalType": "address",
                  "name": "owner_address",
                  "type": "address"
                },
                {
                  "internalType": "bool",
                  "name": "rate",
                  "type": "bool"
                }
              ],
              "internalType": "struct Structs.Rate[]",
              "name": "rates",
              "type": "tuple[]"
            }
          ],
          "internalType": "struct CompaniesSalariesStructs.Salary",
          "name": "",
          "type": "tuple"
        }
      ],
      "stateMutability": "view",
      "type": "function"
    },
    {
      "inputs": [
        {
          "internalType": "uint256",
          "name": "_salary_id",
          "type": "uint256"
        }
      ],
      "name": "removeSalaryRate",
      "outputs": [],
      "stateMutability": "nonpayable",
      "type": "function"
    }
  ],
  "bytecode": "0x6080604052600080556000600155600060025534801561001e57600080fd5b506136f08061002e6000396000f3fe608060405234801561001057600080fd5b50600436106100935760003560e01c80636e6ab5dc116100665780636e6ab5dc146101325780639293e39f1461014e578063bf22d2771461016a578063d6b4f86e1461019a578063f5c2dbf5146101b657610093565b8063055791cc146100985780633012c9b9146100c85780634dd5a0be146100e65780636c148c6214610116575b600080fd5b6100b260048036038101906100ad919061263a565b6101d2565b6040516100bf9190612ba0565b60405180910390f35b6100d061080a565b6040516100dd9190612ba0565b60405180910390f35b61010060048036038101906100fb9190612bee565b610d83565b60405161010d9190612d6c565b60405180910390f35b610130600480360381019061012b9190612dba565b6112d9565b005b61014c60048036038101906101479190612dfa565b611508565b005b61016860048036038101906101639190612f34565b61168d565b005b610184600480360381019061017f9190612bee565b6117af565b6040516101919190612ba0565b60405180910390f35b6101b460048036038101906101af9190612bee565b611de0565b005b6101d060048036038101906101cb9190612bee565b612124565b005b6060600060038054905067ffffffffffffffff8111156101f5576101f461250f565b5b60405190808252806020026020018201604052801561022e57816020015b61021b61245b565b8152602001906001900390816102135790505b5090506000805b6003805490508110156107fc576102706003828154811061025957610258612f90565b5b90600052602060002090600e0201600a0186612373565b156107e9576003818154811061028957610288612f90565b5b90600052602060002090600e0201604051806101c0016040529081600082015481526020016001820160009054906101000a900473ffffffffffffffffffffffffffffffffffffffff1673ffffffffffffffffffffffffffffffffffffffff1673ffffffffffffffffffffffffffffffffffffffff1681526020016002820154815260200160038201548152602001600482015481526020016005820154815260200160068201805461033b90612fee565b80601f016020809104026020016040519081016040528092919081815260200182805461036790612fee565b80156103b45780601f10610389576101008083540402835291602001916103b4565b820191906000526020600020905b81548152906001019060200180831161039757829003601f168201915b505050505081526020016007820180546103cd90612fee565b80601f01602080910402602001604051908101604052809291908181526020018280546103f990612fee565b80156104465780601f1061041b57610100808354040283529160200191610446565b820191906000526020600020905b81548152906001019060200180831161042957829003601f168201915b5050505050815260200160088201805461045f90612fee565b80601f016020809104026020016040519081016040528092919081815260200182805461048b90612fee565b80156104d85780601f106104ad576101008083540402835291602001916104d8565b820191906000526020600020905b8154815290600101906020018083116104bb57829003601f168201915b5050505050815260200160098201548152602001600a820180546104fb90612fee565b80601f016020809104026020016040519081016040528092919081815260200182805461052790612fee565b80156105745780601f1061054957610100808354040283529160200191610574565b820191906000526020600020905b81548152906001019060200180831161055757829003601f168201915b50505050508152602001600b8201548152602001600c8201805480602002602001604051908101604052809291908181526020016000905b828210156106da5783829060005260206000209060040201604051806080016040529081600082015481526020016001820160009054906101000a900473ffffffffffffffffffffffffffffffffffffffff1673ffffffffffffffffffffffffffffffffffffffff1673ffffffffffffffffffffffffffffffffffffffff1681526020016002820154815260200160038201805461064990612fee565b80601f016020809104026020016040519081016040528092919081815260200182805461067590612fee565b80156106c25780601f10610697576101008083540402835291602001916106c2565b820191906000526020600020905b8154815290600101906020018083116106a557829003601f168201915b505050505081525050815260200190600101906105ac565b505050508152602001600d8201805480602002602001604051908101604052809291908181526020016000905b828210156107b45783829060005260206000209060020201604051806060016040529081600082015481526020016001820160009054906101000a900473ffffffffffffffffffffffffffffffffffffffff1673ffffffffffffffffffffffffffffffffffffffff1673ffffffffffffffffffffffffffffffffffffffff1681526020016001820160149054906101000a900460ff16151515158152505081526020019060010190610707565b50505050815250508383815181106107cf576107ce612f90565b5b602002602001018190525081806107e59061304e565b9250505b80806107f49061304e565b915050610235565b508082528192505050919050565b60606003805480602002602001604051908101604052809291908181526020016000905b82821015610d7a57838290600052602060002090600e0201604051806101c0016040529081600082015481526020016001820160009054906101000a900473ffffffffffffffffffffffffffffffffffffffff1673ffffffffffffffffffffffffffffffffffffffff1673ffffffffffffffffffffffffffffffffffffffff168152602001600282015481526020016003820154815260200160048201548152602001600582015481526020016006820180546108ea90612fee565b80601f016020809104026020016040519081016040528092919081815260200182805461091690612fee565b80156109635780601f1061093857610100808354040283529160200191610963565b820191906000526020600020905b81548152906001019060200180831161094657829003601f168201915b5050505050815260200160078201805461097c90612fee565b80601f01602080910402602001604051908101604052809291908181526020018280546109a890612fee565b80156109f55780601f106109ca576101008083540402835291602001916109f5565b820191906000526020600020905b8154815290600101906020018083116109d857829003601f168201915b50505050508152602001600882018054610a0e90612fee565b80601f0160208091040260200160405190810160405280929190818152602001828054610a3a90612fee565b8015610a875780601f10610a5c57610100808354040283529160200191610a87565b820191906000526020600020905b815481529060010190602001808311610a6a57829003601f168201915b5050505050815260200160098201548152602001600a82018054610aaa90612fee565b80601f0160208091040260200160405190810160405280929190818152602001828054610ad690612fee565b8015610b235780601f10610af857610100808354040283529160200191610b23565b820191906000526020600020905b815481529060010190602001808311610b0657829003601f168201915b50505050508152602001600b8201548152602001600c8201805480602002602001604051908101604052809291908181526020016000905b82821015610c895783829060005260206000209060040201604051806080016040529081600082015481526020016001820160009054906101000a900473ffffffffffffffffffffffffffffffffffffffff1673ffffffffffffffffffffffffffffffffffffffff1673ffffffffffffffffffffffffffffffffffffffff16815260200160028201548152602001600382018054610bf890612fee565b80601f0160208091040260200160405190810160405280929190818152602001828054610c2490612fee565b8015610c715780601f10610c4657610100808354040283529160200191610c71565b820191906000526020600020905b815481529060010190602001808311610c5457829003601f168201915b50505050508152505081526020019060010190610b5b565b505050508152602001600d8201805480602002602001604051908101604052809291908181526020016000905b82821015610d635783829060005260206000209060020201604051806060016040529081600082015481526020016001820160009054906101000a900473ffffffffffffffffffffffffffffffffffffffff1673ffffffffffffffffffffffffffffffffffffffff1673ffffffffffffffffffffffffffffffffffffffff1681526020016001820160149054906101000a900460ff16151515158152505081526020019060010190610cb6565b50505050815250508152602001906001019061082e565b50505050905090565b610d8b61245b565b60038281548110610d9f57610d9e612f90565b5b90600052602060002090600e0201604051806101c0016040529081600082015481526020016001820160009054906101000a900473ffffffffffffffffffffffffffffffffffffffff1673ffffffffffffffffffffffffffffffffffffffff1673ffffffffffffffffffffffffffffffffffffffff16815260200160028201548152602001600382015481526020016004820154815260200160058201548152602001600682018054610e5190612fee565b80601f0160208091040260200160405190810160405280929190818152602001828054610e7d90612fee565b8015610eca5780601f10610e9f57610100808354040283529160200191610eca565b820191906000526020600020905b815481529060010190602001808311610ead57829003601f168201915b50505050508152602001600782018054610ee390612fee565b80601f0160208091040260200160405190810160405280929190818152602001828054610f0f90612fee565b8015610f5c5780601f10610f3157610100808354040283529160200191610f5c565b820191906000526020600020905b815481529060010190602001808311610f3f57829003601f168201915b50505050508152602001600882018054610f7590612fee565b80601f0160208091040260200160405190810160405280929190818152602001828054610fa190612fee565b8015610fee5780601f10610fc357610100808354040283529160200191610fee565b820191906000526020600020905b815481529060010190602001808311610fd157829003601f168201915b5050505050815260200160098201548152602001600a8201805461101190612fee565b80601f016020809104026020016040519081016040528092919081815260200182805461103d90612fee565b801561108a5780601f1061105f5761010080835404028352916020019161108a565b820191906000526020600020905b81548152906001019060200180831161106d57829003601f168201915b50505050508152602001600b8201548152602001600c8201805480602002602001604051908101604052809291908181526020016000905b828210156111f05783829060005260206000209060040201604051806080016040529081600082015481526020016001820160009054906101000a900473ffffffffffffffffffffffffffffffffffffffff1673ffffffffffffffffffffffffffffffffffffffff1673ffffffffffffffffffffffffffffffffffffffff1681526020016002820154815260200160038201805461115f90612fee565b80601f016020809104026020016040519081016040528092919081815260200182805461118b90612fee565b80156111d85780601f106111ad576101008083540402835291602001916111d8565b820191906000526020600020905b8154815290600101906020018083116111bb57829003601f168201915b505050505081525050815260200190600101906110c2565b505050508152602001600d8201805480602002602001604051908101604052809291908181526020016000905b828210156112ca5783829060005260206000209060020201604051806060016040529081600082015481526020016001820160009054906101000a900473ffffffffffffffffffffffffffffffffffffffff1673ffffffffffffffffffffffffffffffffffffffff1673ffffffffffffffffffffffffffffffffffffffff1681526020016001820160149054906101000a900460ff1615151515815250508152602001906001019061121d565b50505050815250509050919050565b60005b600383815481106112f0576112ef612f90565b5b90600052602060002090600e0201600d01805490508110156113f5573373ffffffffffffffffffffffffffffffffffffffff166003848154811061133757611336612f90565b5b90600052602060002090600e0201600d01828154811061135a57611359612f90565b5b906000526020600020906002020160010160009054906101000a900473ffffffffffffffffffffffffffffffffffffffff1673ffffffffffffffffffffffffffffffffffffffff16036113e2576040517f08c379a00000000000000000000000000000000000000000000000000000000081526004016113d9906130f3565b60405180910390fd5b80806113ed9061304e565b9150506112dc565b506003828154811061140a57611409612f90565b5b90600052602060002090600e0201600d01604051806060016040528060015481526020013373ffffffffffffffffffffffffffffffffffffffff16815260200183151581525090806001815401808255809150506001900390600052602060002090600202016000909190919091506000820151816000015560208201518160010160006101000a81548173ffffffffffffffffffffffffffffffffffffffff021916908373ffffffffffffffffffffffffffffffffffffffff16021790555060408201518160010160146101000a81548160ff0219169083151502179055505050600260008154809291906114ff9061304e565b91905055505050565b600060036001816001815401808255809150500390600052602060002090600e020190506115398a629896806123cc565b61154689629896806123cc565b611552886127106123cc565b61155f87620f42406123cc565b61156a866064612413565b611575856064612413565b611581846103e8612413565b61159383670de0b6b3a76400006123cc565b61159e856064612413565b6000548160000181905550338160010160006101000a81548173ffffffffffffffffffffffffffffffffffffffff021916908373ffffffffffffffffffffffffffffffffffffffff1602179055508981600201819055508881600301819055508781600401819055508681600501819055508581600601908161162191906132bf565b508481600701908161163391906132bf565b508381600801908161164591906132bf565b508281600901819055508181600a01908161166091906132bf565b504281600b018190555060008081548092919061167c9061304e565b919050555050505050505050505050565b611699816103e8612413565b600382815481106116ad576116ac612f90565b5b90600052602060002090600e0201600c01604051806080016040528060015481526020013373ffffffffffffffffffffffffffffffffffffffff1681526020014281526020018381525090806001815401808255809150506001900390600052602060002090600402016000909190919091506000820151816000015560208201518160010160006101000a81548173ffffffffffffffffffffffffffffffffffffffff021916908373ffffffffffffffffffffffffffffffffffffffff16021790555060408201518160020155606082015181600301908161179091906132bf565b505050600160008154809291906117a69061304e565b91905055505050565b6060600060038054905067ffffffffffffffff8111156117d2576117d161250f565b5b60405190808252806020026020018201604052801561180b57816020015b6117f861245b565b8152602001906001900390816117f05790505b5090506000805b600380549050811015611dd257846003828154811061183457611833612f90565b5b90600052602060002090600e02016009015403611dbf576003818154811061185f5761185e612f90565b5b90600052602060002090600e0201604051806101c0016040529081600082015481526020016001820160009054906101000a900473ffffffffffffffffffffffffffffffffffffffff1673ffffffffffffffffffffffffffffffffffffffff1673ffffffffffffffffffffffffffffffffffffffff1681526020016002820154815260200160038201548152602001600482015481526020016005820154815260200160068201805461191190612fee565b80601f016020809104026020016040519081016040528092919081815260200182805461193d90612fee565b801561198a5780601f1061195f5761010080835404028352916020019161198a565b820191906000526020600020905b81548152906001019060200180831161196d57829003601f168201915b505050505081526020016007820180546119a390612fee565b80601f01602080910402602001604051908101604052809291908181526020018280546119cf90612fee565b8015611a1c5780601f106119f157610100808354040283529160200191611a1c565b820191906000526020600020905b8154815290600101906020018083116119ff57829003601f168201915b50505050508152602001600882018054611a3590612fee565b80601f0160208091040260200160405190810160405280929190818152602001828054611a6190612fee565b8015611aae5780601f10611a8357610100808354040283529160200191611aae565b820191906000526020600020905b815481529060010190602001808311611a9157829003601f168201915b5050505050815260200160098201548152602001600a82018054611ad190612fee565b80601f0160208091040260200160405190810160405280929190818152602001828054611afd90612fee565b8015611b4a5780601f10611b1f57610100808354040283529160200191611b4a565b820191906000526020600020905b815481529060010190602001808311611b2d57829003601f168201915b50505050508152602001600b8201548152602001600c8201805480602002602001604051908101604052809291908181526020016000905b82821015611cb05783829060005260206000209060040201604051806080016040529081600082015481526020016001820160009054906101000a900473ffffffffffffffffffffffffffffffffffffffff1673ffffffffffffffffffffffffffffffffffffffff1673ffffffffffffffffffffffffffffffffffffffff16815260200160028201548152602001600382018054611c1f90612fee565b80601f0160208091040260200160405190810160405280929190818152602001828054611c4b90612fee565b8015611c985780601f10611c6d57610100808354040283529160200191611c98565b820191906000526020600020905b815481529060010190602001808311611c7b57829003601f168201915b50505050508152505081526020019060010190611b82565b505050508152602001600d8201805480602002602001604051908101604052809291908181526020016000905b82821015611d8a5783829060005260206000209060020201604051806060016040529081600082015481526020016001820160009054906101000a900473ffffffffffffffffffffffffffffffffffffffff1673ffffffffffffffffffffffffffffffffffffffff1673ffffffffffffffffffffffffffffffffffffffff1681526020016001820160149054906101000a900460ff16151515158152505081526020019060010190611cdd565b5050505081525050838381518110611da557611da4612f90565b5b60200260200101819052508180611dbb9061304e565b9250505b8080611dca9061304e565b915050611812565b508082528192505050919050565b60005b60038281548110611df757611df6612f90565b5b90600052602060002090600e0201600d01805490508110156120e5573373ffffffffffffffffffffffffffffffffffffffff1660038381548110611e3e57611e3d612f90565b5b90600052602060002090600e0201600d018281548110611e6157611e60612f90565b5b906000526020600020906002020160010160009054906101000a900473ffffffffffffffffffffffffffffffffffffffff1673ffffffffffffffffffffffffffffffffffffffff16036120d25760008190505b600160038481548110611eca57611ec9612f90565b5b90600052602060002090600e0201600d0180549050611ee99190613391565b81101561203a5760038381548110611f0457611f03612f90565b5b90600052602060002090600e0201600d01600182611f2291906133c5565b81548110611f3357611f32612f90565b5b906000526020600020906002020160038481548110611f5557611f54612f90565b5b90600052602060002090600e0201600d018281548110611f7857611f77612f90565b5b9060005260206000209060020201600082015481600001556001820160009054906101000a900473ffffffffffffffffffffffffffffffffffffffff168160010160006101000a81548173ffffffffffffffffffffffffffffffffffffffff021916908373ffffffffffffffffffffffffffffffffffffffff1602179055506001820160149054906101000a900460ff168160010160146101000a81548160ff02191690831515021790555090505080806120329061304e565b915050611eb4565b506003828154811061204f5761204e612f90565b5b90600052602060002090600e0201600d018054806120705761206f6133f9565b5b60019003818190600052602060002090600202016000808201600090556001820160006101000a81549073ffffffffffffffffffffffffffffffffffffffff02191690556001820160146101000a81549060ff02191690555050905550612121565b80806120dd9061304e565b915050611de3565b506040517f08c379a000000000000000000000000000000000000000000000000000000000815260040161211890613474565b60405180910390fd5b50565b60005b6003828154811061213b5761213a612f90565b5b90600052602060002090600e0201600d0180549050811015612334573373ffffffffffffffffffffffffffffffffffffffff166003838154811061218257612181612f90565b5b90600052602060002090600e0201600d0182815481106121a5576121a4612f90565b5b906000526020600020906002020160010160009054906101000a900473ffffffffffffffffffffffffffffffffffffffff1673ffffffffffffffffffffffffffffffffffffffff160361232157600115156003838154811061220a57612209612f90565b5b90600052602060002090600e0201600d01828154811061222d5761222c612f90565b5b906000526020600020906002020160010160149054906101000a900460ff161515036122ba5760006003838154811061226957612268612f90565b5b90600052602060002090600e0201600d01828154811061228c5761228b612f90565b5b906000526020600020906002020160010160146101000a81548160ff02191690831515021790555050612370565b6001600383815481106122d0576122cf612f90565b5b90600052602060002090600e0201600d0182815481106122f3576122f2612f90565b5b906000526020600020906002020160010160146101000a81548160ff02191690831515021790555050612370565b808061232c9061304e565b915050612127565b506040517f08c379a000000000000000000000000000000000000000000000000000000000815260040161236790613474565b60405180910390fd5b50565b60008160405160200161238691906134d0565b60405160208183030381529060405280519060200120836040516020016123ad919061357f565b6040516020818303038152906040528051906020012014905092915050565b8082111561240f576040517f08c379a000000000000000000000000000000000000000000000000000000000815260040161240690613608565b60405180910390fd5b5050565b8082511115612457576040517f08c379a000000000000000000000000000000000000000000000000000000000815260040161244e9061369a565b60405180910390fd5b5050565b604051806101c0016040528060008152602001600073ffffffffffffffffffffffffffffffffffffffff1681526020016000815260200160008152602001600081526020016000815260200160608152602001606081526020016060815260200160008152602001606081526020016000815260200160608152602001606081525090565b6000604051905090565b600080fd5b600080fd5b600080fd5b600080fd5b6000601f19601f8301169050919050565b7f4e487b7100000000000000000000000000000000000000000000000000000000600052604160045260246000fd5b612547826124fe565b810181811067ffffffffffffffff821117156125665761256561250f565b5b80604052505050565b60006125796124e0565b9050612585828261253e565b919050565b600067ffffffffffffffff8211156125a5576125a461250f565b5b6125ae826124fe565b9050602081019050919050565b82818337600083830152505050565b60006125dd6125d88461258a565b61256f565b9050828152602081018484840111156125f9576125f86124f9565b5b6126048482856125bb565b509392505050565b600082601f830112612621576126206124f4565b5b81356126318482602086016125ca565b91505092915050565b6000602082840312156126505761264f6124ea565b5b600082013567ffffffffffffffff81111561266e5761266d6124ef565b5b61267a8482850161260c565b91505092915050565b600081519050919050565b600082825260208201905092915050565b6000819050602082019050919050565b6000819050919050565b6126c2816126af565b82525050565b600073ffffffffffffffffffffffffffffffffffffffff82169050919050565b60006126f3826126c8565b9050919050565b612703816126e8565b82525050565b600081519050919050565b600082825260208201905092915050565b60005b83811015612743578082015181840152602081019050612728565b60008484015250505050565b600061275a82612709565b6127648185612714565b9350612774818560208601612725565b61277d816124fe565b840191505092915050565b600081519050919050565b600082825260208201905092915050565b6000819050602082019050919050565b60006080830160008301516127cc60008601826126b9565b5060208301516127df60208601826126fa565b5060408301516127f260408601826126b9565b506060830151848203606086015261280a828261274f565b9150508091505092915050565b600061282383836127b4565b905092915050565b6000602082019050919050565b600061284382612788565b61284d8185612793565b93508360208202850161285f856127a4565b8060005b8581101561289b578484038952815161287c8582612817565b94506128878361282b565b925060208a01995050600181019050612863565b50829750879550505050505092915050565b600081519050919050565b600082825260208201905092915050565b6000819050602082019050919050565b60008115159050919050565b6128ee816128d9565b82525050565b60608201600082015161290a60008501826126b9565b50602082015161291d60208501826126fa565b50604082015161293060408501826128e5565b50505050565b600061294283836128f4565b60608301905092915050565b6000602082019050919050565b6000612966826128ad565b61297081856128b8565b935061297b836128c9565b8060005b838110156129ac5781516129938882612936565b975061299e8361294e565b92505060018101905061297f565b5085935050505092915050565b60006101c0830160008301516129d260008601826126b9565b5060208301516129e560208601826126fa565b5060408301516129f860408601826126b9565b506060830151612a0b60608601826126b9565b506080830151612a1e60808601826126b9565b5060a0830151612a3160a08601826126b9565b5060c083015184820360c0860152612a49828261274f565b91505060e083015184820360e0860152612a63828261274f565b915050610100830151848203610100860152612a7f828261274f565b915050610120830151612a966101208601826126b9565b50610140830151848203610140860152612ab0828261274f565b915050610160830151612ac76101608601826126b9565b50610180830151848203610180860152612ae18282612838565b9150506101a08301518482036101a0860152612afd828261295b565b9150508091505092915050565b6000612b1683836129b9565b905092915050565b6000602082019050919050565b6000612b3682612683565b612b40818561268e565b935083602082028501612b528561269f565b8060005b85811015612b8e5784840389528151612b6f8582612b0a565b9450612b7a83612b1e565b925060208a01995050600181019050612b56565b50829750879550505050505092915050565b60006020820190508181036000830152612bba8184612b2b565b905092915050565b612bcb816126af565b8114612bd657600080fd5b50565b600081359050612be881612bc2565b92915050565b600060208284031215612c0457612c036124ea565b5b6000612c1284828501612bd9565b91505092915050565b60006101c083016000830151612c3460008601826126b9565b506020830151612c4760208601826126fa565b506040830151612c5a60408601826126b9565b506060830151612c6d60608601826126b9565b506080830151612c8060808601826126b9565b5060a0830151612c9360a08601826126b9565b5060c083015184820360c0860152612cab828261274f565b91505060e083015184820360e0860152612cc5828261274f565b915050610100830151848203610100860152612ce1828261274f565b915050610120830151612cf86101208601826126b9565b50610140830151848203610140860152612d12828261274f565b915050610160830151612d296101608601826126b9565b50610180830151848203610180860152612d438282612838565b9150506101a08301518482036101a0860152612d5f828261295b565b9150508091505092915050565b60006020820190508181036000830152612d868184612c1b565b905092915050565b612d97816128d9565b8114612da257600080fd5b50565b600081359050612db481612d8e565b92915050565b60008060408385031215612dd157612dd06124ea565b5b6000612ddf85828601612bd9565b9250506020612df085828601612da5565b9150509250929050565b60008060008060008060008060006101208a8c031215612e1d57612e1c6124ea565b5b6000612e2b8c828d01612bd9565b9950506020612e3c8c828d01612bd9565b9850506040612e4d8c828d01612bd9565b9750506060612e5e8c828d01612bd9565b96505060808a013567ffffffffffffffff811115612e7f57612e7e6124ef565b5b612e8b8c828d0161260c565b95505060a08a013567ffffffffffffffff811115612eac57612eab6124ef565b5b612eb88c828d0161260c565b94505060c08a013567ffffffffffffffff811115612ed957612ed86124ef565b5b612ee58c828d0161260c565b93505060e0612ef68c828d01612bd9565b9250506101008a013567ffffffffffffffff811115612f1857612f176124ef565b5b612f248c828d0161260c565b9150509295985092959850929598565b60008060408385031215612f4b57612f4a6124ea565b5b6000612f5985828601612bd9565b925050602083013567ffffffffffffffff811115612f7a57612f796124ef565b5b612f868582860161260c565b9150509250929050565b7f4e487b7100000000000000000000000000000000000000000000000000000000600052603260045260246000fd5b7f4e487b7100000000000000000000000000000000000000000000000000000000600052602260045260246000fd5b6000600282049050600182168061300657607f821691505b60208210810361301957613018612fbf565b5b50919050565b7f4e487b7100000000000000000000000000000000000000000000000000000000600052601160045260246000fd5b6000613059826126af565b91507fffffffffffffffffffffffffffffffffffffffffffffffffffffffffffffffff820361308b5761308a61301f565b5b600182019050919050565b600082825260208201905092915050565b7f596f7520616c72656164792072617465207468697320696e666f000000000000600082015250565b60006130dd601a83613096565b91506130e8826130a7565b602082019050919050565b6000602082019050818103600083015261310c816130d0565b9050919050565b60008190508160005260206000209050919050565b60006020601f8301049050919050565b600082821b905092915050565b6000600883026131757fffffffffffffffffffffffffffffffffffffffffffffffffffffffffffffffff82613138565b61317f8683613138565b95508019841693508086168417925050509392505050565b6000819050919050565b60006131bc6131b76131b2846126af565b613197565b6126af565b9050919050565b6000819050919050565b6131d6836131a1565b6131ea6131e2826131c3565b848454613145565b825550505050565b600090565b6131ff6131f2565b61320a8184846131cd565b505050565b5b8181101561322e576132236000826131f7565b600181019050613210565b5050565b601f8211156132735761324481613113565b61324d84613128565b8101602085101561325c578190505b61327061326885613128565b83018261320f565b50505b505050565b600082821c905092915050565b600061329660001984600802613278565b1980831691505092915050565b60006132af8383613285565b9150826002028217905092915050565b6132c882612709565b67ffffffffffffffff8111156132e1576132e061250f565b5b6132eb8254612fee565b6132f6828285613232565b600060209050601f8311600181146133295760008415613317578287015190505b61332185826132a3565b865550613389565b601f19841661333786613113565b60005b8281101561335f5784890151825560018201915060208501945060208101905061333a565b8683101561337c5784890151613378601f891682613285565b8355505b6001600288020188555050505b505050505050565b600061339c826126af565b91506133a7836126af565b92508282039050818111156133bf576133be61301f565b5b92915050565b60006133d0826126af565b91506133db836126af565b92508282019050808211156133f3576133f261301f565b5b92915050565b7f4e487b7100000000000000000000000000000000000000000000000000000000600052603160045260246000fd5b7f596f7520646f6e2774206861766520616e792072617465000000000000000000600082015250565b600061345e601783613096565b915061346982613428565b602082019050919050565b6000602082019050818103600083015261348d81613451565b9050919050565b600081905092915050565b60006134aa82612709565b6134b48185613494565b93506134c4818560208601612725565b80840191505092915050565b60006134dc828461349f565b915081905092915050565b60008190508160005260206000209050919050565b6000815461350981612fee565b6135138186613494565b9450600182166000811461352e576001811461354357613576565b60ff1983168652811515820286019350613576565b61354c856134e7565b60005b8381101561356e5781548189015260018201915060208101905061354f565b838801955050505b50505092915050565b600061358b82846134fc565b915081905092915050565b7f4e756d626572206578636565647320746865206d6178696d756d20616c6c6f7760008201527f6564000000000000000000000000000000000000000000000000000000000000602082015250565b60006135f2602283613096565b91506135fd82613596565b604082019050919050565b60006020820190508181036000830152613621816135e5565b9050919050565b7f537472696e67206c656e677468206578636565647320746865206d6178696d7560008201527f6d20616c6c6f7765640000000000000000000000000000000000000000000000602082015250565b6000613684602983613096565b915061368f82613628565b604082019050919050565b600060208201905081810360008301526136b381613677565b905091905056fea26469706673582212207d3aae793b9cb20962d8d4e93d4f0214de606d8854fe8f1ded92aa6c0ceaa5be64736f6c63430008120033",
  "linkReferences": {},
  "deployedLinkReferences": {}
}