{
  "_format": "hh-sol-artifact-1",
  "contractName": "CompaniesSalaries",
  "sourceName": "contracts/CompaniesSalaries.sol",
  "abi": [
    {
      "inputs": [
        {
          "internalType": "uint256",
          "name": "_first",
          "type": "uint256"
        },
        {
          "internalType": "uint256",
          "name": "_last",
          "type": "uint256"
        },
        {
          "internalType": "uint256",
          "name": "_speed_of_growth",
          "type": "uint256"
        },
        {
          "internalType": "uint256",
          "name": "_company_id",
          "type": "uint256"
        },
        {
          "internalType": "string",
          "name": "_company_name",
          "type": "string"
        },
        {
          "internalType": "string",
          "name": "_role",
          "type": "string"
        },
        {
          "internalType": "string",
          "name": "_experience",
          "type": "string"
        },
        {
          "internalType": "string",
          "name": "_opinion",
          "type": "string"
        },
        {
          "internalType": "string",
          "name": "_location",
          "type": "string"
        },
        {
          "internalType": "string",
          "name": "_employment_type",
          "type": "string"
        },
        {
          "internalType": "string",
          "name": "_operating_mode",
          "type": "string"
        }
      ],
      "name": "addSalary",
      "outputs": [],
      "stateMutability": "nonpayable",
      "type": "function"
    },
    {
      "inputs": [
        {
          "internalType": "uint256",
          "name": "_salary_id",
          "type": "uint256"
        },
        {
          "internalType": "bool",
          "name": "_rate",
          "type": "bool"
        }
      ],
      "name": "addSalaryRate",
      "outputs": [],
      "stateMutability": "nonpayable",
      "type": "function"
    },
    {
      "inputs": [
        {
          "internalType": "uint256",
          "name": "_salary_id",
          "type": "uint256"
        }
      ],
      "name": "changeSalaryRate",
      "outputs": [],
      "stateMutability": "nonpayable",
      "type": "function"
    },
    {
      "inputs": [],
      "name": "getSalaries",
      "outputs": [
        {
          "components": [
            {
              "internalType": "uint256",
              "name": "salary_id",
              "type": "uint256"
            },
            {
              "internalType": "address",
              "name": "owner_address",
              "type": "address"
            },
            {
              "internalType": "uint256",
              "name": "first",
              "type": "uint256"
            },
            {
              "internalType": "uint256",
              "name": "last",
              "type": "uint256"
            },
            {
              "internalType": "uint256",
              "name": "speed_of_growth",
              "type": "uint256"
            },
            {
              "internalType": "uint256",
              "name": "company_id",
              "type": "uint256"
            },
            {
              "internalType": "string",
              "name": "company_name",
              "type": "string"
            },
            {
              "internalType": "string",
              "name": "role",
              "type": "string"
            },
            {
              "internalType": "string",
              "name": "experience",
              "type": "string"
            },
            {
              "internalType": "string",
              "name": "opinion",
              "type": "string"
            },
            {
              "internalType": "string",
              "name": "location",
              "type": "string"
            },
            {
              "internalType": "string",
              "name": "employment_type",
              "type": "string"
            },
            {
              "internalType": "string",
              "name": "operating_mode",
              "type": "string"
            },
            {
              "internalType": "uint256",
              "name": "created_at",
              "type": "uint256"
            },
            {
              "components": [
                {
                  "internalType": "uint256",
                  "name": "id",
                  "type": "uint256"
                },
                {
                  "internalType": "address",
                  "name": "owner_address",
                  "type": "address"
                },
                {
                  "internalType": "string",
                  "name": "content",
                  "type": "string"
                },
                {
                  "internalType": "uint256",
                  "name": "created_at",
                  "type": "uint256"
                }
              ],
              "internalType": "struct Structs.Reply[]",
              "name": "replies",
              "type": "tuple[]"
            },
            {
              "components": [
                {
                  "internalType": "uint256",
                  "name": "id",
                  "type": "uint256"
                },
                {
                  "internalType": "address",
                  "name": "owner_address",
                  "type": "address"
                },
                {
                  "internalType": "bool",
                  "name": "rate",
                  "type": "bool"
                }
              ],
              "internalType": "struct Structs.Rate[]",
              "name": "rates",
              "type": "tuple[]"
            }
          ],
          "internalType": "struct CompaniesSalariesStructs.Salary[]",
          "name": "",
          "type": "tuple[]"
        }
      ],
      "stateMutability": "view",
      "type": "function"
    },
    {
      "inputs": [
        {
          "internalType": "uint256",
          "name": "_salary_id",
          "type": "uint256"
        }
      ],
      "name": "removeSalaryRate",
      "outputs": [],
      "stateMutability": "nonpayable",
      "type": "function"
    }
  ],
  "bytecode": "0x6080604052600080556000600155600060025534801561001e57600080fd5b506121e08061002e6000396000f3fe608060405234801561001057600080fd5b50600436106100575760003560e01c80633012c9b91461005c5780636c148c621461007a578063d6b4f86e14610096578063e9dc0a62146100b2578063f5c2dbf5146100ce575b600080fd5b6100646100ea565b604051610071919061179a565b60405180910390f35b610094600480360381019061008f9190611828565b61080f565b005b6100b060048036038101906100ab9190611868565b610a3e565b005b6100cc60048036038101906100c791906119ca565b610d82565b005b6100e860048036038101906100e39190611868565b610f4f565b005b60606003805480602002602001604051908101604052809291908181526020016000905b82821015610806578382906000526020600020906010020160405180610200016040529081600082015481526020016001820160009054906101000a900473ffffffffffffffffffffffffffffffffffffffff1673ffffffffffffffffffffffffffffffffffffffff1673ffffffffffffffffffffffffffffffffffffffff168152602001600282015481526020016003820154815260200160048201548152602001600582015481526020016006820180546101ca90611bb1565b80601f01602080910402602001604051908101604052809291908181526020018280546101f690611bb1565b80156102435780601f1061021857610100808354040283529160200191610243565b820191906000526020600020905b81548152906001019060200180831161022657829003601f168201915b5050505050815260200160078201805461025c90611bb1565b80601f016020809104026020016040519081016040528092919081815260200182805461028890611bb1565b80156102d55780601f106102aa576101008083540402835291602001916102d5565b820191906000526020600020905b8154815290600101906020018083116102b857829003601f168201915b505050505081526020016008820180546102ee90611bb1565b80601f016020809104026020016040519081016040528092919081815260200182805461031a90611bb1565b80156103675780601f1061033c57610100808354040283529160200191610367565b820191906000526020600020905b81548152906001019060200180831161034a57829003601f168201915b5050505050815260200160098201805461038090611bb1565b80601f01602080910402602001604051908101604052809291908181526020018280546103ac90611bb1565b80156103f95780601f106103ce576101008083540402835291602001916103f9565b820191906000526020600020905b8154815290600101906020018083116103dc57829003601f168201915b50505050508152602001600a8201805461041290611bb1565b80601f016020809104026020016040519081016040528092919081815260200182805461043e90611bb1565b801561048b5780601f106104605761010080835404028352916020019161048b565b820191906000526020600020905b81548152906001019060200180831161046e57829003601f168201915b50505050508152602001600b820180546104a490611bb1565b80601f01602080910402602001604051908101604052809291908181526020018280546104d090611bb1565b801561051d5780601f106104f25761010080835404028352916020019161051d565b820191906000526020600020905b81548152906001019060200180831161050057829003601f168201915b50505050508152602001600c8201805461053690611bb1565b80601f016020809104026020016040519081016040528092919081815260200182805461056290611bb1565b80156105af5780601f10610584576101008083540402835291602001916105af565b820191906000526020600020905b81548152906001019060200180831161059257829003601f168201915b50505050508152602001600d8201548152602001600e8201805480602002602001604051908101604052809291908181526020016000905b828210156107155783829060005260206000209060040201604051806080016040529081600082015481526020016001820160009054906101000a900473ffffffffffffffffffffffffffffffffffffffff1673ffffffffffffffffffffffffffffffffffffffff1673ffffffffffffffffffffffffffffffffffffffff16815260200160028201805461067a90611bb1565b80601f01602080910402602001604051908101604052809291908181526020018280546106a690611bb1565b80156106f35780601f106106c8576101008083540402835291602001916106f3565b820191906000526020600020905b8154815290600101906020018083116106d657829003601f168201915b50505050508152602001600382015481525050815260200190600101906105e7565b505050508152602001600f8201805480602002602001604051908101604052809291908181526020016000905b828210156107ef5783829060005260206000209060020201604051806060016040529081600082015481526020016001820160009054906101000a900473ffffffffffffffffffffffffffffffffffffffff1673ffffffffffffffffffffffffffffffffffffffff1673ffffffffffffffffffffffffffffffffffffffff1681526020016001820160149054906101000a900460ff16151515158152505081526020019060010190610742565b50505050815250508152602001906001019061010e565b50505050905090565b60005b6003838154811061082657610825611be2565b5b9060005260206000209060100201600f018054905081101561092b573373ffffffffffffffffffffffffffffffffffffffff166003848154811061086d5761086c611be2565b5b9060005260206000209060100201600f0182815481106108905761088f611be2565b5b906000526020600020906002020160010160009054906101000a900473ffffffffffffffffffffffffffffffffffffffff1673ffffffffffffffffffffffffffffffffffffffff1603610918576040517f08c379a000000000000000000000000000000000000000000000000000000000815260040161090f90611c6e565b60405180910390fd5b808061092390611cbd565b915050610812565b50600382815481106109405761093f611be2565b5b9060005260206000209060100201600f01604051806060016040528060015481526020013373ffffffffffffffffffffffffffffffffffffffff16815260200183151581525090806001815401808255809150506001900390600052602060002090600202016000909190919091506000820151816000015560208201518160010160006101000a81548173ffffffffffffffffffffffffffffffffffffffff021916908373ffffffffffffffffffffffffffffffffffffffff16021790555060408201518160010160146101000a81548160ff021916908315150217905550505060026000815480929190610a3590611cbd565b91905055505050565b60005b60038281548110610a5557610a54611be2565b5b9060005260206000209060100201600f0180549050811015610d43573373ffffffffffffffffffffffffffffffffffffffff1660038381548110610a9c57610a9b611be2565b5b9060005260206000209060100201600f018281548110610abf57610abe611be2565b5b906000526020600020906002020160010160009054906101000a900473ffffffffffffffffffffffffffffffffffffffff1673ffffffffffffffffffffffffffffffffffffffff1603610d305760008190505b600160038481548110610b2857610b27611be2565b5b9060005260206000209060100201600f0180549050610b479190611d05565b811015610c985760038381548110610b6257610b61611be2565b5b9060005260206000209060100201600f01600182610b809190611d39565b81548110610b9157610b90611be2565b5b906000526020600020906002020160038481548110610bb357610bb2611be2565b5b9060005260206000209060100201600f018281548110610bd657610bd5611be2565b5b9060005260206000209060020201600082015481600001556001820160009054906101000a900473ffffffffffffffffffffffffffffffffffffffff168160010160006101000a81548173ffffffffffffffffffffffffffffffffffffffff021916908373ffffffffffffffffffffffffffffffffffffffff1602179055506001820160149054906101000a900460ff168160010160146101000a81548160ff0219169083151502179055509050508080610c9090611cbd565b915050610b12565b5060038281548110610cad57610cac611be2565b5b9060005260206000209060100201600f01805480610cce57610ccd611d6d565b5b60019003818190600052602060002090600202016000808201600090556001820160006101000a81549073ffffffffffffffffffffffffffffffffffffffff02191690556001820160146101000a81549060ff02191690555050905550610d7f565b8080610d3b90611cbd565b915050610a41565b506040517f08c379a0000000000000000000000000000000000000000000000000000000008152600401610d7690611de8565b60405180910390fd5b50565b600060036001816001815401808255809150500390600052602060002090601002019050610db48c633b9aca0061119e565b610dc28b633b9aca0061119e565b610dd08a633b9aca0061119e565b610de289670de0b6b3a764000061119e565b610dee8861012c6111e5565b610df98760646111e5565b610e048660326111e5565b610e10856103e86111e5565b610e1b8460326111e5565b610e268360326111e5565b610e318260326111e5565b6000548160000181905550338160010160006101000a81548173ffffffffffffffffffffffffffffffffffffffff021916908373ffffffffffffffffffffffffffffffffffffffff1602179055508b81600201819055508a816003018190555089816004018190555088816005018190555087816006019081610eb49190611fb4565b5086816007019081610ec69190611fb4565b5085816008019081610ed89190611fb4565b5084816009019081610eea9190611fb4565b508381600a019081610efc9190611fb4565b508281600b019081610f0e9190611fb4565b508181600c019081610f209190611fb4565b504281600d0181905550600080815480929190610f3c90611cbd565b9190505550505050505050505050505050565b60005b60038281548110610f6657610f65611be2565b5b9060005260206000209060100201600f018054905081101561115f573373ffffffffffffffffffffffffffffffffffffffff1660038381548110610fad57610fac611be2565b5b9060005260206000209060100201600f018281548110610fd057610fcf611be2565b5b906000526020600020906002020160010160009054906101000a900473ffffffffffffffffffffffffffffffffffffffff1673ffffffffffffffffffffffffffffffffffffffff160361114c57600115156003838154811061103557611034611be2565b5b9060005260206000209060100201600f01828154811061105857611057611be2565b5b906000526020600020906002020160010160149054906101000a900460ff161515036110e55760006003838154811061109457611093611be2565b5b9060005260206000209060100201600f0182815481106110b7576110b6611be2565b5b906000526020600020906002020160010160146101000a81548160ff0219169083151502179055505061119b565b6001600383815481106110fb576110fa611be2565b5b9060005260206000209060100201600f01828154811061111e5761111d611be2565b5b906000526020600020906002020160010160146101000a81548160ff0219169083151502179055505061119b565b808061115790611cbd565b915050610f52565b506040517f08c379a000000000000000000000000000000000000000000000000000000000815260040161119290611de8565b60405180910390fd5b50565b808211156111e1576040517f08c379a00000000000000000000000000000000000000000000000000000000081526004016111d8906120f8565b60405180910390fd5b5050565b8082511115611229576040517f08c379a00000000000000000000000000000000000000000000000000000000081526004016112209061218a565b60405180910390fd5b5050565b600081519050919050565b600082825260208201905092915050565b6000819050602082019050919050565b6000819050919050565b61126c81611259565b82525050565b600073ffffffffffffffffffffffffffffffffffffffff82169050919050565b600061129d82611272565b9050919050565b6112ad81611292565b82525050565b600081519050919050565b600082825260208201905092915050565b60005b838110156112ed5780820151818401526020810190506112d2565b60008484015250505050565b6000601f19601f8301169050919050565b6000611315826112b3565b61131f81856112be565b935061132f8185602086016112cf565b611338816112f9565b840191505092915050565b600081519050919050565b600082825260208201905092915050565b6000819050602082019050919050565b60006080830160008301516113876000860182611263565b50602083015161139a60208601826112a4565b50604083015184820360408601526113b2828261130a565b91505060608301516113c76060860182611263565b508091505092915050565b60006113de838361136f565b905092915050565b6000602082019050919050565b60006113fe82611343565b611408818561134e565b93508360208202850161141a8561135f565b8060005b85811015611456578484038952815161143785826113d2565b9450611442836113e6565b925060208a0199505060018101905061141e565b50829750879550505050505092915050565b600081519050919050565b600082825260208201905092915050565b6000819050602082019050919050565b60008115159050919050565b6114a981611494565b82525050565b6060820160008201516114c56000850182611263565b5060208201516114d860208501826112a4565b5060408201516114eb60408501826114a0565b50505050565b60006114fd83836114af565b60608301905092915050565b6000602082019050919050565b600061152182611468565b61152b8185611473565b935061153683611484565b8060005b8381101561156757815161154e88826114f1565b975061155983611509565b92505060018101905061153a565b5085935050505092915050565b60006102008301600083015161158d6000860182611263565b5060208301516115a060208601826112a4565b5060408301516115b36040860182611263565b5060608301516115c66060860182611263565b5060808301516115d96080860182611263565b5060a08301516115ec60a0860182611263565b5060c083015184820360c0860152611604828261130a565b91505060e083015184820360e086015261161e828261130a565b91505061010083015184820361010086015261163a828261130a565b915050610120830151848203610120860152611656828261130a565b915050610140830151848203610140860152611672828261130a565b91505061016083015184820361016086015261168e828261130a565b9150506101808301518482036101808601526116aa828261130a565b9150506101a08301516116c16101a0860182611263565b506101c08301518482036101c08601526116db82826113f3565b9150506101e08301518482036101e08601526116f78282611516565b9150508091505092915050565b60006117108383611574565b905092915050565b6000602082019050919050565b60006117308261122d565b61173a8185611238565b93508360208202850161174c85611249565b8060005b8581101561178857848403895281516117698582611704565b945061177483611718565b925060208a01995050600181019050611750565b50829750879550505050505092915050565b600060208201905081810360008301526117b48184611725565b905092915050565b6000604051905090565b600080fd5b600080fd5b6117d981611259565b81146117e457600080fd5b50565b6000813590506117f6816117d0565b92915050565b61180581611494565b811461181057600080fd5b50565b600081359050611822816117fc565b92915050565b6000806040838503121561183f5761183e6117c6565b5b600061184d858286016117e7565b925050602061185e85828601611813565b9150509250929050565b60006020828403121561187e5761187d6117c6565b5b600061188c848285016117e7565b91505092915050565b600080fd5b600080fd5b7f4e487b7100000000000000000000000000000000000000000000000000000000600052604160045260246000fd5b6118d7826112f9565b810181811067ffffffffffffffff821117156118f6576118f561189f565b5b80604052505050565b60006119096117bc565b905061191582826118ce565b919050565b600067ffffffffffffffff8211156119355761193461189f565b5b61193e826112f9565b9050602081019050919050565b82818337600083830152505050565b600061196d6119688461191a565b6118ff565b9050828152602081018484840111156119895761198861189a565b5b61199484828561194b565b509392505050565b600082601f8301126119b1576119b0611895565b5b81356119c184826020860161195a565b91505092915050565b60008060008060008060008060008060006101608c8e0312156119f0576119ef6117c6565b5b60006119fe8e828f016117e7565b9b50506020611a0f8e828f016117e7565b9a50506040611a208e828f016117e7565b9950506060611a318e828f016117e7565b98505060808c013567ffffffffffffffff811115611a5257611a516117cb565b5b611a5e8e828f0161199c565b97505060a08c013567ffffffffffffffff811115611a7f57611a7e6117cb565b5b611a8b8e828f0161199c565b96505060c08c013567ffffffffffffffff811115611aac57611aab6117cb565b5b611ab88e828f0161199c565b95505060e08c013567ffffffffffffffff811115611ad957611ad86117cb565b5b611ae58e828f0161199c565b9450506101008c013567ffffffffffffffff811115611b0757611b066117cb565b5b611b138e828f0161199c565b9350506101208c013567ffffffffffffffff811115611b3557611b346117cb565b5b611b418e828f0161199c565b9250506101408c013567ffffffffffffffff811115611b6357611b626117cb565b5b611b6f8e828f0161199c565b9150509295989b509295989b9093969950565b7f4e487b7100000000000000000000000000000000000000000000000000000000600052602260045260246000fd5b60006002820490506001821680611bc957607f821691505b602082108103611bdc57611bdb611b82565b5b50919050565b7f4e487b7100000000000000000000000000000000000000000000000000000000600052603260045260246000fd5b600082825260208201905092915050565b7f596f7520616c72656164792072617465207468697320696e666f000000000000600082015250565b6000611c58601a83611c11565b9150611c6382611c22565b602082019050919050565b60006020820190508181036000830152611c8781611c4b565b9050919050565b7f4e487b7100000000000000000000000000000000000000000000000000000000600052601160045260246000fd5b6000611cc882611259565b91507fffffffffffffffffffffffffffffffffffffffffffffffffffffffffffffffff8203611cfa57611cf9611c8e565b5b600182019050919050565b6000611d1082611259565b9150611d1b83611259565b9250828203905081811115611d3357611d32611c8e565b5b92915050565b6000611d4482611259565b9150611d4f83611259565b9250828201905080821115611d6757611d66611c8e565b5b92915050565b7f4e487b7100000000000000000000000000000000000000000000000000000000600052603160045260246000fd5b7f596f7520646f6e2774206861766520616e792072617465000000000000000000600082015250565b6000611dd2601783611c11565b9150611ddd82611d9c565b602082019050919050565b60006020820190508181036000830152611e0181611dc5565b9050919050565b60008190508160005260206000209050919050565b60006020601f8301049050919050565b600082821b905092915050565b600060088302611e6a7fffffffffffffffffffffffffffffffffffffffffffffffffffffffffffffffff82611e2d565b611e748683611e2d565b95508019841693508086168417925050509392505050565b6000819050919050565b6000611eb1611eac611ea784611259565b611e8c565b611259565b9050919050565b6000819050919050565b611ecb83611e96565b611edf611ed782611eb8565b848454611e3a565b825550505050565b600090565b611ef4611ee7565b611eff818484611ec2565b505050565b5b81811015611f2357611f18600082611eec565b600181019050611f05565b5050565b601f821115611f6857611f3981611e08565b611f4284611e1d565b81016020851015611f51578190505b611f65611f5d85611e1d565b830182611f04565b50505b505050565b600082821c905092915050565b6000611f8b60001984600802611f6d565b1980831691505092915050565b6000611fa48383611f7a565b9150826002028217905092915050565b611fbd826112b3565b67ffffffffffffffff811115611fd657611fd561189f565b5b611fe08254611bb1565b611feb828285611f27565b600060209050601f83116001811461201e576000841561200c578287015190505b6120168582611f98565b86555061207e565b601f19841661202c86611e08565b60005b828110156120545784890151825560018201915060208501945060208101905061202f565b86831015612071578489015161206d601f891682611f7a565b8355505b6001600288020188555050505b505050505050565b7f4e756d626572206578636565647320746865206d6178696d756d20616c6c6f7760008201527f6564000000000000000000000000000000000000000000000000000000000000602082015250565b60006120e2602283611c11565b91506120ed82612086565b604082019050919050565b60006020820190508181036000830152612111816120d5565b9050919050565b7f537472696e67206c656e677468206578636565647320746865206d6178696d7560008201527f6d20616c6c6f7765640000000000000000000000000000000000000000000000602082015250565b6000612174602983611c11565b915061217f82612118565b604082019050919050565b600060208201905081810360008301526121a381612167565b905091905056fea2646970667358221220368e3da3fb46db38124a7a8e66ff951b0ea5c3cebad95bcb1693d8f57081656164736f6c63430008120033",
  "linkReferences": {},
  "deployedLinkReferences": {}
}