{
  "_format": "hh-sol-artifact-1",
  "contractName": "CompaniesSalaries",
  "sourceName": "contracts/CompaniesSalaries.sol",
  "abi": [
    {
      "inputs": [
        {
          "internalType": "uint256",
          "name": "current",
          "type": "uint256"
        },
        {
          "internalType": "uint256",
          "name": "first",
          "type": "uint256"
        },
        {
          "internalType": "uint256",
          "name": "speed_of_growth",
          "type": "uint256"
        },
        {
          "internalType": "uint256",
          "name": "raise_change",
          "type": "uint256"
        },
        {
          "internalType": "string",
          "name": "role",
          "type": "string"
        },
        {
          "internalType": "string",
          "name": "experience",
          "type": "string"
        },
        {
          "internalType": "string",
          "name": "opinion",
          "type": "string"
        },
        {
          "internalType": "uint256",
          "name": "company_id",
          "type": "uint256"
        }
      ],
      "name": "addSalary",
      "outputs": [],
      "stateMutability": "nonpayable",
      "type": "function"
    },
    {
      "inputs": [],
      "name": "getSalaries",
      "outputs": [
        {
          "components": [
            {
              "internalType": "uint256",
              "name": "salary_id",
              "type": "uint256"
            },
            {
              "internalType": "address",
              "name": "owner_address",
              "type": "address"
            },
            {
              "internalType": "uint256",
              "name": "current",
              "type": "uint256"
            },
            {
              "internalType": "uint256",
              "name": "first",
              "type": "uint256"
            },
            {
              "internalType": "uint256",
              "name": "speed_of_growth",
              "type": "uint256"
            },
            {
              "internalType": "uint256",
              "name": "raise_change",
              "type": "uint256"
            },
            {
              "internalType": "string",
              "name": "role",
              "type": "string"
            },
            {
              "internalType": "string",
              "name": "experience",
              "type": "string"
            },
            {
              "internalType": "string",
              "name": "opinion",
              "type": "string"
            },
            {
              "internalType": "uint256",
              "name": "company_id",
              "type": "uint256"
            }
          ],
          "internalType": "struct CompaniesSalaries.Salary[]",
          "name": "",
          "type": "tuple[]"
        }
      ],
      "stateMutability": "view",
      "type": "function"
    },
    {
      "inputs": [
        {
          "internalType": "uint256",
          "name": "company_id",
          "type": "uint256"
        }
      ],
      "name": "getSalariesByCompanyId",
      "outputs": [
        {
          "components": [
            {
              "internalType": "uint256",
              "name": "salary_id",
              "type": "uint256"
            },
            {
              "internalType": "address",
              "name": "owner_address",
              "type": "address"
            },
            {
              "internalType": "uint256",
              "name": "current",
              "type": "uint256"
            },
            {
              "internalType": "uint256",
              "name": "first",
              "type": "uint256"
            },
            {
              "internalType": "uint256",
              "name": "speed_of_growth",
              "type": "uint256"
            },
            {
              "internalType": "uint256",
              "name": "raise_change",
              "type": "uint256"
            },
            {
              "internalType": "string",
              "name": "role",
              "type": "string"
            },
            {
              "internalType": "string",
              "name": "experience",
              "type": "string"
            },
            {
              "internalType": "string",
              "name": "opinion",
              "type": "string"
            },
            {
              "internalType": "uint256",
              "name": "company_id",
              "type": "uint256"
            }
          ],
          "internalType": "struct CompaniesSalaries.Salary[]",
          "name": "",
          "type": "tuple[]"
        }
      ],
      "stateMutability": "view",
      "type": "function"
    }
  ],
  "bytecode": "0x60806040526000805534801561001457600080fd5b506111b0806100246000396000f3fe608060405234801561001057600080fd5b50600436106100415760003560e01c80633012c9b91461004657806349dfe8fe14610064578063bf22d27714610080575b600080fd5b61004e6100b0565b60405161005b9190610b28565b60405180910390f35b61007e60048036038101906100799190610cbf565b610358565b005b61009a60048036038101906100959190610dc9565b6104cb565b6040516100a79190610b28565b60405180910390f35b60606001805480602002602001604051908101604052809291908181526020016000905b8282101561034f57838290600052602060002090600a020160405180610140016040529081600082015481526020016001820160009054906101000a900473ffffffffffffffffffffffffffffffffffffffff1673ffffffffffffffffffffffffffffffffffffffff1673ffffffffffffffffffffffffffffffffffffffff1681526020016002820154815260200160038201548152602001600482015481526020016005820154815260200160068201805461019090610e25565b80601f01602080910402602001604051908101604052809291908181526020018280546101bc90610e25565b80156102095780601f106101de57610100808354040283529160200191610209565b820191906000526020600020905b8154815290600101906020018083116101ec57829003601f168201915b5050505050815260200160078201805461022290610e25565b80601f016020809104026020016040519081016040528092919081815260200182805461024e90610e25565b801561029b5780601f106102705761010080835404028352916020019161029b565b820191906000526020600020905b81548152906001019060200180831161027e57829003601f168201915b505050505081526020016008820180546102b490610e25565b80601f01602080910402602001604051908101604052809291908181526020018280546102e090610e25565b801561032d5780601f106103025761010080835404028352916020019161032d565b820191906000526020600020905b81548152906001019060200180831161031057829003601f168201915b50505050508152602001600982015481525050815260200190600101906100d4565b50505050905090565b600160405180610140016040528060005481526020013373ffffffffffffffffffffffffffffffffffffffff1681526020018a81526020018981526020018881526020018781526020018681526020018581526020018481526020018381525090806001815401808255809150506001900390600052602060002090600a02016000909190919091506000820151816000015560208201518160010160006101000a81548173ffffffffffffffffffffffffffffffffffffffff021916908373ffffffffffffffffffffffffffffffffffffffff16021790555060408201518160020155606082015181600301556080820151816004015560a0820151816005015560c082015181600601908161046f9190611002565b5060e08201518160070190816104859190611002565b5061010082015181600801908161049c9190611002565b50610120820151816009015550506000808154809291906104bc90611103565b91905055505050505050505050565b6060600060018054905067ffffffffffffffff8111156104ee576104ed610b94565b5b60405190808252806020026020018201604052801561052757816020015b61051461082b565b81526020019060019003908161050c5790505b5090506000805b60018054905081101561081d5784600182815481106105505761054f61114b565b5b90600052602060002090600a0201600901540361080a576001818154811061057b5761057a61114b565b5b90600052602060002090600a020160405180610140016040529081600082015481526020016001820160009054906101000a900473ffffffffffffffffffffffffffffffffffffffff1673ffffffffffffffffffffffffffffffffffffffff1673ffffffffffffffffffffffffffffffffffffffff1681526020016002820154815260200160038201548152602001600482015481526020016005820154815260200160068201805461062d90610e25565b80601f016020809104026020016040519081016040528092919081815260200182805461065990610e25565b80156106a65780601f1061067b576101008083540402835291602001916106a6565b820191906000526020600020905b81548152906001019060200180831161068957829003601f168201915b505050505081526020016007820180546106bf90610e25565b80601f01602080910402602001604051908101604052809291908181526020018280546106eb90610e25565b80156107385780601f1061070d57610100808354040283529160200191610738565b820191906000526020600020905b81548152906001019060200180831161071b57829003601f168201915b5050505050815260200160088201805461075190610e25565b80601f016020809104026020016040519081016040528092919081815260200182805461077d90610e25565b80156107ca5780601f1061079f576101008083540402835291602001916107ca565b820191906000526020600020905b8154815290600101906020018083116107ad57829003601f168201915b505050505081526020016009820154815250508383815181106107f0576107ef61114b565b5b6020026020010181905250818061080690611103565b9250505b808061081590611103565b91505061052e565b508082528192505050919050565b60405180610140016040528060008152602001600073ffffffffffffffffffffffffffffffffffffffff16815260200160008152602001600081526020016000815260200160008152602001606081526020016060815260200160608152602001600081525090565b600081519050919050565b600082825260208201905092915050565b6000819050602082019050919050565b6000819050919050565b6108d3816108c0565b82525050565b600073ffffffffffffffffffffffffffffffffffffffff82169050919050565b6000610904826108d9565b9050919050565b610914816108f9565b82525050565b600081519050919050565b600082825260208201905092915050565b60005b83811015610954578082015181840152602081019050610939565b60008484015250505050565b6000601f19601f8301169050919050565b600061097c8261091a565b6109868185610925565b9350610996818560208601610936565b61099f81610960565b840191505092915050565b6000610140830160008301516109c360008601826108ca565b5060208301516109d6602086018261090b565b5060408301516109e960408601826108ca565b5060608301516109fc60608601826108ca565b506080830151610a0f60808601826108ca565b5060a0830151610a2260a08601826108ca565b5060c083015184820360c0860152610a3a8282610971565b91505060e083015184820360e0860152610a548282610971565b915050610100830151848203610100860152610a708282610971565b915050610120830151610a876101208601826108ca565b508091505092915050565b6000610a9e83836109aa565b905092915050565b6000602082019050919050565b6000610abe82610894565b610ac8818561089f565b935083602082028501610ada856108b0565b8060005b85811015610b165784840389528151610af78582610a92565b9450610b0283610aa6565b925060208a01995050600181019050610ade565b50829750879550505050505092915050565b60006020820190508181036000830152610b428184610ab3565b905092915050565b6000604051905090565b600080fd5b600080fd5b610b67816108c0565b8114610b7257600080fd5b50565b600081359050610b8481610b5e565b92915050565b600080fd5b600080fd5b7f4e487b7100000000000000000000000000000000000000000000000000000000600052604160045260246000fd5b610bcc82610960565b810181811067ffffffffffffffff82111715610beb57610bea610b94565b5b80604052505050565b6000610bfe610b4a565b9050610c0a8282610bc3565b919050565b600067ffffffffffffffff821115610c2a57610c29610b94565b5b610c3382610960565b9050602081019050919050565b82818337600083830152505050565b6000610c62610c5d84610c0f565b610bf4565b905082815260208101848484011115610c7e57610c7d610b8f565b5b610c89848285610c40565b509392505050565b600082601f830112610ca657610ca5610b8a565b5b8135610cb6848260208601610c4f565b91505092915050565b600080600080600080600080610100898b031215610ce057610cdf610b54565b5b6000610cee8b828c01610b75565b9850506020610cff8b828c01610b75565b9750506040610d108b828c01610b75565b9650506060610d218b828c01610b75565b955050608089013567ffffffffffffffff811115610d4257610d41610b59565b5b610d4e8b828c01610c91565b94505060a089013567ffffffffffffffff811115610d6f57610d6e610b59565b5b610d7b8b828c01610c91565b93505060c089013567ffffffffffffffff811115610d9c57610d9b610b59565b5b610da88b828c01610c91565b92505060e0610db98b828c01610b75565b9150509295985092959890939650565b600060208284031215610ddf57610dde610b54565b5b6000610ded84828501610b75565b91505092915050565b7f4e487b7100000000000000000000000000000000000000000000000000000000600052602260045260246000fd5b60006002820490506001821680610e3d57607f821691505b602082108103610e5057610e4f610df6565b5b50919050565b60008190508160005260206000209050919050565b60006020601f8301049050919050565b600082821b905092915050565b600060088302610eb87fffffffffffffffffffffffffffffffffffffffffffffffffffffffffffffffff82610e7b565b610ec28683610e7b565b95508019841693508086168417925050509392505050565b6000819050919050565b6000610eff610efa610ef5846108c0565b610eda565b6108c0565b9050919050565b6000819050919050565b610f1983610ee4565b610f2d610f2582610f06565b848454610e88565b825550505050565b600090565b610f42610f35565b610f4d818484610f10565b505050565b5b81811015610f7157610f66600082610f3a565b600181019050610f53565b5050565b601f821115610fb657610f8781610e56565b610f9084610e6b565b81016020851015610f9f578190505b610fb3610fab85610e6b565b830182610f52565b50505b505050565b600082821c905092915050565b6000610fd960001984600802610fbb565b1980831691505092915050565b6000610ff28383610fc8565b9150826002028217905092915050565b61100b8261091a565b67ffffffffffffffff81111561102457611023610b94565b5b61102e8254610e25565b611039828285610f75565b600060209050601f83116001811461106c576000841561105a578287015190505b6110648582610fe6565b8655506110cc565b601f19841661107a86610e56565b60005b828110156110a25784890151825560018201915060208501945060208101905061107d565b868310156110bf57848901516110bb601f891682610fc8565b8355505b6001600288020188555050505b505050505050565b7f4e487b7100000000000000000000000000000000000000000000000000000000600052601160045260246000fd5b600061110e826108c0565b91507fffffffffffffffffffffffffffffffffffffffffffffffffffffffffffffffff82036111405761113f6110d4565b5b600182019050919050565b7f4e487b7100000000000000000000000000000000000000000000000000000000600052603260045260246000fdfea2646970667358221220414c4737377f616abd00e23983845c63f5ee68e9bbda8dd69db34c364dc3eee564736f6c63430008120033",
  "linkReferences": {},
  "deployedLinkReferences": {}
}