{
  "_format": "hh-sol-artifact-1",
  "contractName": "CompaniesSalaries",
  "sourceName": "contracts/CompaniesSalaries.sol",
  "abi": [
    {
      "inputs": [
        {
          "internalType": "uint256",
          "name": "current",
          "type": "uint256"
        },
        {
          "internalType": "uint256",
          "name": "first",
          "type": "uint256"
        },
        {
          "internalType": "uint256",
          "name": "speed_of_growth",
          "type": "uint256"
        },
        {
          "internalType": "uint256",
          "name": "raise_change",
          "type": "uint256"
        },
        {
          "internalType": "string",
          "name": "role",
          "type": "string"
        },
        {
          "internalType": "string",
          "name": "experience",
          "type": "string"
        },
        {
          "internalType": "string",
          "name": "opinion",
          "type": "string"
        },
        {
          "internalType": "uint256",
          "name": "company_id",
          "type": "uint256"
        },
        {
          "internalType": "string",
          "name": "company_name",
          "type": "string"
        }
      ],
      "name": "addSalary",
      "outputs": [],
      "stateMutability": "nonpayable",
      "type": "function"
    },
    {
      "inputs": [],
      "name": "getSalaries",
      "outputs": [
        {
          "components": [
            {
              "internalType": "uint256",
              "name": "salary_id",
              "type": "uint256"
            },
            {
              "internalType": "address",
              "name": "owner_address",
              "type": "address"
            },
            {
              "internalType": "uint256",
              "name": "current",
              "type": "uint256"
            },
            {
              "internalType": "uint256",
              "name": "first",
              "type": "uint256"
            },
            {
              "internalType": "uint256",
              "name": "speed_of_growth",
              "type": "uint256"
            },
            {
              "internalType": "uint256",
              "name": "raise_change",
              "type": "uint256"
            },
            {
              "internalType": "string",
              "name": "role",
              "type": "string"
            },
            {
              "internalType": "string",
              "name": "experience",
              "type": "string"
            },
            {
              "internalType": "string",
              "name": "opinion",
              "type": "string"
            },
            {
              "internalType": "uint256",
              "name": "company_id",
              "type": "uint256"
            },
            {
              "internalType": "string",
              "name": "company_name",
              "type": "string"
            }
          ],
          "internalType": "struct CompaniesSalaries.Salary[]",
          "name": "",
          "type": "tuple[]"
        }
      ],
      "stateMutability": "view",
      "type": "function"
    },
    {
      "inputs": [
        {
          "internalType": "uint256",
          "name": "company_id",
          "type": "uint256"
        }
      ],
      "name": "getSalariesByCompanyId",
      "outputs": [
        {
          "components": [
            {
              "internalType": "uint256",
              "name": "salary_id",
              "type": "uint256"
            },
            {
              "internalType": "address",
              "name": "owner_address",
              "type": "address"
            },
            {
              "internalType": "uint256",
              "name": "current",
              "type": "uint256"
            },
            {
              "internalType": "uint256",
              "name": "first",
              "type": "uint256"
            },
            {
              "internalType": "uint256",
              "name": "speed_of_growth",
              "type": "uint256"
            },
            {
              "internalType": "uint256",
              "name": "raise_change",
              "type": "uint256"
            },
            {
              "internalType": "string",
              "name": "role",
              "type": "string"
            },
            {
              "internalType": "string",
              "name": "experience",
              "type": "string"
            },
            {
              "internalType": "string",
              "name": "opinion",
              "type": "string"
            },
            {
              "internalType": "uint256",
              "name": "company_id",
              "type": "uint256"
            },
            {
              "internalType": "string",
              "name": "company_name",
              "type": "string"
            }
          ],
          "internalType": "struct CompaniesSalaries.Salary[]",
          "name": "",
          "type": "tuple[]"
        }
      ],
      "stateMutability": "view",
      "type": "function"
    }
  ],
  "bytecode": "0x60806040526000805534801561001457600080fd5b50611345806100246000396000f3fe608060405234801561001057600080fd5b50600436106100415760003560e01c80633012c9b9146100465780636e6ab5dc14610064578063bf22d27714610080575b600080fd5b61004e6100b0565b60405161005b9190610c8d565b60405180910390f35b61007e60048036038101906100799190610e24565b6103ea565b005b61009a60048036038101906100959190610f5e565b61057b565b6040516100a79190610c8d565b60405180910390f35b60606001805480602002602001604051908101604052809291908181526020016000905b828210156103e157838290600052602060002090600b020160405180610160016040529081600082015481526020016001820160009054906101000a900473ffffffffffffffffffffffffffffffffffffffff1673ffffffffffffffffffffffffffffffffffffffff1673ffffffffffffffffffffffffffffffffffffffff1681526020016002820154815260200160038201548152602001600482015481526020016005820154815260200160068201805461019090610fba565b80601f01602080910402602001604051908101604052809291908181526020018280546101bc90610fba565b80156102095780601f106101de57610100808354040283529160200191610209565b820191906000526020600020905b8154815290600101906020018083116101ec57829003601f168201915b5050505050815260200160078201805461022290610fba565b80601f016020809104026020016040519081016040528092919081815260200182805461024e90610fba565b801561029b5780601f106102705761010080835404028352916020019161029b565b820191906000526020600020905b81548152906001019060200180831161027e57829003601f168201915b505050505081526020016008820180546102b490610fba565b80601f01602080910402602001604051908101604052809291908181526020018280546102e090610fba565b801561032d5780601f106103025761010080835404028352916020019161032d565b820191906000526020600020905b81548152906001019060200180831161031057829003601f168201915b5050505050815260200160098201548152602001600a8201805461035090610fba565b80601f016020809104026020016040519081016040528092919081815260200182805461037c90610fba565b80156103c95780601f1061039e576101008083540402835291602001916103c9565b820191906000526020600020905b8154815290600101906020018083116103ac57829003601f168201915b505050505081525050815260200190600101906100d4565b50505050905090565b600160405180610160016040528060005481526020013373ffffffffffffffffffffffffffffffffffffffff1681526020018b81526020018a81526020018981526020018881526020018781526020018681526020018581526020018481526020018381525090806001815401808255809150506001900390600052602060002090600b02016000909190919091506000820151816000015560208201518160010160006101000a81548173ffffffffffffffffffffffffffffffffffffffff021916908373ffffffffffffffffffffffffffffffffffffffff16021790555060408201518160020155606082015181600301556080820151816004015560a0820151816005015560c08201518160060190816105079190611197565b5060e082015181600701908161051d9190611197565b506101008201518160080190816105349190611197565b50610120820151816009015561014082015181600a0190816105569190611197565b50505060008081548092919061056b90611298565b9190505550505050505050505050565b6060600060018054905067ffffffffffffffff81111561059e5761059d610cf9565b5b6040519080825280602002602001820160405280156105d757816020015b6105c461096d565b8152602001906001900390816105bc5790505b5090506000805b60018054905081101561095f578460018281548110610600576105ff6112e0565b5b90600052602060002090600b0201600901540361094c576001818154811061062b5761062a6112e0565b5b90600052602060002090600b020160405180610160016040529081600082015481526020016001820160009054906101000a900473ffffffffffffffffffffffffffffffffffffffff1673ffffffffffffffffffffffffffffffffffffffff1673ffffffffffffffffffffffffffffffffffffffff168152602001600282015481526020016003820154815260200160048201548152602001600582015481526020016006820180546106dd90610fba565b80601f016020809104026020016040519081016040528092919081815260200182805461070990610fba565b80156107565780601f1061072b57610100808354040283529160200191610756565b820191906000526020600020905b81548152906001019060200180831161073957829003601f168201915b5050505050815260200160078201805461076f90610fba565b80601f016020809104026020016040519081016040528092919081815260200182805461079b90610fba565b80156107e85780601f106107bd576101008083540402835291602001916107e8565b820191906000526020600020905b8154815290600101906020018083116107cb57829003601f168201915b5050505050815260200160088201805461080190610fba565b80601f016020809104026020016040519081016040528092919081815260200182805461082d90610fba565b801561087a5780601f1061084f5761010080835404028352916020019161087a565b820191906000526020600020905b81548152906001019060200180831161085d57829003601f168201915b5050505050815260200160098201548152602001600a8201805461089d90610fba565b80601f01602080910402602001604051908101604052809291908181526020018280546108c990610fba565b80156109165780601f106108eb57610100808354040283529160200191610916565b820191906000526020600020905b8154815290600101906020018083116108f957829003601f168201915b505050505081525050838381518110610932576109316112e0565b5b6020026020010181905250818061094890611298565b9250505b808061095790611298565b9150506105de565b508082528192505050919050565b60405180610160016040528060008152602001600073ffffffffffffffffffffffffffffffffffffffff1681526020016000815260200160008152602001600081526020016000815260200160608152602001606081526020016060815260200160008152602001606081525090565b600081519050919050565b600082825260208201905092915050565b6000819050602082019050919050565b6000819050919050565b610a1c81610a09565b82525050565b600073ffffffffffffffffffffffffffffffffffffffff82169050919050565b6000610a4d82610a22565b9050919050565b610a5d81610a42565b82525050565b600081519050919050565b600082825260208201905092915050565b60005b83811015610a9d578082015181840152602081019050610a82565b60008484015250505050565b6000601f19601f8301169050919050565b6000610ac582610a63565b610acf8185610a6e565b9350610adf818560208601610a7f565b610ae881610aa9565b840191505092915050565b600061016083016000830151610b0c6000860182610a13565b506020830151610b1f6020860182610a54565b506040830151610b326040860182610a13565b506060830151610b456060860182610a13565b506080830151610b586080860182610a13565b5060a0830151610b6b60a0860182610a13565b5060c083015184820360c0860152610b838282610aba565b91505060e083015184820360e0860152610b9d8282610aba565b915050610100830151848203610100860152610bb98282610aba565b915050610120830151610bd0610120860182610a13565b50610140830151848203610140860152610bea8282610aba565b9150508091505092915050565b6000610c038383610af3565b905092915050565b6000602082019050919050565b6000610c23826109dd565b610c2d81856109e8565b935083602082028501610c3f856109f9565b8060005b85811015610c7b5784840389528151610c5c8582610bf7565b9450610c6783610c0b565b925060208a01995050600181019050610c43565b50829750879550505050505092915050565b60006020820190508181036000830152610ca78184610c18565b905092915050565b6000604051905090565b600080fd5b600080fd5b610ccc81610a09565b8114610cd757600080fd5b50565b600081359050610ce981610cc3565b92915050565b600080fd5b600080fd5b7f4e487b7100000000000000000000000000000000000000000000000000000000600052604160045260246000fd5b610d3182610aa9565b810181811067ffffffffffffffff82111715610d5057610d4f610cf9565b5b80604052505050565b6000610d63610caf565b9050610d6f8282610d28565b919050565b600067ffffffffffffffff821115610d8f57610d8e610cf9565b5b610d9882610aa9565b9050602081019050919050565b82818337600083830152505050565b6000610dc7610dc284610d74565b610d59565b905082815260208101848484011115610de357610de2610cf4565b5b610dee848285610da5565b509392505050565b600082601f830112610e0b57610e0a610cef565b5b8135610e1b848260208601610db4565b91505092915050565b60008060008060008060008060006101208a8c031215610e4757610e46610cb9565b5b6000610e558c828d01610cda565b9950506020610e668c828d01610cda565b9850506040610e778c828d01610cda565b9750506060610e888c828d01610cda565b96505060808a013567ffffffffffffffff811115610ea957610ea8610cbe565b5b610eb58c828d01610df6565b95505060a08a013567ffffffffffffffff811115610ed657610ed5610cbe565b5b610ee28c828d01610df6565b94505060c08a013567ffffffffffffffff811115610f0357610f02610cbe565b5b610f0f8c828d01610df6565b93505060e0610f208c828d01610cda565b9250506101008a013567ffffffffffffffff811115610f4257610f41610cbe565b5b610f4e8c828d01610df6565b9150509295985092959850929598565b600060208284031215610f7457610f73610cb9565b5b6000610f8284828501610cda565b91505092915050565b7f4e487b7100000000000000000000000000000000000000000000000000000000600052602260045260246000fd5b60006002820490506001821680610fd257607f821691505b602082108103610fe557610fe4610f8b565b5b50919050565b60008190508160005260206000209050919050565b60006020601f8301049050919050565b600082821b905092915050565b60006008830261104d7fffffffffffffffffffffffffffffffffffffffffffffffffffffffffffffffff82611010565b6110578683611010565b95508019841693508086168417925050509392505050565b6000819050919050565b600061109461108f61108a84610a09565b61106f565b610a09565b9050919050565b6000819050919050565b6110ae83611079565b6110c26110ba8261109b565b84845461101d565b825550505050565b600090565b6110d76110ca565b6110e28184846110a5565b505050565b5b81811015611106576110fb6000826110cf565b6001810190506110e8565b5050565b601f82111561114b5761111c81610feb565b61112584611000565b81016020851015611134578190505b61114861114085611000565b8301826110e7565b50505b505050565b600082821c905092915050565b600061116e60001984600802611150565b1980831691505092915050565b6000611187838361115d565b9150826002028217905092915050565b6111a082610a63565b67ffffffffffffffff8111156111b9576111b8610cf9565b5b6111c38254610fba565b6111ce82828561110a565b600060209050601f83116001811461120157600084156111ef578287015190505b6111f9858261117b565b865550611261565b601f19841661120f86610feb565b60005b8281101561123757848901518255600182019150602085019450602081019050611212565b868310156112545784890151611250601f89168261115d565b8355505b6001600288020188555050505b505050505050565b7f4e487b7100000000000000000000000000000000000000000000000000000000600052601160045260246000fd5b60006112a382610a09565b91507fffffffffffffffffffffffffffffffffffffffffffffffffffffffffffffffff82036112d5576112d4611269565b5b600182019050919050565b7f4e487b7100000000000000000000000000000000000000000000000000000000600052603260045260246000fdfea2646970667358221220858bc6782fd140f772c3124c4214cea89562ac241c2d286418752ec1cc9a774564736f6c63430008120033",
  "linkReferences": {},
  "deployedLinkReferences": {}
}