{
  "_format": "hh-sol-artifact-1",
  "contractName": "CompaniesSalaries",
  "sourceName": "contracts/CompaniesSalaries.sol",
  "abi": [
    {
      "inputs": [
        {
          "internalType": "uint256",
          "name": "_current",
          "type": "uint256"
        },
        {
          "internalType": "uint256",
          "name": "_first",
          "type": "uint256"
        },
        {
          "internalType": "uint256",
          "name": "_speed_of_growth",
          "type": "uint256"
        },
        {
          "internalType": "uint256",
          "name": "_raise_change",
          "type": "uint256"
        },
        {
          "internalType": "string",
          "name": "_role",
          "type": "string"
        },
        {
          "internalType": "string",
          "name": "_experience",
          "type": "string"
        },
        {
          "internalType": "string",
          "name": "_opinion",
          "type": "string"
        },
        {
          "internalType": "uint256",
          "name": "_company_id",
          "type": "uint256"
        },
        {
          "internalType": "string",
          "name": "_company_name",
          "type": "string"
        }
      ],
      "name": "addSalary",
      "outputs": [],
      "stateMutability": "nonpayable",
      "type": "function"
    },
    {
      "inputs": [],
      "name": "getSalaries",
      "outputs": [
        {
          "components": [
            {
              "internalType": "uint256",
              "name": "salary_id",
              "type": "uint256"
            },
            {
              "internalType": "address",
              "name": "owner_address",
              "type": "address"
            },
            {
              "internalType": "uint256",
              "name": "current",
              "type": "uint256"
            },
            {
              "internalType": "uint256",
              "name": "first",
              "type": "uint256"
            },
            {
              "internalType": "uint256",
              "name": "speed_of_growth",
              "type": "uint256"
            },
            {
              "internalType": "uint256",
              "name": "raise_change",
              "type": "uint256"
            },
            {
              "internalType": "string",
              "name": "role",
              "type": "string"
            },
            {
              "internalType": "string",
              "name": "experience",
              "type": "string"
            },
            {
              "internalType": "string",
              "name": "opinion",
              "type": "string"
            },
            {
              "internalType": "uint256",
              "name": "company_id",
              "type": "uint256"
            },
            {
              "internalType": "string",
              "name": "company_name",
              "type": "string"
            },
            {
              "internalType": "uint256",
              "name": "created_at",
              "type": "uint256"
            }
          ],
          "internalType": "struct CompaniesSalariesStructs.Salary[]",
          "name": "",
          "type": "tuple[]"
        }
      ],
      "stateMutability": "view",
      "type": "function"
    },
    {
      "inputs": [
        {
          "internalType": "uint256",
          "name": "_company_id",
          "type": "uint256"
        }
      ],
      "name": "getSalariesByCompanyId",
      "outputs": [
        {
          "components": [
            {
              "internalType": "uint256",
              "name": "salary_id",
              "type": "uint256"
            },
            {
              "internalType": "address",
              "name": "owner_address",
              "type": "address"
            },
            {
              "internalType": "uint256",
              "name": "current",
              "type": "uint256"
            },
            {
              "internalType": "uint256",
              "name": "first",
              "type": "uint256"
            },
            {
              "internalType": "uint256",
              "name": "speed_of_growth",
              "type": "uint256"
            },
            {
              "internalType": "uint256",
              "name": "raise_change",
              "type": "uint256"
            },
            {
              "internalType": "string",
              "name": "role",
              "type": "string"
            },
            {
              "internalType": "string",
              "name": "experience",
              "type": "string"
            },
            {
              "internalType": "string",
              "name": "opinion",
              "type": "string"
            },
            {
              "internalType": "uint256",
              "name": "company_id",
              "type": "uint256"
            },
            {
              "internalType": "string",
              "name": "company_name",
              "type": "string"
            },
            {
              "internalType": "uint256",
              "name": "created_at",
              "type": "uint256"
            }
          ],
          "internalType": "struct CompaniesSalariesStructs.Salary[]",
          "name": "",
          "type": "tuple[]"
        }
      ],
      "stateMutability": "view",
      "type": "function"
    },
    {
      "inputs": [
        {
          "internalType": "string",
          "name": "_company_name",
          "type": "string"
        }
      ],
      "name": "getSalariesByCompanyName",
      "outputs": [
        {
          "components": [
            {
              "internalType": "uint256",
              "name": "salary_id",
              "type": "uint256"
            },
            {
              "internalType": "address",
              "name": "owner_address",
              "type": "address"
            },
            {
              "internalType": "uint256",
              "name": "current",
              "type": "uint256"
            },
            {
              "internalType": "uint256",
              "name": "first",
              "type": "uint256"
            },
            {
              "internalType": "uint256",
              "name": "speed_of_growth",
              "type": "uint256"
            },
            {
              "internalType": "uint256",
              "name": "raise_change",
              "type": "uint256"
            },
            {
              "internalType": "string",
              "name": "role",
              "type": "string"
            },
            {
              "internalType": "string",
              "name": "experience",
              "type": "string"
            },
            {
              "internalType": "string",
              "name": "opinion",
              "type": "string"
            },
            {
              "internalType": "uint256",
              "name": "company_id",
              "type": "uint256"
            },
            {
              "internalType": "string",
              "name": "company_name",
              "type": "string"
            },
            {
              "internalType": "uint256",
              "name": "created_at",
              "type": "uint256"
            }
          ],
          "internalType": "struct CompaniesSalariesStructs.Salary[]",
          "name": "",
          "type": "tuple[]"
        }
      ],
      "stateMutability": "view",
      "type": "function"
    }
  ],
  "bytecode": "0x60806040526000805534801561001457600080fd5b50611968806100246000396000f3fe608060405234801561001057600080fd5b506004361061004c5760003560e01c8063055791cc146100515780633012c9b9146100815780636e6ab5dc1461009f578063bf22d277146100bb575b600080fd5b61006b60048036038101906100669190610ffa565b6100eb565b60405161007891906112f7565b60405180910390f35b6100896104ee565b60405161009691906112f7565b60405180910390f35b6100b960048036038101906100b49190611345565b610832565b005b6100d560048036038101906100d0919061147f565b6109d4565b6040516100e291906112f7565b60405180910390f35b6060600060018054905067ffffffffffffffff81111561010e5761010d610ecf565b5b60405190808252806020026020018201604052801561014757816020015b610134610e29565b81526020019060019003908161012c5790505b5090506000805b6001805490508110156104e05761018960018281548110610172576101716114ac565b5b90600052602060002090600c0201600a0186610dd0565b156104cd57600181815481106101a2576101a16114ac565b5b90600052602060002090600c020160405180610180016040529081600082015481526020016001820160009054906101000a900473ffffffffffffffffffffffffffffffffffffffff1673ffffffffffffffffffffffffffffffffffffffff1673ffffffffffffffffffffffffffffffffffffffff168152602001600282015481526020016003820154815260200160048201548152602001600582015481526020016006820180546102549061150a565b80601f01602080910402602001604051908101604052809291908181526020018280546102809061150a565b80156102cd5780601f106102a2576101008083540402835291602001916102cd565b820191906000526020600020905b8154815290600101906020018083116102b057829003601f168201915b505050505081526020016007820180546102e69061150a565b80601f01602080910402602001604051908101604052809291908181526020018280546103129061150a565b801561035f5780601f106103345761010080835404028352916020019161035f565b820191906000526020600020905b81548152906001019060200180831161034257829003601f168201915b505050505081526020016008820180546103789061150a565b80601f01602080910402602001604051908101604052809291908181526020018280546103a49061150a565b80156103f15780601f106103c6576101008083540402835291602001916103f1565b820191906000526020600020905b8154815290600101906020018083116103d457829003601f168201915b5050505050815260200160098201548152602001600a820180546104149061150a565b80601f01602080910402602001604051908101604052809291908181526020018280546104409061150a565b801561048d5780601f106104625761010080835404028352916020019161048d565b820191906000526020600020905b81548152906001019060200180831161047057829003601f168201915b50505050508152602001600b820154815250508383815181106104b3576104b26114ac565b5b602002602001018190525081806104c99061156a565b9250505b80806104d89061156a565b91505061014e565b508082528192505050919050565b60606001805480602002602001604051908101604052809291908181526020016000905b8282101561082957838290600052602060002090600c020160405180610180016040529081600082015481526020016001820160009054906101000a900473ffffffffffffffffffffffffffffffffffffffff1673ffffffffffffffffffffffffffffffffffffffff1673ffffffffffffffffffffffffffffffffffffffff168152602001600282015481526020016003820154815260200160048201548152602001600582015481526020016006820180546105ce9061150a565b80601f01602080910402602001604051908101604052809291908181526020018280546105fa9061150a565b80156106475780601f1061061c57610100808354040283529160200191610647565b820191906000526020600020905b81548152906001019060200180831161062a57829003601f168201915b505050505081526020016007820180546106609061150a565b80601f016020809104026020016040519081016040528092919081815260200182805461068c9061150a565b80156106d95780601f106106ae576101008083540402835291602001916106d9565b820191906000526020600020905b8154815290600101906020018083116106bc57829003601f168201915b505050505081526020016008820180546106f29061150a565b80601f016020809104026020016040519081016040528092919081815260200182805461071e9061150a565b801561076b5780601f106107405761010080835404028352916020019161076b565b820191906000526020600020905b81548152906001019060200180831161074e57829003601f168201915b5050505050815260200160098201548152602001600a8201805461078e9061150a565b80601f01602080910402602001604051908101604052809291908181526020018280546107ba9061150a565b80156108075780601f106107dc57610100808354040283529160200191610807565b820191906000526020600020905b8154815290600101906020018083116107ea57829003601f168201915b50505050508152602001600b8201548152505081526020019060010190610512565b50505050905090565b600160405180610180016040528060005481526020013373ffffffffffffffffffffffffffffffffffffffff1681526020018b81526020018a81526020018981526020018881526020018781526020018681526020018581526020018481526020018381526020014281525090806001815401808255809150506001900390600052602060002090600c02016000909190919091506000820151816000015560208201518160010160006101000a81548173ffffffffffffffffffffffffffffffffffffffff021916908373ffffffffffffffffffffffffffffffffffffffff16021790555060408201518160020155606082015181600301556080820151816004015560a0820151816005015560c0820151816006019081610955919061175e565b5060e082015181600701908161096b919061175e565b50610100820151816008019081610982919061175e565b50610120820151816009015561014082015181600a0190816109a4919061175e565b5061016082015181600b015550506000808154809291906109c49061156a565b9190505550505050505050505050565b6060600060018054905067ffffffffffffffff8111156109f7576109f6610ecf565b5b604051908082528060200260200182016040528015610a3057816020015b610a1d610e29565b815260200190600190039081610a155790505b5090506000805b600180549050811015610dc2578460018281548110610a5957610a586114ac565b5b90600052602060002090600c02016009015403610daf5760018181548110610a8457610a836114ac565b5b90600052602060002090600c020160405180610180016040529081600082015481526020016001820160009054906101000a900473ffffffffffffffffffffffffffffffffffffffff1673ffffffffffffffffffffffffffffffffffffffff1673ffffffffffffffffffffffffffffffffffffffff16815260200160028201548152602001600382015481526020016004820154815260200160058201548152602001600682018054610b369061150a565b80601f0160208091040260200160405190810160405280929190818152602001828054610b629061150a565b8015610baf5780601f10610b8457610100808354040283529160200191610baf565b820191906000526020600020905b815481529060010190602001808311610b9257829003601f168201915b50505050508152602001600782018054610bc89061150a565b80601f0160208091040260200160405190810160405280929190818152602001828054610bf49061150a565b8015610c415780601f10610c1657610100808354040283529160200191610c41565b820191906000526020600020905b815481529060010190602001808311610c2457829003601f168201915b50505050508152602001600882018054610c5a9061150a565b80601f0160208091040260200160405190810160405280929190818152602001828054610c869061150a565b8015610cd35780601f10610ca857610100808354040283529160200191610cd3565b820191906000526020600020905b815481529060010190602001808311610cb657829003601f168201915b5050505050815260200160098201548152602001600a82018054610cf69061150a565b80601f0160208091040260200160405190810160405280929190818152602001828054610d229061150a565b8015610d6f5780601f10610d4457610100808354040283529160200191610d6f565b820191906000526020600020905b815481529060010190602001808311610d5257829003601f168201915b50505050508152602001600b82015481525050838381518110610d9557610d946114ac565b5b60200260200101819052508180610dab9061156a565b9250505b8080610dba9061156a565b915050610a37565b508082528192505050919050565b600081604051602001610de3919061186c565b6040516020818303038152906040528051906020012083604051602001610e0a919061191b565b6040516020818303038152906040528051906020012014905092915050565b60405180610180016040528060008152602001600073ffffffffffffffffffffffffffffffffffffffff168152602001600081526020016000815260200160008152602001600081526020016060815260200160608152602001606081526020016000815260200160608152602001600081525090565b6000604051905090565b600080fd5b600080fd5b600080fd5b600080fd5b6000601f19601f8301169050919050565b7f4e487b7100000000000000000000000000000000000000000000000000000000600052604160045260246000fd5b610f0782610ebe565b810181811067ffffffffffffffff82111715610f2657610f25610ecf565b5b80604052505050565b6000610f39610ea0565b9050610f458282610efe565b919050565b600067ffffffffffffffff821115610f6557610f64610ecf565b5b610f6e82610ebe565b9050602081019050919050565b82818337600083830152505050565b6000610f9d610f9884610f4a565b610f2f565b905082815260208101848484011115610fb957610fb8610eb9565b5b610fc4848285610f7b565b509392505050565b600082601f830112610fe157610fe0610eb4565b5b8135610ff1848260208601610f8a565b91505092915050565b6000602082840312156110105761100f610eaa565b5b600082013567ffffffffffffffff81111561102e5761102d610eaf565b5b61103a84828501610fcc565b91505092915050565b600081519050919050565b600082825260208201905092915050565b6000819050602082019050919050565b6000819050919050565b6110828161106f565b82525050565b600073ffffffffffffffffffffffffffffffffffffffff82169050919050565b60006110b382611088565b9050919050565b6110c3816110a8565b82525050565b600081519050919050565b600082825260208201905092915050565b60005b838110156111035780820151818401526020810190506110e8565b60008484015250505050565b600061111a826110c9565b61112481856110d4565b93506111348185602086016110e5565b61113d81610ebe565b840191505092915050565b6000610180830160008301516111616000860182611079565b50602083015161117460208601826110ba565b5060408301516111876040860182611079565b50606083015161119a6060860182611079565b5060808301516111ad6080860182611079565b5060a08301516111c060a0860182611079565b5060c083015184820360c08601526111d8828261110f565b91505060e083015184820360e08601526111f2828261110f565b91505061010083015184820361010086015261120e828261110f565b915050610120830151611225610120860182611079565b5061014083015184820361014086015261123f828261110f565b915050610160830151611256610160860182611079565b508091505092915050565b600061126d8383611148565b905092915050565b6000602082019050919050565b600061128d82611043565b611297818561104e565b9350836020820285016112a98561105f565b8060005b858110156112e557848403895281516112c68582611261565b94506112d183611275565b925060208a019950506001810190506112ad565b50829750879550505050505092915050565b600060208201905081810360008301526113118184611282565b905092915050565b6113228161106f565b811461132d57600080fd5b50565b60008135905061133f81611319565b92915050565b60008060008060008060008060006101208a8c03121561136857611367610eaa565b5b60006113768c828d01611330565b99505060206113878c828d01611330565b98505060406113988c828d01611330565b97505060606113a98c828d01611330565b96505060808a013567ffffffffffffffff8111156113ca576113c9610eaf565b5b6113d68c828d01610fcc565b95505060a08a013567ffffffffffffffff8111156113f7576113f6610eaf565b5b6114038c828d01610fcc565b94505060c08a013567ffffffffffffffff81111561142457611423610eaf565b5b6114308c828d01610fcc565b93505060e06114418c828d01611330565b9250506101008a013567ffffffffffffffff81111561146357611462610eaf565b5b61146f8c828d01610fcc565b9150509295985092959850929598565b60006020828403121561149557611494610eaa565b5b60006114a384828501611330565b91505092915050565b7f4e487b7100000000000000000000000000000000000000000000000000000000600052603260045260246000fd5b7f4e487b7100000000000000000000000000000000000000000000000000000000600052602260045260246000fd5b6000600282049050600182168061152257607f821691505b602082108103611535576115346114db565b5b50919050565b7f4e487b7100000000000000000000000000000000000000000000000000000000600052601160045260246000fd5b60006115758261106f565b91507fffffffffffffffffffffffffffffffffffffffffffffffffffffffffffffffff82036115a7576115a661153b565b5b600182019050919050565b60008190508160005260206000209050919050565b60006020601f8301049050919050565b600082821b905092915050565b6000600883026116147fffffffffffffffffffffffffffffffffffffffffffffffffffffffffffffffff826115d7565b61161e86836115d7565b95508019841693508086168417925050509392505050565b6000819050919050565b600061165b6116566116518461106f565b611636565b61106f565b9050919050565b6000819050919050565b61167583611640565b61168961168182611662565b8484546115e4565b825550505050565b600090565b61169e611691565b6116a981848461166c565b505050565b5b818110156116cd576116c2600082611696565b6001810190506116af565b5050565b601f821115611712576116e3816115b2565b6116ec846115c7565b810160208510156116fb578190505b61170f611707856115c7565b8301826116ae565b50505b505050565b600082821c905092915050565b600061173560001984600802611717565b1980831691505092915050565b600061174e8383611724565b9150826002028217905092915050565b611767826110c9565b67ffffffffffffffff8111156117805761177f610ecf565b5b61178a825461150a565b6117958282856116d1565b600060209050601f8311600181146117c857600084156117b6578287015190505b6117c08582611742565b865550611828565b601f1984166117d6866115b2565b60005b828110156117fe578489015182556001820191506020850194506020810190506117d9565b8683101561181b5784890151611817601f891682611724565b8355505b6001600288020188555050505b505050505050565b600081905092915050565b6000611846826110c9565b6118508185611830565b93506118608185602086016110e5565b80840191505092915050565b6000611878828461183b565b915081905092915050565b60008190508160005260206000209050919050565b600081546118a58161150a565b6118af8186611830565b945060018216600081146118ca57600181146118df57611912565b60ff1983168652811515820286019350611912565b6118e885611883565b60005b8381101561190a578154818901526001820191506020810190506118eb565b838801955050505b50505092915050565b60006119278284611898565b91508190509291505056fea26469706673582212205bc8c8c8967ac70e99d9bc952b469cfd9c4412e913dcafe2805a93b04728268c64736f6c63430008120033",
  "linkReferences": {},
  "deployedLinkReferences": {}
}