{
  "_format": "hh-sol-artifact-1",
  "contractName": "CompaniesSalaries",
  "sourceName": "contracts/CompaniesSalaries.sol",
  "abi": [
    {
      "inputs": [
        {
          "components": [
            {
              "internalType": "uint256",
              "name": "first",
              "type": "uint256"
            },
            {
              "internalType": "uint256",
              "name": "last",
              "type": "uint256"
            },
            {
              "internalType": "uint256",
              "name": "speed_of_growth",
              "type": "uint256"
            },
            {
              "internalType": "uint256",
              "name": "company_id",
              "type": "uint256"
            },
            {
              "internalType": "string",
              "name": "company_name",
              "type": "string"
            },
            {
              "internalType": "string",
              "name": "role",
              "type": "string"
            },
            {
              "internalType": "uint16",
              "name": "experience",
              "type": "uint16"
            },
            {
              "internalType": "string",
              "name": "opinion",
              "type": "string"
            },
            {
              "internalType": "string",
              "name": "location",
              "type": "string"
            },
            {
              "internalType": "string",
              "name": "employment_type",
              "type": "string"
            },
            {
              "internalType": "string",
              "name": "operating_mode",
              "type": "string"
            },
            {
              "internalType": "string",
              "name": "salary_currency",
              "type": "string"
            },
            {
              "internalType": "uint16",
              "name": "experience_in_company",
              "type": "uint16"
            }
          ],
          "internalType": "struct CompaniesSalariesStructs.SalaryDto",
          "name": "companiesSalaries",
          "type": "tuple"
        }
      ],
      "name": "addSalary",
      "outputs": [],
      "stateMutability": "nonpayable",
      "type": "function"
    },
    {
      "inputs": [
        {
          "internalType": "uint256",
          "name": "_salary_id",
          "type": "uint256"
        },
        {
          "internalType": "bool",
          "name": "_rate",
          "type": "bool"
        }
      ],
      "name": "addSalaryRate",
      "outputs": [],
      "stateMutability": "nonpayable",
      "type": "function"
    },
    {
      "inputs": [
        {
          "internalType": "uint256",
          "name": "_salary_id",
          "type": "uint256"
        }
      ],
      "name": "changeSalaryRate",
      "outputs": [],
      "stateMutability": "nonpayable",
      "type": "function"
    },
    {
      "inputs": [],
      "name": "getSalaries",
      "outputs": [
        {
          "components": [
            {
              "internalType": "uint256",
              "name": "salary_id",
              "type": "uint256"
            },
            {
              "internalType": "address",
              "name": "owner_address",
              "type": "address"
            },
            {
              "internalType": "uint256",
              "name": "first",
              "type": "uint256"
            },
            {
              "internalType": "uint256",
              "name": "last",
              "type": "uint256"
            },
            {
              "internalType": "uint256",
              "name": "speed_of_growth",
              "type": "uint256"
            },
            {
              "internalType": "uint256",
              "name": "company_id",
              "type": "uint256"
            },
            {
              "internalType": "string",
              "name": "company_name",
              "type": "string"
            },
            {
              "internalType": "string",
              "name": "role",
              "type": "string"
            },
            {
              "internalType": "uint16",
              "name": "experience",
              "type": "uint16"
            },
            {
              "internalType": "string",
              "name": "opinion",
              "type": "string"
            },
            {
              "internalType": "string",
              "name": "location",
              "type": "string"
            },
            {
              "internalType": "string",
              "name": "employment_type",
              "type": "string"
            },
            {
              "internalType": "string",
              "name": "operating_mode",
              "type": "string"
            },
            {
              "internalType": "string",
              "name": "salary_currency",
              "type": "string"
            },
            {
              "internalType": "uint16",
              "name": "experience_in_company",
              "type": "uint16"
            },
            {
              "internalType": "uint256",
              "name": "created_at",
              "type": "uint256"
            },
            {
              "components": [
                {
                  "internalType": "uint256",
                  "name": "id",
                  "type": "uint256"
                },
                {
                  "internalType": "address",
                  "name": "owner_address",
                  "type": "address"
                },
                {
                  "internalType": "string",
                  "name": "content",
                  "type": "string"
                },
                {
                  "internalType": "uint256",
                  "name": "created_at",
                  "type": "uint256"
                }
              ],
              "internalType": "struct Structs.Reply[]",
              "name": "replies",
              "type": "tuple[]"
            },
            {
              "components": [
                {
                  "internalType": "uint256",
                  "name": "id",
                  "type": "uint256"
                },
                {
                  "internalType": "address",
                  "name": "owner_address",
                  "type": "address"
                },
                {
                  "internalType": "bool",
                  "name": "rate",
                  "type": "bool"
                }
              ],
              "internalType": "struct Structs.Rate[]",
              "name": "rates",
              "type": "tuple[]"
            }
          ],
          "internalType": "struct CompaniesSalariesStructs.Salary[]",
          "name": "",
          "type": "tuple[]"
        }
      ],
      "stateMutability": "view",
      "type": "function"
    },
    {
      "inputs": [
        {
          "internalType": "uint256",
          "name": "_salary_id",
          "type": "uint256"
        }
      ],
      "name": "removeSalaryRate",
      "outputs": [],
      "stateMutability": "nonpayable",
      "type": "function"
    }
  ],
  "bytecode": "0x6080604052600080556000600155600060025534801561001e57600080fd5b506123b28061002e6000396000f3fe608060405234801561001057600080fd5b50600436106100575760003560e01c80633012c9b91461005c5780636c148c621461007a578063a10ed82614610096578063d6b4f86e146100b2578063f5c2dbf5146100ce575b600080fd5b6100646100ea565b60405161007191906118a9565b60405180910390f35b610094600480360381019061008f9190611937565b61084f565b005b6100b060048036038101906100ab9190611cde565b610a7e565b005b6100cc60048036038101906100c79190611d27565b610cd3565b005b6100e860048036038101906100e39190611d27565b611017565b005b60606003805480602002602001604051908101604052809291908181526020016000905b82821015610846578382906000526020600020906012020160405180610240016040529081600082015481526020016001820160009054906101000a900473ffffffffffffffffffffffffffffffffffffffff1673ffffffffffffffffffffffffffffffffffffffff1673ffffffffffffffffffffffffffffffffffffffff168152602001600282015481526020016003820154815260200160048201548152602001600582015481526020016006820180546101ca90611d83565b80601f01602080910402602001604051908101604052809291908181526020018280546101f690611d83565b80156102435780601f1061021857610100808354040283529160200191610243565b820191906000526020600020905b81548152906001019060200180831161022657829003601f168201915b5050505050815260200160078201805461025c90611d83565b80601f016020809104026020016040519081016040528092919081815260200182805461028890611d83565b80156102d55780601f106102aa576101008083540402835291602001916102d5565b820191906000526020600020905b8154815290600101906020018083116102b857829003601f168201915b505050505081526020016008820160009054906101000a900461ffff1661ffff1661ffff16815260200160098201805461030e90611d83565b80601f016020809104026020016040519081016040528092919081815260200182805461033a90611d83565b80156103875780601f1061035c57610100808354040283529160200191610387565b820191906000526020600020905b81548152906001019060200180831161036a57829003601f168201915b50505050508152602001600a820180546103a090611d83565b80601f01602080910402602001604051908101604052809291908181526020018280546103cc90611d83565b80156104195780601f106103ee57610100808354040283529160200191610419565b820191906000526020600020905b8154815290600101906020018083116103fc57829003601f168201915b50505050508152602001600b8201805461043290611d83565b80601f016020809104026020016040519081016040528092919081815260200182805461045e90611d83565b80156104ab5780601f10610480576101008083540402835291602001916104ab565b820191906000526020600020905b81548152906001019060200180831161048e57829003601f168201915b50505050508152602001600c820180546104c490611d83565b80601f01602080910402602001604051908101604052809291908181526020018280546104f090611d83565b801561053d5780601f106105125761010080835404028352916020019161053d565b820191906000526020600020905b81548152906001019060200180831161052057829003601f168201915b50505050508152602001600d8201805461055690611d83565b80601f016020809104026020016040519081016040528092919081815260200182805461058290611d83565b80156105cf5780601f106105a4576101008083540402835291602001916105cf565b820191906000526020600020905b8154815290600101906020018083116105b257829003601f168201915b50505050508152602001600e820160009054906101000a900461ffff1661ffff1661ffff168152602001600f820154815260200160108201805480602002602001604051908101604052809291908181526020016000905b828210156107555783829060005260206000209060040201604051806080016040529081600082015481526020016001820160009054906101000a900473ffffffffffffffffffffffffffffffffffffffff1673ffffffffffffffffffffffffffffffffffffffff1673ffffffffffffffffffffffffffffffffffffffff1681526020016002820180546106ba90611d83565b80601f01602080910402602001604051908101604052809291908181526020018280546106e690611d83565b80156107335780601f1061070857610100808354040283529160200191610733565b820191906000526020600020905b81548152906001019060200180831161071657829003601f168201915b5050505050815260200160038201548152505081526020019060010190610627565b50505050815260200160118201805480602002602001604051908101604052809291908181526020016000905b8282101561082f5783829060005260206000209060020201604051806060016040529081600082015481526020016001820160009054906101000a900473ffffffffffffffffffffffffffffffffffffffff1673ffffffffffffffffffffffffffffffffffffffff1673ffffffffffffffffffffffffffffffffffffffff1681526020016001820160149054906101000a900460ff16151515158152505081526020019060010190610782565b50505050815250508152602001906001019061010e565b50505050905090565b60005b6003838154811061086657610865611db4565b5b90600052602060002090601202016011018054905081101561096b573373ffffffffffffffffffffffffffffffffffffffff16600384815481106108ad576108ac611db4565b5b906000526020600020906012020160110182815481106108d0576108cf611db4565b5b906000526020600020906002020160010160009054906101000a900473ffffffffffffffffffffffffffffffffffffffff1673ffffffffffffffffffffffffffffffffffffffff1603610958576040517f08c379a000000000000000000000000000000000000000000000000000000000815260040161094f90611e40565b60405180910390fd5b808061096390611e8f565b915050610852565b50600382815481106109805761097f611db4565b5b9060005260206000209060120201601101604051806060016040528060015481526020013373ffffffffffffffffffffffffffffffffffffffff16815260200183151581525090806001815401808255809150506001900390600052602060002090600202016000909190919091506000820151816000015560208201518160010160006101000a81548173ffffffffffffffffffffffffffffffffffffffff021916908373ffffffffffffffffffffffffffffffffffffffff16021790555060408201518160010160146101000a81548160ff021916908315150217905550505060026000815480929190610a7590611e8f565b91905055505050565b600060036001816001815401808255809150500390600052602060002090601202019050610ab5826000015164e8d4a51000611266565b610ac8826020015164e8d4a51000611266565b610ada8260400151633b9aca00611266565b610ae9826080015160646112ad565b610af88260a0015160646112ad565b610b088260e001516103e86112ad565b610b1882610100015160326112ad565b610b2882610120015160326112ad565b610b3882610140015160326112ad565b610b4882610160015160046112ad565b6000548160000181905550338160010160006101000a81548173ffffffffffffffffffffffffffffffffffffffff021916908373ffffffffffffffffffffffffffffffffffffffff160217905550816000015181600201819055508160200151816003018190555081604001518160040181905550816060015181600501819055508160800151816006019081610bdf9190612083565b508160a00151816007019081610bf59190612083565b508160c001518160080160006101000a81548161ffff021916908361ffff1602179055508160e00151816009019081610c2e9190612083565b5081610100015181600a019081610c459190612083565b5081610120015181600b019081610c5c9190612083565b5081610140015181600c019081610c739190612083565b5081610160015181600d019081610c8a9190612083565b5081610180015181600e0160006101000a81548161ffff021916908361ffff1602179055504281600f0181905550600080815480929190610cca90611e8f565b91905055505050565b60005b60038281548110610cea57610ce9611db4565b5b906000526020600020906012020160110180549050811015610fd8573373ffffffffffffffffffffffffffffffffffffffff1660038381548110610d3157610d30611db4565b5b90600052602060002090601202016011018281548110610d5457610d53611db4565b5b906000526020600020906002020160010160009054906101000a900473ffffffffffffffffffffffffffffffffffffffff1673ffffffffffffffffffffffffffffffffffffffff1603610fc55760008190505b600160038481548110610dbd57610dbc611db4565b5b906000526020600020906012020160110180549050610ddc9190612155565b811015610f2d5760038381548110610df757610df6611db4565b5b9060005260206000209060120201601101600182610e159190612189565b81548110610e2657610e25611db4565b5b906000526020600020906002020160038481548110610e4857610e47611db4565b5b90600052602060002090601202016011018281548110610e6b57610e6a611db4565b5b9060005260206000209060020201600082015481600001556001820160009054906101000a900473ffffffffffffffffffffffffffffffffffffffff168160010160006101000a81548173ffffffffffffffffffffffffffffffffffffffff021916908373ffffffffffffffffffffffffffffffffffffffff1602179055506001820160149054906101000a900460ff168160010160146101000a81548160ff0219169083151502179055509050508080610f2590611e8f565b915050610da7565b5060038281548110610f4257610f41611db4565b5b9060005260206000209060120201601101805480610f6357610f626121bd565b5b60019003818190600052602060002090600202016000808201600090556001820160006101000a81549073ffffffffffffffffffffffffffffffffffffffff02191690556001820160146101000a81549060ff02191690555050905550611014565b8080610fd090611e8f565b915050610cd6565b506040517f08c379a000000000000000000000000000000000000000000000000000000000815260040161100b90612238565b60405180910390fd5b50565b60005b6003828154811061102e5761102d611db4565b5b906000526020600020906012020160110180549050811015611227573373ffffffffffffffffffffffffffffffffffffffff166003838154811061107557611074611db4565b5b9060005260206000209060120201601101828154811061109857611097611db4565b5b906000526020600020906002020160010160009054906101000a900473ffffffffffffffffffffffffffffffffffffffff1673ffffffffffffffffffffffffffffffffffffffff16036112145760011515600383815481106110fd576110fc611db4565b5b906000526020600020906012020160110182815481106111205761111f611db4565b5b906000526020600020906002020160010160149054906101000a900460ff161515036111ad5760006003838154811061115c5761115b611db4565b5b9060005260206000209060120201601101828154811061117f5761117e611db4565b5b906000526020600020906002020160010160146101000a81548160ff02191690831515021790555050611263565b6001600383815481106111c3576111c2611db4565b5b906000526020600020906012020160110182815481106111e6576111e5611db4565b5b906000526020600020906002020160010160146101000a81548160ff02191690831515021790555050611263565b808061121f90611e8f565b91505061101a565b506040517f08c379a000000000000000000000000000000000000000000000000000000000815260040161125a90612238565b60405180910390fd5b50565b808211156112a9576040517f08c379a00000000000000000000000000000000000000000000000000000000081526004016112a0906122ca565b60405180910390fd5b5050565b80825111156112f1576040517f08c379a00000000000000000000000000000000000000000000000000000000081526004016112e89061235c565b60405180910390fd5b5050565b600081519050919050565b600082825260208201905092915050565b6000819050602082019050919050565b6000819050919050565b61133481611321565b82525050565b600073ffffffffffffffffffffffffffffffffffffffff82169050919050565b60006113658261133a565b9050919050565b6113758161135a565b82525050565b600081519050919050565b600082825260208201905092915050565b60005b838110156113b557808201518184015260208101905061139a565b60008484015250505050565b6000601f19601f8301169050919050565b60006113dd8261137b565b6113e78185611386565b93506113f7818560208601611397565b611400816113c1565b840191505092915050565b600061ffff82169050919050565b6114228161140b565b82525050565b600081519050919050565b600082825260208201905092915050565b6000819050602082019050919050565b600060808301600083015161146c600086018261132b565b50602083015161147f602086018261136c565b506040830151848203604086015261149782826113d2565b91505060608301516114ac606086018261132b565b508091505092915050565b60006114c38383611454565b905092915050565b6000602082019050919050565b60006114e382611428565b6114ed8185611433565b9350836020820285016114ff85611444565b8060005b8581101561153b578484038952815161151c85826114b7565b9450611527836114cb565b925060208a01995050600181019050611503565b50829750879550505050505092915050565b600081519050919050565b600082825260208201905092915050565b6000819050602082019050919050565b60008115159050919050565b61158e81611579565b82525050565b6060820160008201516115aa600085018261132b565b5060208201516115bd602085018261136c565b5060408201516115d06040850182611585565b50505050565b60006115e28383611594565b60608301905092915050565b6000602082019050919050565b60006116068261154d565b6116108185611558565b935061161b83611569565b8060005b8381101561164c57815161163388826115d6565b975061163e836115ee565b92505060018101905061161f565b5085935050505092915050565b600061024083016000830151611672600086018261132b565b506020830151611685602086018261136c565b506040830151611698604086018261132b565b5060608301516116ab606086018261132b565b5060808301516116be608086018261132b565b5060a08301516116d160a086018261132b565b5060c083015184820360c08601526116e982826113d2565b91505060e083015184820360e086015261170382826113d2565b91505061010083015161171a610100860182611419565b5061012083015184820361012086015261173482826113d2565b91505061014083015184820361014086015261175082826113d2565b91505061016083015184820361016086015261176c82826113d2565b91505061018083015184820361018086015261178882826113d2565b9150506101a08301518482036101a08601526117a482826113d2565b9150506101c08301516117bb6101c0860182611419565b506101e08301516117d06101e086018261132b565b506102008301518482036102008601526117ea82826114d8565b91505061022083015184820361022086015261180682826115fb565b9150508091505092915050565b600061181f8383611659565b905092915050565b6000602082019050919050565b600061183f826112f5565b6118498185611300565b93508360208202850161185b85611311565b8060005b8581101561189757848403895281516118788582611813565b945061188383611827565b925060208a0199505060018101905061185f565b50829750879550505050505092915050565b600060208201905081810360008301526118c38184611834565b905092915050565b6000604051905090565b600080fd5b600080fd5b6118e881611321565b81146118f357600080fd5b50565b600081359050611905816118df565b92915050565b61191481611579565b811461191f57600080fd5b50565b6000813590506119318161190b565b92915050565b6000806040838503121561194e5761194d6118d5565b5b600061195c858286016118f6565b925050602061196d85828601611922565b9150509250929050565b600080fd5b7f4e487b7100000000000000000000000000000000000000000000000000000000600052604160045260246000fd5b6119b4826113c1565b810181811067ffffffffffffffff821117156119d3576119d261197c565b5b80604052505050565b60006119e66118cb565b90506119f282826119ab565b919050565b600080fd5b600080fd5b600080fd5b600067ffffffffffffffff821115611a2157611a2061197c565b5b611a2a826113c1565b9050602081019050919050565b82818337600083830152505050565b6000611a59611a5484611a06565b6119dc565b905082815260208101848484011115611a7557611a74611a01565b5b611a80848285611a37565b509392505050565b600082601f830112611a9d57611a9c6119fc565b5b8135611aad848260208601611a46565b91505092915050565b611abf8161140b565b8114611aca57600080fd5b50565b600081359050611adc81611ab6565b92915050565b60006101a08284031215611af957611af8611977565b5b611b046101a06119dc565b90506000611b14848285016118f6565b6000830152506020611b28848285016118f6565b6020830152506040611b3c848285016118f6565b6040830152506060611b50848285016118f6565b606083015250608082013567ffffffffffffffff811115611b7457611b736119f7565b5b611b8084828501611a88565b60808301525060a082013567ffffffffffffffff811115611ba457611ba36119f7565b5b611bb084828501611a88565b60a08301525060c0611bc484828501611acd565b60c08301525060e082013567ffffffffffffffff811115611be857611be76119f7565b5b611bf484828501611a88565b60e08301525061010082013567ffffffffffffffff811115611c1957611c186119f7565b5b611c2584828501611a88565b6101008301525061012082013567ffffffffffffffff811115611c4b57611c4a6119f7565b5b611c5784828501611a88565b6101208301525061014082013567ffffffffffffffff811115611c7d57611c7c6119f7565b5b611c8984828501611a88565b6101408301525061016082013567ffffffffffffffff811115611caf57611cae6119f7565b5b611cbb84828501611a88565b61016083015250610180611cd184828501611acd565b6101808301525092915050565b600060208284031215611cf457611cf36118d5565b5b600082013567ffffffffffffffff811115611d1257611d116118da565b5b611d1e84828501611ae2565b91505092915050565b600060208284031215611d3d57611d3c6118d5565b5b6000611d4b848285016118f6565b91505092915050565b7f4e487b7100000000000000000000000000000000000000000000000000000000600052602260045260246000fd5b60006002820490506001821680611d9b57607f821691505b602082108103611dae57611dad611d54565b5b50919050565b7f4e487b7100000000000000000000000000000000000000000000000000000000600052603260045260246000fd5b600082825260208201905092915050565b7f596f7520616c72656164792072617465207468697320696e666f000000000000600082015250565b6000611e2a601a83611de3565b9150611e3582611df4565b602082019050919050565b60006020820190508181036000830152611e5981611e1d565b9050919050565b7f4e487b7100000000000000000000000000000000000000000000000000000000600052601160045260246000fd5b6000611e9a82611321565b91507fffffffffffffffffffffffffffffffffffffffffffffffffffffffffffffffff8203611ecc57611ecb611e60565b5b600182019050919050565b60008190508160005260206000209050919050565b60006020601f8301049050919050565b600082821b905092915050565b600060088302611f397fffffffffffffffffffffffffffffffffffffffffffffffffffffffffffffffff82611efc565b611f438683611efc565b95508019841693508086168417925050509392505050565b6000819050919050565b6000611f80611f7b611f7684611321565b611f5b565b611321565b9050919050565b6000819050919050565b611f9a83611f65565b611fae611fa682611f87565b848454611f09565b825550505050565b600090565b611fc3611fb6565b611fce818484611f91565b505050565b5b81811015611ff257611fe7600082611fbb565b600181019050611fd4565b5050565b601f8211156120375761200881611ed7565b61201184611eec565b81016020851015612020578190505b61203461202c85611eec565b830182611fd3565b50505b505050565b600082821c905092915050565b600061205a6000198460080261203c565b1980831691505092915050565b60006120738383612049565b9150826002028217905092915050565b61208c8261137b565b67ffffffffffffffff8111156120a5576120a461197c565b5b6120af8254611d83565b6120ba828285611ff6565b600060209050601f8311600181146120ed57600084156120db578287015190505b6120e58582612067565b86555061214d565b601f1984166120fb86611ed7565b60005b82811015612123578489015182556001820191506020850194506020810190506120fe565b86831015612140578489015161213c601f891682612049565b8355505b6001600288020188555050505b505050505050565b600061216082611321565b915061216b83611321565b925082820390508181111561218357612182611e60565b5b92915050565b600061219482611321565b915061219f83611321565b92508282019050808211156121b7576121b6611e60565b5b92915050565b7f4e487b7100000000000000000000000000000000000000000000000000000000600052603160045260246000fd5b7f596f7520646f6e2774206861766520616e792072617465000000000000000000600082015250565b6000612222601783611de3565b915061222d826121ec565b602082019050919050565b6000602082019050818103600083015261225181612215565b9050919050565b7f4e756d626572206578636565647320746865206d6178696d756d20616c6c6f7760008201527f6564000000000000000000000000000000000000000000000000000000000000602082015250565b60006122b4602283611de3565b91506122bf82612258565b604082019050919050565b600060208201905081810360008301526122e3816122a7565b9050919050565b7f537472696e67206c656e677468206578636565647320746865206d6178696d7560008201527f6d20616c6c6f7765640000000000000000000000000000000000000000000000602082015250565b6000612346602983611de3565b9150612351826122ea565b604082019050919050565b6000602082019050818103600083015261237581612339565b905091905056fea2646970667358221220337e8d55012b8e232a8d7769466b6405948dc59c5ee7e9015cf289bd13e4bbac64736f6c63430008120033",
  "linkReferences": {},
  "deployedLinkReferences": {}
}